{
  "_format": "hh-sol-artifact-1",
  "contractName": "Constants",
  "sourceName": "contracts/Constants.sol",
  "abi": [
    {
      "inputs": [],
      "name": "BABYJUB_P",
      "outputs": [
        {
          "internalType": "uint256",
          "name": "",
          "type": "uint256"
        }
      ],
      "stateMutability": "view",
      "type": "function"
    },
    {
      "inputs": [],
      "name": "PRIME_Q",
      "outputs": [
        {
          "internalType": "uint256",
          "name": "",
          "type": "uint256"
        }
      ],
      "stateMutability": "view",
      "type": "function"
    },
    {
      "inputs": [
        {
          "internalType": "uint256",
          "name": "",
          "type": "uint256"
        }
      ],
      "name": "SRS_G1_X",
      "outputs": [
        {
          "internalType": "uint256",
          "name": "",
          "type": "uint256"
        }
      ],
      "stateMutability": "view",
      "type": "function"
    },
    {
      "inputs": [
        {
          "internalType": "uint256",
          "name": "",
          "type": "uint256"
        }
      ],
      "name": "SRS_G1_Y",
      "outputs": [
        {
          "internalType": "uint256",
          "name": "",
          "type": "uint256"
        }
      ],
      "stateMutability": "view",
      "type": "function"
    },
    {
      "inputs": [
        {
          "internalType": "uint256",
          "name": "",
          "type": "uint256"
        }
      ],
      "name": "SRS_G2_X_0",
      "outputs": [
        {
          "internalType": "uint256",
          "name": "",
          "type": "uint256"
        }
      ],
      "stateMutability": "view",
      "type": "function"
    },
    {
      "inputs": [
        {
          "internalType": "uint256",
          "name": "",
          "type": "uint256"
        }
      ],
      "name": "SRS_G2_X_1",
      "outputs": [
        {
          "internalType": "uint256",
          "name": "",
          "type": "uint256"
        }
      ],
      "stateMutability": "view",
      "type": "function"
    },
    {
      "inputs": [
        {
          "internalType": "uint256",
          "name": "",
          "type": "uint256"
        }
      ],
      "name": "SRS_G2_Y_0",
      "outputs": [
        {
          "internalType": "uint256",
          "name": "",
          "type": "uint256"
        }
      ],
      "stateMutability": "view",
      "type": "function"
    },
    {
      "inputs": [
        {
          "internalType": "uint256",
          "name": "",
          "type": "uint256"
        }
      ],
      "name": "SRS_G2_Y_1",
      "outputs": [
        {
          "internalType": "uint256",
          "name": "",
          "type": "uint256"
        }
      ],
      "stateMutability": "view",
      "type": "function"
    }
  ],
  "bytecode": "0x6080604052604051806110200160405280600181526020017f1bf32ccf9d8606f2a32624586c10380aa3d12ecd1f0b53f277df6e74c2f8652e81526020017f0e401b101716cb5ef95e29e150c1829a179e9d89167205f23593fb8161d085e881526020017f22f09c6d02082455b418cabcaed2f8113ffcba593c346f30d07236308baf24c981526020017f24552bc00dda4d440e1e35ca9550675fdb5e422f6e12c52dfdceb516f4bbbc5b81526020017f1a84f51d9cb05c0db0980d32ca62f20f7bc4e554360a38f2bb0abcf399b2ece181526020017f2ac6d41b3693a672fe527dc1d035c5c6a597be706d054f9f4fbbcc357257b76481526020017f1570df0052502e9249110efe0d85d3292947918851d9c4b34906ea8a73d9672281526020017f2386350d374d88f78cf0ef5ca5777ecb83a5a212eaa69cd548ccc7cfc80c367681526020017f208605b0745f360d5dd002858ee8ea2d5a25dc49b813598036b80a37f6db710e81526020017f27195ac6c913159058be75f4375a6f961b52a835957e91978739257c8e5619e281526020017f22059de91334bc1f7e6655ec5121c2404dafc569532786053c0201792c1f6e4e81526020017f1e0d393cdaeb633260281cda7418605605f7e4bfff89253e6cac0112326af21381526020017f2bdfc801ecc7f983de4dda8ac3c2075f80f213239d6ecbeb79f747aae080b80781526020017f16ac41a2e17d188680abfa742f3cdc0fd5e6809a8dc2f1cafa4cf7394019ef8481526020017f1cc81ba066276c0443b0132009a93a4ca2c2a8075c32d2c14a51f200b567666481526020017f11fe53a734fd48ac9417cad9a5c66cffd10c5a128214b703096b85f2bb18b22c81526020017f238b4bb70fd225fc36a4891eb6dbaee0f3c796015c63c8046a7ca92e24200e4c81526020017f0f00ce493a4cb4f877cf7ccabb82b70489e13a1ac9e09e95818b5ada65a9b17d81526020017f0ff956a105a57dc1729ba78baeeefcaa5ab3570f7597a0c5247f71c96306594281526020017f29af6597a5d726baba2ba5dd507007fc439dfb891a92a9b2e7d72b33007dc7d281526020017f119cfc13c92f5cc18fccdd5135fdef1524c304f1ddadfcbb576dca340d61a9bf81526020017f03a622b55ee067a5690d9d68e9ba6395daa93038e79db4d016db89e043e7ec3181526020017f255a1b1192634ef28388ca22f39112446ba8918cade9a8a3c3486382fddb263b81526020017f14cab6382b88a5c74e478258b8a41d93dc6d34e062c0d03af106233ea4b4260881526020017f13cb22e8c6b65dbf32e8f038c03ae1c77aa44c1424b3f876d8ca3e195e6e7d0781526020017f067acbdc712d30c05b5fa85bd5b18418c4a17804f15e71e2e03ebb51476965d181526020017f29e4d65b0a80bd6ebf2cd78148e9ed379c11c583f7050da7d53031a5afe1cc2481526020017f051ec195df86c4f79cfe7ba118d3b31bcc957b18023c3b967449e213452a988e81526020017f17b09046f4253a9f49b346a94fad379b0a08b4bdaf9315b76c6aa6c83bfdc41e81526020017f12189be11dc6defdf120cad99f984659604633197c304cd68934a8b9d941871681526020017f03de5388417ae676abaa014e9b61dac75d737d5f2519a4894bef50ed4283d6db81526020017f1dc7d8edc296a75939d5d6131cb4dd78df1d0ae603227ffbc86f03dd052668d181526020017ed5226e881e867590fbd5ce8ee70703072215f4c6f560748482dd006a05522881526020017f1438dfb6a676d856ed9dbb6fdddd0ed53540c53e8cdd6adef249c64ae810413481526020017f25048084e9d15cd722c54569538fb135e46dfcf4f0cbcf68bed0ff38b0a51e6e81526020017f1d3048a26337caf01322539fdb9fef9b3a2fc7497ffedf46f4ed530ac7616c2281526020017f284f096194eb7e8a8af689ebef51075848be3bbece0c55371ccb872743398ee281526020017f09c50fa67d6b394ef3843ac64c8b908e3b491730e8e05f58f42b7295de47ca2281526020017f01724b4873ad749824e6ffffd4f4796ed83ccef2b56458aa8fc4127944cb5d6081526020017f067a31423958a5665e44731f9abb5654fda4b524b06bb1167ba130dc42c2f56581526020017f09406bcc0dc3310263338e1b39d29a921906a9d8f911f5f57cc7c436ab98c5d081526020017f2cb5f29fa00afb0a1fce915993d3e592d11a706a6b71926b743d15faace86e7881526020017f237b439d526a32b79b12cc0524b94bac2241397cc1e7a6a62bf6cc00f57103c481526020017f020e3b46c669fac7e852717f5092fa12dc6bbbe11b5e143d04d3c2e7eda41d2981526020017f2ba692b2f2e0f6402dac0c5be6f305dd5b3f4b3dba8e9c574d877f5c1ed3e89981526020017f24bcfd502109ee384cfe8189ae20eb5ccbaf8a72bf76de71019c4ca22980654a81526020017f113df360ac29c8e6d81e3a91f57a92387efd605391be69f7a5414fb4d53a74a481526020017f1c29824113afcb355d26c9fad3d23013a7ee6f186b5e7b3b4a8061a5fd4286d681526020017f111c5a9fe6f2a94e2cb45bad0cd2fb352ccd7d2e483118bb95e5b786e4c66f7581526020017f18043c88634f5ac8385bf4e8b2da2d354c3545bac100b1bfb81c304d6cb0397c81526020017f10c8cdd188a633c04c451a01abc8ce5c17c33b4cf8688b15e9ae1591b65d838581526020017f01d360655fd4a6416a1d288d92571ac1a3833cf79c2c741af54f2f376322203c81526020017f13eedad3278e63b153c049377742815820812e5a539209f94045f632332ee6c581526020017f03a01eb93154c8a50d42ebc9201b6edacbd60e08808a9b2653118a1f3178a7d981526020017f07a03bd02d9c285ae395930aaffad4e586cd430ae4a7a0a4f9280f4d0efea89481526020017f17e331d2c3bf9882bfdf3d3ffeb53496f3f354d5437cc244b51691de2ea67d5b81526020017f26ccfa928dbb6a02f9a2533d1459bbddba5df18b18fbbec979af5ccd8a62187981526020017f1b896d7b5990250d6d4276064c6dd153946d1d41e304631671dd0710612adc3981526020017f082396adad72dc3c6afbe7f8043c3eefdd95d73ca09da70927355093ef2b2f1881526020017f1c524772146c5ad05532b70a1722ec8fdfae97af29fed1c53f3f45062f7db3fe81526020017f0233f98467d8ab85fecf55b97c06e036b3385108863d337b442fe8cae64507b881526020017f0f833d8e6e8110105f6a8bd5a72d1af973a4cff4e68c52efce5a2dbdfbec67c481526020017f195ae5333da2eb06efa9efe5e95149a163682bef6e2c7130f67ae97de868385081526020017f2005bc6dda1277e09b262034501bb1e04812bc1feba3ac019c8d7ea5c0a527cb81526020017f1152eb0ec582c5957a937dadc8035146e911b2cf350ed02a50002e55c0f2eb8681526020017f233ae5272b87840b5cce1ec342bd68768c6c93626a46034ab6ed5c9c293b6dd281526020017f11b4469306e7ccdeacc442dfa17980e8b735535988c8ba0790cffdfcc110d68681526020017f1da2fa66a94f0b086cee7bccfe2aebcaced9de148a73330d8452626cd63ab8bf81526020017f1718aee5698cbcec1cf245d0b54c8ff64de66182bb5b1abae5eb647e2e4dd1ce81526020017f2db11ae2cea66a9ae18bbc7411d39e323fcb878ab84f1364652969ab2b2990c881526020017f130fcf009bd75cf8550b11e040562e23ffd932c2aabda931f90dd90231b151bc81526020017f07bdcac71534013dcdcf3853c5d61635cbaaf01b936fb3e331470eda88fb474c81526020017f0d84ac8954984fe8e238358a793c6ce05a6eb6407601ade13b7b2099b86364c581526020017f240c99d5e3d97c4e8cce8788f19fbff529d8d528eb98095cb94f0534cc3d0ca481526020017f2493baeb15350d0ccd7dc8db251e96279a767f208f6125d600612c3da3c4066881526020017f1c88246299d7e4589101f139a4b8ed1b17253aa61550ec84a3e577e892d0451d81526020017f22215e2ea1866058222250eb6b8ecb052bb21524cf524bfdd40a4168672c04c381526020017f27f1d77697a582d4a35c3ac881694a77f29106aa1367b170df71c8ac28445c8881526020017f198422688ec5c3c4a35ebf4d256e78080716e93c44b865eb0231afc551f7573f81526020017f048d1ef78f62efae6dc64663759196d2e921e420c18e945567776469086de64481526020017f0f8a03adc5e10c524103ac8185d241b18dc9a45996f0b904a8589087e404902381526020017f0d69dc10cfe158ff1c84ccd6d63c834129ee93162423aaccc127cd63a724069c81526020017f297d6aa2cbb7996148a05c5631d645c2a6c2eedcecb8ad0873087d0c086ae81981526020017f112233556f412b1ed8397cf2455aeb8e8e3de5ccfcc5c9d783d41210db8d3cca81526020017f1f63ef47ff7178d32cebcb56cc5223dfac3b13c48210f3e3d149ceef87207ebc81526020017f16216fb5fa0bd7a8ffd9b32c967f7d555e33cb98449e41a08dab4f7c04fa875d81526020017f0dcc507d62fd583f3059a11f59b2593df7f3416bc4a86fc343cfc6e8d37ae28481526020017f2e6f2bc8daf0b0edbece8373a6a579e4ea1c0bded0bed7705c2d7b869c4410c681526020017f22dd6c713cbcddb5716fe9ef8097e545cc96f44fc064c0481cff0eb36030f37481526020017e89ca7a5894a1402f42ac610c68de090c11920db3be434a3da6dc50c398653d81526020017f2d319043e517c197a9ff8963d3399f4bc74bbb055977c9808e75ed644c5bc2af81526020017f1c38a11baf9e41cfb444f05ac75790abfd65a917f6c259ab9010c4c87fdcf54781526020017f2ff127ee998bd98b2adbcc7bcf174191182f7c6a621ac46910bf4867347edc1481526020017f11b6a7410e205a57e2536f0977a17e85e5f941b7adc15d111c0737984a278cd781526020017f151e70f61c2b5c0165b62a9cd648b6b49d9733b07fe02df5ae4deaf77efe56c881526020017f22ba4329810639d735b295a9e8648d7e34851c135e6a94e742597d0dc99093dd81526020017f2151d31159162e67bd628085c9947aec27b1aa2135e81943b28a0083b4bcb68d81526020017f0c76bbec76cb006ccd76a5503448dcc7c7ae80f890df4e63df07c47c16bc9a6981526020017f1d6ceda71a17d701e3ebbcbb51f21289c6d358e0453c4991a67c1baf37c41fc981526020017f118bda3788e835dff55cbbe4227e33e0c16df832a5086a9e0e0af1d9920fa07281526020017f20f612096d0e9ee8f6afa12c4d30c3de302e46fbea8452b092cb2a14a51f4b7881526020017f0ef0668a61b2407e138d2db6bece20a4d1d4748efb39c2f6a76eb7090cf5a24d81526020017f1c68d162f18f5c326c505f15f6710b842cff82cc125d4cf4ce41d2adc3c41ede81526020017f15092b3f5c6e118cc6518dbd78130c6bf633829411c5c8e93a33c8f8b0f2f24f81526020017f2088f01e02d62d0b37a859a657e42032a5c9a189c790978877bbc789e01df35781526020017f124c2f64042235e28c192180c0bce808183cde7aec26ce2a60bcab2ef2de1b8b81526020017f02429f148e681404783fb448d28d5b23777856568e5cfbab16902c3d825d706e81526020017f1863f247dea2bc3872f3b6786d7db0d99810a7e1237b6f607bd18c8701b700b481526020017f1e73726594d8b4d592039f71679896d41761d0e346c982310c736b96fd2a3b6981526020017f11734c5f7f1175c112e9eae54076df4ed7348c938487a57fd0c1c461f103d8ca81526020017f2257ba20d6d1db7839cd8d0e72f64564fde0688991add50450289471a4f0fa3781526020017f1cdac5b7698f7878f24bc60e3e4df9030a18204f73e3a135e5b45302a359805a81526020017f0d2108f8f26a1a1aef9c31f81632208f34e442654a2093e2a3acbdd1da7ec02481526020017f2bc97f19326fc924fcda4fe0ec205f66165ae0f39b8a34cdfc2deea3835f56f381526020017f1c711fea1f593f068fc1a8965548f6b4da36f248914b5fda56e97cce9b0b2ec581526020017f1b1b24ac8aa9f3229f75eccb7d16b86da8563bad2cda601def5c9080452d2a4781526020017f2e9b3ce02d01bb443a4315e4de7e1388fa90ec63200a62e07f36137c68d8212d81526020017f2fb08041e23b4f9fa04d0d0cfa461f1e871763cce3d6b71252fe7d417a75cc1881526020017e800cb48d12d98948dbcef6c053a1ef262d7cd093dd847308e0313c7acd6be781526020017f2e287d2a4ef6aca672590ed58686c78e91395f2101d7495ba8c2541ff8a67cce81526020017f144a442e4c494f9c9bbae7d39fb87df6c4f3155c77ef257cb5054097cc08219781526020017f3035d908ecb10844885144e69e5d3fbe5d29748d1a4f886b0bb052b737a342e081526020017f24035c69ec713397270c63bed7d4d3968e2aa671e5518e4ae46b0529df5b361d81526020017f26f733617e30cc35b2a565d321bb40b4f120b1097f3f28100987e2e235c6be8581526020017f21aac9d466cbf97709887d44fdc0189c6757ebd2228795f23f700dfd5f45f80581526020017f07491ccd643e4a420081be79b89273efc11a6c07406ec0047971df979f4b711b81526020017f0c44669879d7d3a0d5fece9db8c027b9009fdbeb9b9c0330a5c2ca74a8154dff81526020017f2ca6b5fb21a082dde700929ef7cbd301d9330a502153f3e3f9b80f831479923081525060009060816113229291906127eb565b50604051806110200160405280600281526020017f2d5cba37de100449b4a704cf146a4e1fa4e35a775b0978dac606af22ee086c1481526020017f1d1766d6eb8ad6899aa76215fbc72c7c815cdf4fa5b94824b214d33a8144164781526020017f3047fa8d988dd0ffb58a3d397c05febc29adc880fa1740d4ba37392593eab87d81526020017f149769b4009ba286c3bf68b9ef89ea3df3722c0f2c02a7e733286671bb340e1781526020017f1a47c465665f82ab95677a0e38e0b5c5aa3e79e9eff490941b8c426623822da081526020017f1dc22078116b8ed7fd2e5f257fabb07309522d378318f5b85413ca6f96b25e3281526020017f2e80a8e528e16d94f043fe10f07f41b68db811edea59b24c598f3427f8c72aeb81526020017f06a10cd14a0f266976fd8979b6e28278d9611df51ffef4f91388142aa90e35ee81526020017f26652fc097af0b4d90f17396336cfc2b79a1d6884bb8106198e47a4adcf7336a81526020017f27a212a6246a5b985ee7053be49efc820ba3755704e4eeff72c910ba6bf569c681526020017f1e314e6119e215d2ab5169ae96675810519d002cb38e723810ac55fc583c781c81526020017f0b1ada68373f226d74a1ca1d7639d9a4e1abbe59150c742ff9af5e5486dd3f1b81526020017f12aee19f60cdd2f7a7200ced5e87d38a834dc9e629cb449ead29269f99fd3d0e81526020017f1690b5e0e2541f332fc381762d43d500ed8b07f89b653ac604b99f53765833e281526020017f19ebb23a6a6ce9a3dd172ad0d2e4d24c4731c5d106946237ceda98f15dcf159281526020017f11d516516d35854d291e2d6f8af84d044c43d3c8b2024fc6e27862bf1230e63a81526020017f20e4336d023d9ccecf62430ef5ec71d25afbe398ceaea9f25756fd78d1fb283581526020017f0d1c520eb24243a6e668a3ef57b0d73f8ecc310c2d91d7a8b44690f05c63c87381526020017f2760789df6ed04a45bb374f700a984790661d72e0b3ec10da401ba737a1c35e781526020017f017ae69c9f9d9f62d9be2bba4bcac172adb630378c7aa702bf93ce64d300775381526020017f1e8be147b24481e83beabb209e37f1414ac0f6163c44319a65b82c0ddda82cda81526020017f08d2d8d6685ac4d7cb56f03e17679fe4b5aab0953f9f1ccd67b509a57ee511fb81526020017f157bdad8593045c65705e274bb9d0559a7e3331f90e5b86f4f100c61da9ad3b581526020017f2ce8ffad132cdad32966587f2bce541451754a53b5a212fb7cfdf70aef39ff3c81526020017f2d822f93cc4bd0eab8996734cee63ecfaf2cfe76de6d247579dd2c66fee532b981526020017f07c038c058f7b6e8fff220758849f8ac5e5975ef541e07c22c7f43456c01229581526020017f2427978f5e9472976b5eaa97bbf6b2755450fbb5354181dfd6e71e15e9e2ffbe81526020017f1d599933e905c6ecaec12316efe9de0f838202f322798af444b404a50757546581526020017f11b815533a46bf46479315a3968e8ddeefb559f2768844e7b8d4a09e29ae85bf81526020017f0f8e56aa69115451d882f6bd581a1b14b063c25bac3a494713b9ec507e5a8a8c81526020017f0a67970ad52392001ec0ccfc6c63176401c03f428628e75624d816e2179d5ce581526020017f0a1f8809f23f000712329eeebbdaf002f063678a131860966dae22a61252869881526020017f15e19f0b4b73b2d5d81902612592f9639b84b8c649299194c54e7eef59bd495c81526020017f12930fb964361543c19d8e5ae6047e6758c004874254b62a225ef7d3b70bed4181526020017f1f579ad5a828d4befb75b758879a53e5c5b485c5eab0c0eaa0417088b094bf2081526020017f1cb5f8d5d179db5994269371fbb59a132e41e283e80f3204487b5afb7d30ffb481526020017f25a3d89782f2ea4487bf4e2c9d8d00bd5d081b26130d273b300e5f06590b171881526020017f1c0bc9a8e12f0225e0a15b7050d9093ebf9c8d10a7dddc21051c005c50de88c281526020017f04c351362d1ba5aaa5639af13c9ca3ae3a9452519ece8e9cd1a04cfd7856b2f681526020017f1f5eb724253d5f59b74fd1dca99c4b2f759f421571d22ec9902c0d4459df1e6f81526020017e45d1de9fa72244143f328dfb89f9652b542109082d487cb347b948dc31060581526020017f2f187d4be3dd9f05a6f462a6aa2381f53fb11c668247a72af37d9bed25e1072181526020017f0f9073543658e3f5fcfb8aa7df76429d65ca79946fb66e1d7290a2d038da9c7281526020017f149aa20ce146dbe877edefc4ec10d088eb1f92c7a8873c7b56772e2da887f01081526020017f0ceae61a535d7bc905c6203eb8e421c2ba3addf6d5bb739822ce2353c748340f81526020017f1b145d1d7d659a7f23a96e0d52b8ba61624484b56b66b847bfc6a884b3acaafe81526020017f25f29b1bae3b366e2398abb7571157b5d52343ef903d4aa82fa76a9c041e923b81526020017f0d0d8a2b608a7c11e5deaacbb38581ba9f5f093e0a394aa83de5d45aa224ff5f81526020017f0a43b44970fa36ddb115c385df350f48706d77f2641e17b1ec8eb8fe6ea86dc081526020017f19f16b73cd232170391b5c09654cf40011204c263b253b487714527a4e3d133181526020017f0872d0852a8efc8fe2a31192189c431a7d4425887c0391f91423d5e3ea47d87381526020017eb717eb019c15daf8c2ebf5a3a901197b3955c5236118feb9aadaa3bf84206d81526020017f291c4e7df058a59bfd82e83cd3bffb9a2fd72dbbea166fd6982ef1057eafd2c881526020017f015a235802a944021064fc6284132c366ad31bbe9558123bdd6c2d078a8c8e1e81526020017f22a73d8429ea8b36b88df533c5376b04cf3da473bf20da9e23feed2f27beb95981526020017f2d5711ed390df1fa1e87f2990b178b35b7e12718f24c57a051f6682b5cae935881526020017f15019cab7966fed1d524a74a25ede548e4056efcf9e0f9eb18ade4c6e300b4d781526020017f24b2e6f1d24d364908496c72266ffa3d217e563083b3fc938824c183ca2c823681526020017f1d039cfa26ad29bef82e74a1da3634e5430128143022d7e1a2889d4cdbaca7bc81526020017f303b4543b0ee763a4613004fa96206297a17f2c5eac19f53590f08d31b5a97f481526020017f224bf61e71a3ee0327eb5af20b1f2718fd1c122bde7d5bce8d6ced5cb17da20e81526020017f290cae27dbe937b9d85b5e615f8c41d43d6cb9f6ac5a3eb3b6ea5ca46f918fe981526020017f2a254e8bcfc6e7c251e66c109f246aba1ac47ed20c618cd5e56d3b77078bfb3481526020017f1f4e246aefa67f3b2680af0cf06bca2d0f6601c8bcbb7db5ea765a1cdfeb25a681526020017f038f0a9aaf22cd265ad2faf248ad858a6b72658b4bb58a87deafe19580aedb4781526020017f0c20195898635dcd0baba574bdf883459f85d98e54ec45693a82ed8a941b37ca81526020017f234bd122b666c98734e0938cc35698596cd3a12ce346fa206cfc54926878d7a781526020017f1f2120194205cb2147fcfaf8be22edb6001ff7fe2bd5216024644d172bbb214281526020017efea1899d321bd5328eedffaad5cf47d7bdf8201e01e9dba140050ec205d0bb81526020017f11fc36dee7eea4ec379423863a4009e79b57837de3c776c8e376f40b74f45bff81526020017f24758ba34ce9b0f6614e5172cf7be92ef4907bbd4df9c65c78be37f764febdb881526020017f0d0584624f800ea25e12064a54ab7ff764cabd521ee9d85a379599ccacb1d05081526020017f279e037ed29fe73e29523201a3da7ba8461a2a125ea339b5d419f76187c5daa781526020017f15b4f4fe52ac379489a0c322d04881582f8d91ec59df1d2b551f5959f4f73ab481526020017f0148c7412573d5bb7042f7aab20805d8bb323eab5780b7d62d20d2cc43d3a05681526020017f0f3735f595d4b7c49efdd21826c0c04418e293f8977f8452c3b5290517dc5f4681526020017f0325b26ab0d50baa0ae526a62085a9d964db03c45a5925a33af35f975212261a81526020017f28f2718fdf99ba20651857bfe40763a7fdeb0bf51c95c86228e12971dcba248881526020017f0734b877472354a0ecd5f2a0cc586743b24fa0e62f73fe30e7e03aba4a6539ad81526020017f04043bac7985131e179843002ddd2bb677007727c1afcfe0482b3768dd651ec681526020017f0cadf7f6fed14559a71c8120a94986dd15233aa7cbe1833e4a64d1538f7c754581526020017f288a32405234a5d5808ebdd26216cc3b037c456458cbbc04624245f884cf31ea81526020017f2322b693732bcd38a5bc287595c91124243f6e3bfd2589986c82d998d528608981526020017f12424a6422286c73f44ca4ef472c023ddafa71ca4afff44a188141058980f1d381526020017f12382b745a02b93c31584e102aeb09d8bd471d33d0acec21d6e4478e5ae2ad0581526020017f10a5e23fa88595f036718db0940504de24ff70aa93b3113612525b700c730a7981526020017f21d0da6f54a12fa3590f970017c0cf8314ac5a5f3a31d34ebe504baf5267399381526020017f0c5fdeef3b5064d8fb28bdb67bf4cf82ccdb21ab8cc3f48dbde13e2a779086cb81526020017f07350301a21ba4c6ed6f0b24ddfef0641a270be7271942c4bc5f82078333a4e481526020017f107d51fca8445f86c44d3148589c7e829b9e89d4013b3ea0d8cc076935b2029d81526020017f2d0c96327fa1f2a9ab6afecfb7494c60a3345b76c709452624286ebb6ba3422581526020017f282d020250c192491494dc757314f9b6f046e9a084236f770dd5cea0d8261c7f81526020017f1f1d45d529d2acd871b7dc98a387ffd9c0b172da7a3e6bd4b70cb70e297f4a3781526020017f1c5f400a637a690b95fcbefd0a201ad35963f30da3ed3204be68fe25257194d381526020017f06ec73abe97909b53e2f3b13c04a5ead3c79a5c5fd1bb1028dee3af44e894a7681526020017f173803ec88cb821831bf5b4e95ddb46f048d4f23ffc09216eafb8fb5157dde0b81526020017f2050a6d610fd945c5c1a93058981803b086b545e7f406185c1b547b9a55d752e81526020017f1cfae703a5336d3624c52aa816b6229ff3ea26e9e0b888a05471d2cc2ab832f981526020017e920238b751931d557cf04214484958ef1f31248cb424e0f0fb0ac0dd78d11381526020017f19460b7b47698fcce9a08b0f5c9201993a9aa36e09e4415c9f2269a418ba63f781526020017f0b32bdbd0a569fd886837697c61fc23a3b6b631959dfa787b50271b249cf62ba81526020017f27eb8f3f578d0f86145d16e7464119d75faff0149c8972df63e45e3aa9d9beef81526020017f27f799f1ce2a5ed1e1669bee620eab54a6895f7e06c8742be0b87af49db7122781526020017f195bab2ce40c27c5553815a87d887c5dff3af38b5c45d5dc18f39722dd5f1f8381526020017f1c2cafd5c56f4be8a93e06eec3c5fb723d8bfbb64b536caf13d6ad5873277a8581526020017f01aea92ca3e59ff975a3913e6ceb5205985617b020f8df64611a3b87b17791cb81526020017f0f51d61e0665150867a59afb240b2065427624b17beccb46da3f637262fb3faa81526020017f1f23e3e87c40f7ba850ed06bc775dc9e798d928e14e8e35a2066337f8b85261b81526020017f1b296b0c2ca61a7693fcf69c7b5f7483277c4d1078cd5f19df12f2f494fc991881526020017f11d4f84493b1bd7f9fb3463b1f1211fae055700346a966bdc25dcbf8070c4ded81526020017f03591b124a5100f4ab1d04f1c8d6daacdd598c0a7d1cfc2d891dcdf305018f7281526020017f0286d0964f98554397ed0378ac62009e57ad0ef010d6c9c14a66cbe5973ebb8d81526020017f2915be98166b8684f23bfe4d5db880d3094fc6f5a45c77fc604b17b0be09f71e81526020017f05842457076bb32999bb4f18a38a59d9e738aa1a41364d11be8ae28ea446cb5881526020017f0a09416f7bf18562a68d5273973eb673d032695ae1e20a9db051c74cf72711a881526020017f09fe21bf0de83b7359af8972a1a30534e5e1de75a61f29da1ea3f9128f26a39281526020017f0dd4fe56a197133b53fec74610feb568826781996459722fec0995a70375a3b881526020017f2d289e6c918e44cfd81520cb6578b8083f34709902bee8f67f503f3d602b717f81526020017f2533fe6f024cdca297e6be92aa60db3190e53c1cf836e8167afc6a00eaaecafb81526020017f21571af0f8a43e057e309ce03136a16d160d947d28be4edd398e781bab6263eb81526020017f0467dd0c3d1f4da968d51f662028283f40b9558fd5c649acfbf4f6d33b5a2a5381526020017f207a62a6d7d9cca6a9a4985b5ab35bbcef9e828188edd26151a7a6f989b5ce1181526020017f2be4b2d39d059658c55fa506005e7397cb656406e8310c037ab851fbec892d8c81526020017f150946fadeff878b03d83c015e5c108b115774b0263945922f310ac52b64fc8681526020017f07be02e86e6904c2e6580f9396a029fe2df096b53d891dcf57ebc6fbb993552581526020017f162a19e9d3670993b04862326b2be2f48dee94a4b62df2d08addb3fb99e1c30181526020017f0f6496a3f2609d24c928b2ba93d9dbef2ceb1129131cb1a49199be4c9e13fddc81526020017f02f44ae6eb7ebfb4dcc6a3bee7a60a5a2cf15818c394a9833d41007d7da648c081525060019060816126409291906127eb565b5060405180604001604052807f198e9393920d483a7260bfb731fb5d25f1aa493335a9e71297e485b7aef312c281526020017f21a808dad5c50720fb7294745cf4c87812ce0ea76baa7df4e922615d1388f25a81525060029060026126a6929190612838565b5060405180604001604052807f1800deef121f1e76426a00665e5c4479674322d4f75edadd46debd5cd992f6ed81526020017f04c5e74c85a87f008a2feb4b5c8a1e7f9ba9d8eb40eb02e70139c89fb1c505a9815250600390600261270c929190612838565b5060405180604001604052807f090689d0585ff075ec9e99ad690c3395bc4b313370b38ef355acdadcd122975b81526020017f204b66d8e1fadc307c35187a6b813be0b46ba1cd720cd1c4ee5f68d13036b4ba8152506004906002612772929190612838565b5060405180604001604052807f12c85ea5db8c6deb4aab71808dcb408fe3d1e7690c43d37b4ce6cc0166fa7daa81526020017f2d58022915fc6bc90e036e858fbc98055084ac7aff98ccceb0e3fde64bc1a08481525060059060026127d8929190612838565b503480156127e557600080fd5b506128a2565b828054828255906000526020600020908101928215612827579160200282015b8281111561282657825182559160200191906001019061280b565b5b5090506128349190612885565b5090565b828054828255906000526020600020908101928215612874579160200282015b82811115612873578251825591602001919060010190612858565b5b5090506128819190612885565b5090565b5b8082111561289e576000816000905550600101612886565b5090565b6103d1806128b16000396000f3fe608060405234801561001057600080fd5b50600436106100885760003560e01c80638d5329081161005b5780638d5329081461014d578063a80a0aca1461016b578063dd735c0c1461019b578063e1ccd87a146101cb57610088565b8063082a47701461008d57806371c1441e146100bd5780637cf50768146100ed57806382a124f61461011d575b600080fd5b6100a760048036038101906100a29190610344565b6101e9565b6040516100b49190610380565b60405180910390f35b6100d760048036038101906100d29190610344565b61020d565b6040516100e49190610380565b60405180910390f35b61010760048036038101906101029190610344565b610231565b6040516101149190610380565b60405180910390f35b61013760048036038101906101329190610344565b610255565b6040516101449190610380565b60405180910390f35b610155610279565b6040516101629190610380565b60405180910390f35b61018560048036038101906101809190610344565b61029d565b6040516101929190610380565b60405180910390f35b6101b560048036038101906101b09190610344565b6102c1565b6040516101c29190610380565b60405180910390f35b6101d36102e5565b6040516101e09190610380565b60405180910390f35b600181815481106101f957600080fd5b906000526020600020016000915090505481565b6002818154811061021d57600080fd5b906000526020600020016000915090505481565b6005818154811061024157600080fd5b906000526020600020016000915090505481565b6003818154811061026557600080fd5b906000526020600020016000915090505481565b7f30644e72e131a029b85045b68181585d97816a916871ca8d3c208c16d87cfd4781565b600481815481106102ad57600080fd5b906000526020600020016000915090505481565b600081815481106102d157600080fd5b906000526020600020016000915090505481565b7f30644e72e131a029b85045b68181585d2833e84879b9709143e1f593f000000181565b600080fd5b6000819050919050565b6103218161030e565b811461032c57600080fd5b50565b60008135905061033e81610318565b92915050565b60006020828403121561035a57610359610309565b5b60006103688482850161032f565b91505092915050565b61037a8161030e565b82525050565b60006020820190506103956000830184610371565b9291505056fea264697066735822122011867e802d97d5877671f770dc1f7116c739c4d6688da824f3521488f086586f64736f6c634300081b0033",
  "linkReferences": {},
  "deployedLinkReferences": {}
}