{
  "_format": "hh-sol-artifact-1",
  "contractName": "Verifier",
  "sourceName": "contracts/Verifier.sol",
  "abi": [
    {
      "inputs": [
        {
          "internalType": "address",
          "name": "_constantsContract",
          "type": "address"
        }
      ],
      "stateMutability": "nonpayable",
      "type": "constructor"
    },
    {
      "inputs": [],
      "name": "constantsContract",
      "outputs": [
        {
          "internalType": "contract Constants",
          "name": "",
          "type": "address"
        }
      ],
      "stateMutability": "view",
      "type": "function"
    },
    {
      "inputs": [
        {
          "components": [
            {
              "internalType": "uint256",
              "name": "X",
              "type": "uint256"
            },
            {
              "internalType": "uint256",
              "name": "Y",
              "type": "uint256"
            }
          ],
          "internalType": "struct Pairing.G1Point",
          "name": "_commitment",
          "type": "tuple"
        },
        {
          "components": [
            {
              "internalType": "uint256",
              "name": "X",
              "type": "uint256"
            },
            {
              "internalType": "uint256",
              "name": "Y",
              "type": "uint256"
            }
          ],
          "internalType": "struct Pairing.G1Point",
          "name": "_proof",
          "type": "tuple"
        },
        {
          "internalType": "uint256",
          "name": "_index",
          "type": "uint256"
        },
        {
          "internalType": "uint256",
          "name": "_value",
          "type": "uint256"
        }
      ],
      "name": "verify",
      "outputs": [
        {
          "internalType": "bool",
          "name": "",
          "type": "bool"
        }
      ],
      "stateMutability": "view",
      "type": "function"
    },
    {
      "inputs": [
        {
          "components": [
            {
              "internalType": "uint256",
              "name": "X",
              "type": "uint256"
            },
            {
              "internalType": "uint256",
              "name": "Y",
              "type": "uint256"
            }
          ],
          "internalType": "struct Pairing.G1Point",
          "name": "_commitment",
          "type": "tuple"
        },
        {
          "components": [
            {
              "internalType": "uint256[2]",
              "name": "X",
              "type": "uint256[2]"
            },
            {
              "internalType": "uint256[2]",
              "name": "Y",
              "type": "uint256[2]"
            }
          ],
          "internalType": "struct Pairing.G2Point",
          "name": "_proof",
          "type": "tuple"
        },
        {
          "internalType": "uint256[]",
          "name": "_indices",
          "type": "uint256[]"
        },
        {
          "internalType": "uint256[]",
          "name": "_values",
          "type": "uint256[]"
        },
        {
          "internalType": "uint256[]",
          "name": "_iCoeffs",
          "type": "uint256[]"
        },
        {
          "internalType": "uint256[]",
          "name": "_zCoeffs",
          "type": "uint256[]"
        }
      ],
      "name": "verifyMulti",
      "outputs": [
        {
          "internalType": "bool",
          "name": "",
          "type": "bool"
        }
      ],
      "stateMutability": "view",
      "type": "function"
    }
  ],
  "bytecode": "0x60806040523480156200001157600080fd5b50604051620039213803806200392183398181016040528101906200003791906200089c565b806000806101000a81548173ffffffffffffffffffffffffffffffffffffffff021916908373ffffffffffffffffffffffffffffffffffffffff160217905550604051806040016040528060008054906101000a900473ffffffffffffffffffffffffffffffffffffffff1673ffffffffffffffffffffffffffffffffffffffff1663dd735c0c60006040518263ffffffff1660e01b8152600401620000de919062000925565b602060405180830381865afa158015620000fc573d6000803e3d6000fd5b505050506040513d601f19601f8201168201806040525081019062000122919062000973565b815260200160008054906101000a900473ffffffffffffffffffffffffffffffffffffffff1673ffffffffffffffffffffffffffffffffffffffff1663082a477060006040518263ffffffff1660e01b815260040162000183919062000925565b602060405180830381865afa158015620001a1573d6000803e3d6000fd5b505050506040513d601f19601f82011682018060405250810190620001c7919062000973565b815250600160008201518160000155602082015181600101559050506040518060400160405280604051806040016040528060008054906101000a900473ffffffffffffffffffffffffffffffffffffffff1673ffffffffffffffffffffffffffffffffffffffff166371c1441e60006040518263ffffffff1660e01b815260040162000255919062000925565b602060405180830381865afa15801562000273573d6000803e3d6000fd5b505050506040513d601f19601f8201168201806040525081019062000299919062000973565b815260200160008054906101000a900473ffffffffffffffffffffffffffffffffffffffff1673ffffffffffffffffffffffffffffffffffffffff166382a124f660006040518263ffffffff1660e01b8152600401620002fa919062000925565b602060405180830381865afa15801562000318573d6000803e3d6000fd5b505050506040513d601f19601f820116820180604052508101906200033e919062000973565b8152508152602001604051806040016040528060008054906101000a900473ffffffffffffffffffffffffffffffffffffffff1673ffffffffffffffffffffffffffffffffffffffff1663a80a0aca60006040518263ffffffff1660e01b8152600401620003ad919062000925565b602060405180830381865afa158015620003cb573d6000803e3d6000fd5b505050506040513d601f19601f82011682018060405250810190620003f1919062000973565b815260200160008054906101000a900473ffffffffffffffffffffffffffffffffffffffff1673ffffffffffffffffffffffffffffffffffffffff16637cf5076860006040518263ffffffff1660e01b815260040162000452919062000925565b602060405180830381865afa15801562000470573d6000803e3d6000fd5b505050506040513d601f19601f8201168201806040525081019062000496919062000973565b8152508152506003600082015181600001906002620004b7929190620007ce565b50602082015181600201906002620004d1929190620007ce565b509050506040518060400160405280604051806040016040528060008054906101000a900473ffffffffffffffffffffffffffffffffffffffff1673ffffffffffffffffffffffffffffffffffffffff166371c1441e60016040518263ffffffff1660e01b8152600401620005479190620009e8565b602060405180830381865afa15801562000565573d6000803e3d6000fd5b505050506040513d601f19601f820116820180604052508101906200058b919062000973565b815260200160008054906101000a900473ffffffffffffffffffffffffffffffffffffffff1673ffffffffffffffffffffffffffffffffffffffff166382a124f660016040518263ffffffff1660e01b8152600401620005ec9190620009e8565b602060405180830381865afa1580156200060a573d6000803e3d6000fd5b505050506040513d601f19601f8201168201806040525081019062000630919062000973565b8152508152602001604051806040016040528060008054906101000a900473ffffffffffffffffffffffffffffffffffffffff1673ffffffffffffffffffffffffffffffffffffffff1663a80a0aca60016040518263ffffffff1660e01b81526004016200069f9190620009e8565b602060405180830381865afa158015620006bd573d6000803e3d6000fd5b505050506040513d601f19601f82011682018060405250810190620006e3919062000973565b815260200160008054906101000a900473ffffffffffffffffffffffffffffffffffffffff1673ffffffffffffffffffffffffffffffffffffffff16637cf5076860016040518263ffffffff1660e01b8152600401620007449190620009e8565b602060405180830381865afa15801562000762573d6000803e3d6000fd5b505050506040513d601f19601f8201168201806040525081019062000788919062000973565b8152508152506007600082015181600001906002620007a9929190620007ce565b50602082015181600201906002620007c3929190620007ce565b509050505062000a05565b826002810192821562000800579160200282015b82811115620007ff578251825591602001919060010190620007e2565b5b5090506200080f919062000813565b5090565b5b808211156200082e57600081600090555060010162000814565b5090565b600080fd5b600073ffffffffffffffffffffffffffffffffffffffff82169050919050565b6000620008648262000837565b9050919050565b620008768162000857565b81146200088257600080fd5b50565b60008151905062000896816200086b565b92915050565b600060208284031215620008b557620008b462000832565b5b6000620008c58482850162000885565b91505092915050565b6000819050919050565b6000819050919050565b6000819050919050565b60006200090d620009076200090184620008ce565b620008e2565b620008d8565b9050919050565b6200091f81620008ec565b82525050565b60006020820190506200093c600083018462000914565b92915050565b6200094d81620008d8565b81146200095957600080fd5b50565b6000815190506200096d8162000942565b92915050565b6000602082840312156200098c576200098b62000832565b5b60006200099c848285016200095c565b91505092915050565b6000819050919050565b6000620009d0620009ca620009c484620009a5565b620008e2565b620008d8565b9050919050565b620009e281620009af565b82525050565b6000602082019050620009ff6000830184620009d7565b92915050565b612f0c8062000a156000396000f3fe608060405234801561001057600080fd5b50600436106100415760003560e01c80636e9518f41461004657806387a3b8d914610064578063903ae89014610094575b600080fd5b61004e6100c4565b60405161005b9190611c70565b60405180910390f35b61007e60048036038101906100799190611f84565b6100e8565b60405161008b919061209f565b60405180910390f35b6100ae60048036038101906100a991906120ba565b610c31565b6040516100bb919061209f565b60405180910390f35b60008054906101000a900473ffffffffffffffffffffffffffffffffffffffff1681565b60008060009054906101000a900473ffffffffffffffffffffffffffffffffffffffff1673ffffffffffffffffffffffffffffffffffffffff1663e1ccd87a6040518163ffffffff1660e01b8152600401602060405180830381865afa158015610156573d6000803e3d6000fd5b505050506040513d601f19601f8201168201806040525081019061017a9190612136565b8760000151106101bf576040517f08c379a00000000000000000000000000000000000000000000000000000000081526004016101b6906121e6565b60405180910390fd5b60008054906101000a900473ffffffffffffffffffffffffffffffffffffffff1673ffffffffffffffffffffffffffffffffffffffff1663e1ccd87a6040518163ffffffff1660e01b8152600401602060405180830381865afa15801561022a573d6000803e3d6000fd5b505050506040513d601f19601f8201168201806040525081019061024e9190612136565b876020015110610293576040517f08c379a000000000000000000000000000000000000000000000000000000000815260040161028a90612278565b60405180910390fd5b60008054906101000a900473ffffffffffffffffffffffffffffffffffffffff1673ffffffffffffffffffffffffffffffffffffffff1663e1ccd87a6040518163ffffffff1660e01b8152600401602060405180830381865afa1580156102fe573d6000803e3d6000fd5b505050506040513d601f19601f820116820180604052508101906103229190612136565b866000015160006002811061033a57610339612298565b5b60200201511061037f576040517f08c379a000000000000000000000000000000000000000000000000000000000815260040161037690612339565b60405180910390fd5b60008054906101000a900473ffffffffffffffffffffffffffffffffffffffff1673ffffffffffffffffffffffffffffffffffffffff1663e1ccd87a6040518163ffffffff1660e01b8152600401602060405180830381865afa1580156103ea573d6000803e3d6000fd5b505050506040513d601f19601f8201168201806040525081019061040e9190612136565b866000015160016002811061042657610425612298565b5b60200201511061046b576040517f08c379a0000000000000000000000000000000000000000000000000000000008152600401610462906123cb565b60405180910390fd5b60008054906101000a900473ffffffffffffffffffffffffffffffffffffffff1673ffffffffffffffffffffffffffffffffffffffff1663e1ccd87a6040518163ffffffff1660e01b8152600401602060405180830381865afa1580156104d6573d6000803e3d6000fd5b505050506040513d601f19601f820116820180604052508101906104fa9190612136565b866020015160006002811061051257610511612298565b5b602002015110610557576040517f08c379a000000000000000000000000000000000000000000000000000000000815260040161054e9061245d565b60405180910390fd5b60008054906101000a900473ffffffffffffffffffffffffffffffffffffffff1673ffffffffffffffffffffffffffffffffffffffff1663e1ccd87a6040518163ffffffff1660e01b8152600401602060405180830381865afa1580156105c2573d6000803e3d6000fd5b505050506040513d601f19601f820116820180604052508101906105e69190612136565b86602001516001600281106105fe576105fd612298565b5b602002015110610643576040517f08c379a000000000000000000000000000000000000000000000000000000000815260040161063a906124ef565b60405180910390fd5b60005b835181101561074c5760008054906101000a900473ffffffffffffffffffffffffffffffffffffffff1673ffffffffffffffffffffffffffffffffffffffff1663e1ccd87a6040518163ffffffff1660e01b8152600401602060405180830381865afa1580156106ba573d6000803e3d6000fd5b505050506040513d601f19601f820116820180604052508101906106de9190612136565b8482815181106106f1576106f0612298565b5b602002602001015110610739576040517f08c379a000000000000000000000000000000000000000000000000000000000815260040161073090612581565b60405180910390fd5b8080610744906125d0565b915050610646565b5060005b82518110156108565760008054906101000a900473ffffffffffffffffffffffffffffffffffffffff1673ffffffffffffffffffffffffffffffffffffffff1663e1ccd87a6040518163ffffffff1660e01b8152600401602060405180830381865afa1580156107c4573d6000803e3d6000fd5b505050506040513d601f19601f820116820180604052508101906107e89190612136565b8382815181106107fb576107fa612298565b5b602002602001015110610843576040517f08c379a000000000000000000000000000000000000000000000000000000000815260040161083a9061268a565b60405180910390fd5b808061084e906125d0565b915050610750565b5060005b8551811015610b4757600086828151811061087857610877612298565b5b60200260200101519050600086838151811061089757610896612298565b5b6020026020010151905060008054906101000a900473ffffffffffffffffffffffffffffffffffffffff1673ffffffffffffffffffffffffffffffffffffffff1663e1ccd87a6040518163ffffffff1660e01b8152600401602060405180830381865afa15801561090c573d6000803e3d6000fd5b505050506040513d601f19601f820116820180604052508101906109309190612136565b8210610971576040517f08c379a00000000000000000000000000000000000000000000000000000000081526004016109689061271c565b60405180910390fd5b60008054906101000a900473ffffffffffffffffffffffffffffffffffffffff1673ffffffffffffffffffffffffffffffffffffffff1663e1ccd87a6040518163ffffffff1660e01b8152600401602060405180830381865afa1580156109dc573d6000803e3d6000fd5b505050506040513d601f19601f82011682018060405250810190610a009190612136565b8110610a41576040517f08c379a0000000000000000000000000000000000000000000000000000000008152600401610a38906127ae565b60405180910390fd5b6000610a67868a8681518110610a5a57610a59612298565b5b60200260200101516112cc565b905060008114610aac576040517f08c379a0000000000000000000000000000000000000000000000000000000008152600401610aa390612840565b60405180910390fd5b6000610ad2888b8781518110610ac557610ac4612298565b5b60200260200101516112cc565b9050888581518110610ae757610ae6612298565b5b60200260200101518114610b30576040517f08c379a0000000000000000000000000000000000000000000000000000000008152600401610b27906128d2565b60405180910390fd5b505050508080610b3f906125d0565b91505061085a565b506000610b53836113c2565b90506000610b60856113c2565b90506000610b768a610b7184611583565b611641565b9050610c22610b8484611583565b8a83600360405180604001604052908160008201600280602002604051908101604052809291908260028015610bcf576020028201915b815481526020019060010190808311610bbb575b5050505050815260200160028201600280602002604051908101604052809291908260028015610c14576020028201915b815481526020019060010190808311610c00575b50505050508152505061173f565b93505050509695505050505050565b60008060009054906101000a900473ffffffffffffffffffffffffffffffffffffffff1673ffffffffffffffffffffffffffffffffffffffff1663e1ccd87a6040518163ffffffff1660e01b8152600401602060405180830381865afa158015610c9f573d6000803e3d6000fd5b505050506040513d601f19601f82011682018060405250810190610cc39190612136565b856000015110610d08576040517f08c379a0000000000000000000000000000000000000000000000000000000008152600401610cff90612964565b60405180910390fd5b60008054906101000a900473ffffffffffffffffffffffffffffffffffffffff1673ffffffffffffffffffffffffffffffffffffffff1663e1ccd87a6040518163ffffffff1660e01b8152600401602060405180830381865afa158015610d73573d6000803e3d6000fd5b505050506040513d601f19601f82011682018060405250810190610d979190612136565b856020015110610ddc576040517f08c379a0000000000000000000000000000000000000000000000000000000008152600401610dd3906129f6565b60405180910390fd5b60008054906101000a900473ffffffffffffffffffffffffffffffffffffffff1673ffffffffffffffffffffffffffffffffffffffff1663e1ccd87a6040518163ffffffff1660e01b8152600401602060405180830381865afa158015610e47573d6000803e3d6000fd5b505050506040513d601f19601f82011682018060405250810190610e6b9190612136565b846000015110610eb0576040517f08c379a0000000000000000000000000000000000000000000000000000000008152600401610ea790612a88565b60405180910390fd5b60008054906101000a900473ffffffffffffffffffffffffffffffffffffffff1673ffffffffffffffffffffffffffffffffffffffff1663e1ccd87a6040518163ffffffff1660e01b8152600401602060405180830381865afa158015610f1b573d6000803e3d6000fd5b505050506040513d601f19601f82011682018060405250810190610f3f9190612136565b846020015110610f84576040517f08c379a0000000000000000000000000000000000000000000000000000000008152600401610f7b90612b1a565b60405180910390fd5b60008054906101000a900473ffffffffffffffffffffffffffffffffffffffff1673ffffffffffffffffffffffffffffffffffffffff1663e1ccd87a6040518163ffffffff1660e01b8152600401602060405180830381865afa158015610fef573d6000803e3d6000fd5b505050506040513d601f19601f820116820180604052508101906110139190612136565b8310611054576040517f08c379a000000000000000000000000000000000000000000000000000000000815260040161104b90612bac565b60405180910390fd5b60008054906101000a900473ffffffffffffffffffffffffffffffffffffffff1673ffffffffffffffffffffffffffffffffffffffff1663e1ccd87a6040518163ffffffff1660e01b8152600401602060405180830381865afa1580156110bf573d6000803e3d6000fd5b505050506040513d601f19601f820116820180604052508101906110e39190612136565b8210611124576040517f08c379a000000000000000000000000000000000000000000000000000000000815260040161111b90612c3e565b60405180910390fd5b60006111618661115c61115760016040518060400160405290816000820154815260200160018201548152505087611a99565b611583565b611641565b9050600061116e86611583565b9050600061117c8787611a99565b90506112bf61118b8285611641565b6003604051806040016040529081600082016002806020026040519081016040528092919082600280156111d4576020028201915b8154815260200190600101908083116111c0575b5050505050815260200160028201600280602002604051908101604052809291908260028015611219576020028201915b815481526020019060010190808311611205575b5050505050815250508460076040518060400160405290816000820160028060200260405190810160405280929190826002801561126c576020028201915b815481526020019060010190808311611258575b50505050508152602001600282016002806020026040519081016040528092919082600280156112b1576020028201915b81548152602001906001019080831161129d575b50505050508152505061173f565b9350505050949350505050565b60008060008054906101000a900473ffffffffffffffffffffffffffffffffffffffff1673ffffffffffffffffffffffffffffffffffffffff1663e1ccd87a6040518163ffffffff1660e01b8152600401602060405180830381865afa15801561133a573d6000803e3d6000fd5b505050506040513d601f19601f8201168201806040525081019061135e9190612136565b90506000806001905060005b86518110156113b557600087828151811061138857611387612298565b5b602002602001015190508485828509850893508487840992505080806113ad906125d0565b91505061136a565b5081935050505092915050565b6113ca611b71565b60006040518060400160405280600081526020016000815250905060005b8351811015611579576115648261155f604051806040016040528060008054906101000a900473ffffffffffffffffffffffffffffffffffffffff1673ffffffffffffffffffffffffffffffffffffffff1663dd735c0c876040518263ffffffff1660e01b815260040161145c9190612c6d565b602060405180830381865afa158015611479573d6000803e3d6000fd5b505050506040513d601f19601f8201168201806040525081019061149d9190612136565b815260200160008054906101000a900473ffffffffffffffffffffffffffffffffffffffff1673ffffffffffffffffffffffffffffffffffffffff1663082a4770876040518263ffffffff1660e01b81526004016114fb9190612c6d565b602060405180830381865afa158015611518573d6000803e3d6000fd5b505050506040513d601f19601f8201168201806040525081019061153c9190612136565b81525087858151811061155257611551612298565b5b6020026020010151611a99565b611641565b91508080611571906125d0565b9150506113e8565b5080915050919050565b61158b611b71565b600082600001511480156115a3575060008260200151145b156115c6576040518060400160405280600081526020016000815250905061163c565b6040518060400160405280836000015181526020017f30644e72e131a029b85045b68181585d97816a916871ca8d3c208c16d87cfd47846020015161160b9190612cb7565b7f30644e72e131a029b85045b68181585d97816a916871ca8d3c208c16d87cfd476116369190612ce8565b81525090505b919050565b611649611b71565b611651611b8b565b83600001518160006004811061166a57611669612298565b5b60200201818152505083602001518160016004811061168c5761168b612298565b5b6020020181815250508260000151816002600481106116ae576116ad612298565b5b6020020181815250508260200151816003600481106116d0576116cf612298565b5b602002018181525050600060608360c08460066107d05a03fa905080600081036116f657fe5b5080611737576040517f08c379a000000000000000000000000000000000000000000000000000000000815260040161172e90612d68565b60405180910390fd5b505092915050565b6000806040518060400160405280878152602001858152509050600060405180604001604052808781526020018581525090506000600c905060008167ffffffffffffffff81111561179457611793611cb5565b5b6040519080825280602002602001820160405280156117c25781602001602082028036833780820191505090505b50905060005b6002811015611a005760006006826117e09190612d88565b90508582600281106117f5576117f4612298565b5b6020020151600001518360008361180c9190612dca565b8151811061181d5761181c612298565b5b60200260200101818152505085826002811061183c5761183b612298565b5b602002015160200151836001836118539190612dca565b8151811061186457611863612298565b5b60200260200101818152505084826002811061188357611882612298565b5b60200201516000015160006002811061189f5761189e612298565b5b6020020151836002836118b29190612dca565b815181106118c3576118c2612298565b5b6020026020010181815250508482600281106118e2576118e1612298565b5b6020020151600001516001600281106118fe576118fd612298565b5b6020020151836003836119119190612dca565b8151811061192257611921612298565b5b60200260200101818152505084826002811061194157611940612298565b5b60200201516020015160006002811061195d5761195c612298565b5b6020020151836004836119709190612dca565b8151811061198157611980612298565b5b6020026020010181815250508482600281106119a05761199f612298565b5b6020020151602001516001600281106119bc576119bb612298565b5b6020020151836005836119cf9190612dca565b815181106119e0576119df612298565b5b6020026020010181815250505080806119f8906125d0565b9150506117c8565b50611a09611bad565b6000602082602086026020860160086107d05a03fa90508060008103611a2b57fe5b5080611a6c576040517f08c379a0000000000000000000000000000000000000000000000000000000008152600401611a6390612e4a565b60405180910390fd5b600082600060018110611a8257611a81612298565b5b602002015114159650505050505050949350505050565b611aa1611b71565b611aa9611bcf565b836000015181600060038110611ac257611ac1612298565b5b602002018181525050836020015181600160038110611ae457611ae3612298565b5b6020020181815250508281600260038110611b0257611b01612298565b5b602002018181525050600060608360808460076107d05a03fa90508060008103611b2857fe5b5080611b69576040517f08c379a0000000000000000000000000000000000000000000000000000000008152600401611b6090612eb6565b60405180910390fd5b505092915050565b604051806040016040528060008152602001600081525090565b6040518060800160405280600490602082028036833780820191505090505090565b6040518060200160405280600190602082028036833780820191505090505090565b6040518060600160405280600390602082028036833780820191505090505090565b600073ffffffffffffffffffffffffffffffffffffffff82169050919050565b6000819050919050565b6000611c36611c31611c2c84611bf1565b611c11565b611bf1565b9050919050565b6000611c4882611c1b565b9050919050565b6000611c5a82611c3d565b9050919050565b611c6a81611c4f565b82525050565b6000602082019050611c856000830184611c61565b92915050565b6000604051905090565b600080fd5b600080fd5b600080fd5b6000601f19601f8301169050919050565b7f4e487b7100000000000000000000000000000000000000000000000000000000600052604160045260246000fd5b611ced82611ca4565b810181811067ffffffffffffffff82111715611d0c57611d0b611cb5565b5b80604052505050565b6000611d1f611c8b565b9050611d2b8282611ce4565b919050565b6000819050919050565b611d4381611d30565b8114611d4e57600080fd5b50565b600081359050611d6081611d3a565b92915050565b600060408284031215611d7c57611d7b611c9f565b5b611d866040611d15565b90506000611d9684828501611d51565b6000830152506020611daa84828501611d51565b60208301525092915050565b600080fd5b600067ffffffffffffffff821115611dd657611dd5611cb5565b5b602082029050919050565b600080fd5b6000611df9611df484611dbb565b611d15565b90508060208402830185811115611e1357611e12611de1565b5b835b81811015611e3c5780611e288882611d51565b845260208401935050602081019050611e15565b5050509392505050565b600082601f830112611e5b57611e5a611db6565b5b6002611e68848285611de6565b91505092915050565b600060808284031215611e8757611e86611c9f565b5b611e916040611d15565b90506000611ea184828501611e46565b6000830152506040611eb584828501611e46565b60208301525092915050565b600067ffffffffffffffff821115611edc57611edb611cb5565b5b602082029050602081019050919050565b6000611f00611efb84611ec1565b611d15565b90508083825260208201905060208402830185811115611f2357611f22611de1565b5b835b81811015611f4c5780611f388882611d51565b845260208401935050602081019050611f25565b5050509392505050565b600082601f830112611f6b57611f6a611db6565b5b8135611f7b848260208601611eed565b91505092915050565b6000806000806000806101408789031215611fa257611fa1611c95565b5b6000611fb089828a01611d66565b9650506040611fc189828a01611e71565b95505060c087013567ffffffffffffffff811115611fe257611fe1611c9a565b5b611fee89828a01611f56565b94505060e087013567ffffffffffffffff81111561200f5761200e611c9a565b5b61201b89828a01611f56565b93505061010087013567ffffffffffffffff81111561203d5761203c611c9a565b5b61204989828a01611f56565b92505061012087013567ffffffffffffffff81111561206b5761206a611c9a565b5b61207789828a01611f56565b9150509295509295509295565b60008115159050919050565b61209981612084565b82525050565b60006020820190506120b46000830184612090565b92915050565b60008060008060c085870312156120d4576120d3611c95565b5b60006120e287828801611d66565b94505060406120f387828801611d66565b935050608061210487828801611d51565b92505060a061211587828801611d51565b91505092959194509250565b60008151905061213081611d3a565b92915050565b60006020828403121561214c5761214b611c95565b5b600061215a84828501612121565b91505092915050565b600082825260208201905092915050565b7f56657269666965722e7665726966794d756c74694b5a473a205f636f6d6d697460008201527f6d656e742e58206973206f7574206f662072616e676500000000000000000000602082015250565b60006121d0603683612163565b91506121db82612174565b604082019050919050565b600060208201905081810360008301526121ff816121c3565b9050919050565b7f56657269666965722e7665726966794d756c74694b5a473a205f636f6d6d697460008201527f6d656e742e59206973206f7574206f662072616e676500000000000000000000602082015250565b6000612262603683612163565b915061226d82612206565b604082019050919050565b6000602082019050818103600083015261229181612255565b9050919050565b7f4e487b7100000000000000000000000000000000000000000000000000000000600052603260045260246000fd5b7f56657269666965722e7665726966794b5a473a205f70726f6f662e585b305d2060008201527f6973206f7574206f662072616e67650000000000000000000000000000000000602082015250565b6000612323602f83612163565b915061232e826122c7565b604082019050919050565b6000602082019050818103600083015261235281612316565b9050919050565b7f56657269666965722e7665726966794b5a473a205f70726f6f662e585b315d2060008201527f6973206f7574206f662072616e67650000000000000000000000000000000000602082015250565b60006123b5602f83612163565b91506123c082612359565b604082019050919050565b600060208201905081810360008301526123e4816123a8565b9050919050565b7f56657269666965722e7665726966794b5a473a205f70726f6f662e595b305d2060008201527f6973206f7574206f662072616e67650000000000000000000000000000000000602082015250565b6000612447602f83612163565b9150612452826123eb565b604082019050919050565b600060208201905081810360008301526124768161243a565b9050919050565b7f56657269666965722e7665726966794b5a473a205f70726f6f662e595b315d2060008201527f6973206f7574206f662072616e67650000000000000000000000000000000000602082015250565b60006124d9602f83612163565b91506124e48261247d565b604082019050919050565b60006020820190508181036000830152612508816124cc565b9050919050565b7f56657269666965722e7665726966794b5a473a20616e205f69436f656666732060008201527f76616c7565206973206f7574206f662072616e67650000000000000000000000602082015250565b600061256b603583612163565b91506125768261250f565b604082019050919050565b6000602082019050818103600083015261259a8161255e565b9050919050565b7f4e487b7100000000000000000000000000000000000000000000000000000000600052601160045260246000fd5b60006125db82611d30565b91507fffffffffffffffffffffffffffffffffffffffffffffffffffffffffffffffff820361260d5761260c6125a1565b5b600182019050919050565b7f56657269666965722e7665726966794b5a473a20616e205f7a436f656666732060008201527f76616c7565206973206f7574206f662072616e67650000000000000000000000602082015250565b6000612674603583612163565b915061267f82612618565b604082019050919050565b600060208201905081810360008301526126a381612667565b9050919050565b7f56657269666965722e7665726966794b5a473a20616e20696e6465782069732060008201527f6f7574206f662072616e67650000000000000000000000000000000000000000602082015250565b6000612706602c83612163565b9150612711826126aa565b604082019050919050565b60006020820190508181036000830152612735816126f9565b9050919050565b7f56657269666965722e7665726966794b5a473a20612076616c7565206973206f60008201527f7574206f662072616e6765000000000000000000000000000000000000000000602082015250565b6000612798602b83612163565b91506127a38261273c565b604082019050919050565b600060208201905081810360008301526127c78161278b565b9050919050565b7f56657269666965722e7665726966794d756c74693a20696e76616c6964205f7a60008201527f436f656666730000000000000000000000000000000000000000000000000000602082015250565b600061282a602683612163565b9150612835826127ce565b604082019050919050565b600060208201905081810360008301526128598161281d565b9050919050565b7f56657269666965722e7665726966794d756c74693a20696e76616c6964205f6960008201527f436f656666730000000000000000000000000000000000000000000000000000602082015250565b60006128bc602683612163565b91506128c782612860565b604082019050919050565b600060208201905081810360008301526128eb816128af565b9050919050565b7f56657269666965722e7665726966794b5a473a205f636f6d6d69746d656e742e60008201527f58206973206f7574206f662072616e6765000000000000000000000000000000602082015250565b600061294e603183612163565b9150612959826128f2565b604082019050919050565b6000602082019050818103600083015261297d81612941565b9050919050565b7f56657269666965722e7665726966794b5a473a205f636f6d6d69746d656e742e60008201527f59206973206f7574206f662072616e6765000000000000000000000000000000602082015250565b60006129e0603183612163565b91506129eb82612984565b604082019050919050565b60006020820190508181036000830152612a0f816129d3565b9050919050565b7f56657269666965722e7665726966794b5a473a205f70726f6f662e582069732060008201527f6f7574206f662072616e67650000000000000000000000000000000000000000602082015250565b6000612a72602c83612163565b9150612a7d82612a16565b604082019050919050565b60006020820190508181036000830152612aa181612a65565b9050919050565b7f56657269666965722e7665726966794b5a473a205f70726f6f662e592069732060008201527f6f7574206f662072616e67650000000000000000000000000000000000000000602082015250565b6000612b04602c83612163565b9150612b0f82612aa8565b604082019050919050565b60006020820190508181036000830152612b3381612af7565b9050919050565b7f56657269666965722e7665726966794b5a473a205f696e646578206973206f7560008201527f74206f662072616e676500000000000000000000000000000000000000000000602082015250565b6000612b96602a83612163565b9150612ba182612b3a565b604082019050919050565b60006020820190508181036000830152612bc581612b89565b9050919050565b7f56657269666965722e7665726966794b5a473a205f76616c7565206973206f7560008201527f74206f662072616e676500000000000000000000000000000000000000000000602082015250565b6000612c28602a83612163565b9150612c3382612bcc565b604082019050919050565b60006020820190508181036000830152612c5781612c1b565b9050919050565b612c6781611d30565b82525050565b6000602082019050612c826000830184612c5e565b92915050565b7f4e487b7100000000000000000000000000000000000000000000000000000000600052601260045260246000fd5b6000612cc282611d30565b9150612ccd83611d30565b925082612cdd57612cdc612c88565b5b828206905092915050565b6000612cf382611d30565b9150612cfe83611d30565b9250828203905081811115612d1657612d156125a1565b5b92915050565b7f70616972696e672d6164642d6661696c65640000000000000000000000000000600082015250565b6000612d52601283612163565b9150612d5d82612d1c565b602082019050919050565b60006020820190508181036000830152612d8181612d45565b9050919050565b6000612d9382611d30565b9150612d9e83611d30565b9250828202612dac81611d30565b91508282048414831517612dc357612dc26125a1565b5b5092915050565b6000612dd582611d30565b9150612de083611d30565b9250828201905080821115612df857612df76125a1565b5b92915050565b7f70616972696e672d6f70636f64652d6661696c65640000000000000000000000600082015250565b6000612e34601583612163565b9150612e3f82612dfe565b602082019050919050565b60006020820190508181036000830152612e6381612e27565b9050919050565b7f70616972696e672d6d756c2d6661696c65640000000000000000000000000000600082015250565b6000612ea0601283612163565b9150612eab82612e6a565b602082019050919050565b60006020820190508181036000830152612ecf81612e93565b905091905056fea2646970667358221220ee83dc64ab4ae04b9b31590715049a192370220d687592be43f6a0b3d3ad691f64736f6c63430008140033",
  "linkReferences": {},
  "deployedLinkReferences": {}
}