{
  "_format": "hh-sol-artifact-1",
  "contractName": "Verifier",
  "sourceName": "contracts/Verifier.sol",
  "abi": [
    {
      "inputs": [
        {
          "internalType": "address",
          "name": "_constantsContract",
          "type": "address"
        }
      ],
      "stateMutability": "nonpayable",
      "type": "constructor"
    },
    {
      "inputs": [],
      "name": "SRS_G1_0",
      "outputs": [
        {
          "internalType": "uint256",
          "name": "X",
          "type": "uint256"
        },
        {
          "internalType": "uint256",
          "name": "Y",
          "type": "uint256"
        }
      ],
      "stateMutability": "view",
      "type": "function"
    },
    {
      "inputs": [],
      "name": "constantsContract",
      "outputs": [
        {
          "internalType": "contract Constants",
          "name": "",
          "type": "address"
        }
      ],
      "stateMutability": "view",
      "type": "function"
    },
    {
      "inputs": [
        {
          "components": [
            {
              "internalType": "uint256",
              "name": "X",
              "type": "uint256"
            },
            {
              "internalType": "uint256",
              "name": "Y",
              "type": "uint256"
            }
          ],
          "internalType": "struct Pairing.G1Point",
          "name": "_commitment",
          "type": "tuple"
        },
        {
          "components": [
            {
              "internalType": "uint256",
              "name": "X",
              "type": "uint256"
            },
            {
              "internalType": "uint256",
              "name": "Y",
              "type": "uint256"
            }
          ],
          "internalType": "struct Pairing.G1Point",
          "name": "_proof",
          "type": "tuple"
        },
        {
          "internalType": "uint256",
          "name": "_index",
          "type": "uint256"
        },
        {
          "internalType": "uint256",
          "name": "_value",
          "type": "uint256"
        }
      ],
      "name": "verify",
      "outputs": [
        {
          "internalType": "bool",
          "name": "",
          "type": "bool"
        }
      ],
      "stateMutability": "view",
      "type": "function"
    },
    {
      "inputs": [
        {
          "components": [
            {
              "internalType": "uint256",
              "name": "X",
              "type": "uint256"
            },
            {
              "internalType": "uint256",
              "name": "Y",
              "type": "uint256"
            }
          ],
          "internalType": "struct Pairing.G1Point",
          "name": "_commitment",
          "type": "tuple"
        },
        {
          "components": [
            {
              "internalType": "uint256[2]",
              "name": "X",
              "type": "uint256[2]"
            },
            {
              "internalType": "uint256[2]",
              "name": "Y",
              "type": "uint256[2]"
            }
          ],
          "internalType": "struct Pairing.G2Point",
          "name": "_proof",
          "type": "tuple"
        },
        {
          "internalType": "uint256[]",
          "name": "_indices",
          "type": "uint256[]"
        },
        {
          "internalType": "uint256[]",
          "name": "_values",
          "type": "uint256[]"
        },
        {
          "internalType": "uint256[]",
          "name": "_iCoeffs",
          "type": "uint256[]"
        },
        {
          "internalType": "uint256[]",
          "name": "_zCoeffs",
          "type": "uint256[]"
        }
      ],
      "name": "verifyMulti",
      "outputs": [
        {
          "internalType": "bool",
          "name": "",
          "type": "bool"
        }
      ],
      "stateMutability": "view",
      "type": "function"
    }
  ],
  "bytecode": "0x608060405234801561001057600080fd5b506040516127d63803806127d68339818101604052810190610032919061084e565b806000806101000a81548173ffffffffffffffffffffffffffffffffffffffff021916908373ffffffffffffffffffffffffffffffffffffffff160217905550604051806040016040528060008054906101000a900473ffffffffffffffffffffffffffffffffffffffff1673ffffffffffffffffffffffffffffffffffffffff1663dd735c0c60006040518263ffffffff1660e01b81526004016100d791906108ca565b602060405180830381865afa1580156100f4573d6000803e3d6000fd5b505050506040513d601f19601f820116820180604052508101906101189190610911565b815260200160008054906101000a900473ffffffffffffffffffffffffffffffffffffffff1673ffffffffffffffffffffffffffffffffffffffff1663082a477060006040518263ffffffff1660e01b815260040161017791906108ca565b602060405180830381865afa158015610194573d6000803e3d6000fd5b505050506040513d601f19601f820116820180604052508101906101b89190610911565b815250600160008201518160000155602082015181600101559050506040518060400160405280604051806040016040528060008054906101000a900473ffffffffffffffffffffffffffffffffffffffff1673ffffffffffffffffffffffffffffffffffffffff166371c1441e60006040518263ffffffff1660e01b815260040161024491906108ca565b602060405180830381865afa158015610261573d6000803e3d6000fd5b505050506040513d601f19601f820116820180604052508101906102859190610911565b815260200160008054906101000a900473ffffffffffffffffffffffffffffffffffffffff1673ffffffffffffffffffffffffffffffffffffffff166382a124f660006040518263ffffffff1660e01b81526004016102e491906108ca565b602060405180830381865afa158015610301573d6000803e3d6000fd5b505050506040513d601f19601f820116820180604052508101906103259190610911565b8152508152602001604051806040016040528060008054906101000a900473ffffffffffffffffffffffffffffffffffffffff1673ffffffffffffffffffffffffffffffffffffffff1663a80a0aca60006040518263ffffffff1660e01b815260040161039291906108ca565b602060405180830381865afa1580156103af573d6000803e3d6000fd5b505050506040513d601f19601f820116820180604052508101906103d39190610911565b815260200160008054906101000a900473ffffffffffffffffffffffffffffffffffffffff1673ffffffffffffffffffffffffffffffffffffffff16637cf5076860006040518263ffffffff1660e01b815260040161043291906108ca565b602060405180830381865afa15801561044f573d6000803e3d6000fd5b505050506040513d601f19601f820116820180604052508101906104739190610911565b815250815250600360008201518160000190600261049292919061078e565b506020820151816002019060026104aa92919061078e565b509050506040518060400160405280604051806040016040528060008054906101000a900473ffffffffffffffffffffffffffffffffffffffff1673ffffffffffffffffffffffffffffffffffffffff166371c1441e60016040518263ffffffff1660e01b815260040161051e9190610979565b602060405180830381865afa15801561053b573d6000803e3d6000fd5b505050506040513d601f19601f8201168201806040525081019061055f9190610911565b815260200160008054906101000a900473ffffffffffffffffffffffffffffffffffffffff1673ffffffffffffffffffffffffffffffffffffffff166382a124f660016040518263ffffffff1660e01b81526004016105be9190610979565b602060405180830381865afa1580156105db573d6000803e3d6000fd5b505050506040513d601f19601f820116820180604052508101906105ff9190610911565b8152508152602001604051806040016040528060008054906101000a900473ffffffffffffffffffffffffffffffffffffffff1673ffffffffffffffffffffffffffffffffffffffff1663a80a0aca60016040518263ffffffff1660e01b815260040161066c9190610979565b602060405180830381865afa158015610689573d6000803e3d6000fd5b505050506040513d601f19601f820116820180604052508101906106ad9190610911565b815260200160008054906101000a900473ffffffffffffffffffffffffffffffffffffffff1673ffffffffffffffffffffffffffffffffffffffff16637cf5076860016040518263ffffffff1660e01b815260040161070c9190610979565b602060405180830381865afa158015610729573d6000803e3d6000fd5b505050506040513d601f19601f8201168201806040525081019061074d9190610911565b815250815250600760008201518160000190600261076c92919061078e565b5060208201518160020190600261078492919061078e565b5090505050610994565b82600281019282156107bd579160200282015b828111156107bc5782518255916020019190600101906107a1565b5b5090506107ca91906107ce565b5090565b5b808211156107e75760008160009055506001016107cf565b5090565b600080fd5b600073ffffffffffffffffffffffffffffffffffffffff82169050919050565b600061081b826107f0565b9050919050565b61082b81610810565b811461083657600080fd5b50565b60008151905061084881610822565b92915050565b600060208284031215610864576108636107eb565b5b600061087284828501610839565b91505092915050565b6000819050919050565b6000819050919050565b6000819050919050565b60006108b46108af6108aa8461087b565b61088f565b610885565b9050919050565b6108c481610899565b82525050565b60006020820190506108df60008301846108bb565b92915050565b6108ee81610885565b81146108f957600080fd5b50565b60008151905061090b816108e5565b92915050565b600060208284031215610927576109266107eb565b5b6000610935848285016108fc565b91505092915050565b6000819050919050565b600061096361095e6109598461093e565b61088f565b610885565b9050919050565b61097381610948565b82525050565b600060208201905061098e600083018461096a565b92915050565b611e33806109a36000396000f3fe608060405234801561001057600080fd5b506004361061004c5760003560e01c80636e9518f4146100515780637f25c2be1461006f57806387a3b8d91461008e578063903ae890146100be575b600080fd5b6100596100ee565b604051610066919061124e565b60405180910390f35b610077610112565b604051610085929190611282565b60405180910390f35b6100a860048036038101906100a3919061159a565b610124565b6040516100b591906116b5565b60405180910390f35b6100d860048036038101906100d391906116d0565b610667565b6040516100e591906116b5565b60405180910390f35b60008054906101000a900473ffffffffffffffffffffffffffffffffffffffff1681565b60018060000154908060010154905082565b60008060008054906101000a900473ffffffffffffffffffffffffffffffffffffffff1673ffffffffffffffffffffffffffffffffffffffff1663e1ccd87a6040518163ffffffff1660e01b8152600401602060405180830381865afa158015610192573d6000803e3d6000fd5b505050506040513d601f19601f820116820180604052508101906101b6919061174c565b90508088600001511080156101ce5750808860200151105b61020d576040517f08c379a0000000000000000000000000000000000000000000000000000000008152600401610204906117fc565b60405180910390fd5b8087600001516000600281106102265761022561181c565b5b6020020151108015610253575080876000015160016002811061024c5761024b61181c565b5b6020020151105b801561027a57508087602001516000600281106102735761027261181c565b5b6020020151105b80156102a1575080876020015160016002811061029a5761029961181c565b5b6020020151105b6102e0576040517f08c379a00000000000000000000000000000000000000000000000000000000081526004016102d790611897565b60405180910390fd5b60005b84518110156103535781858281518110610300576102ff61181c565b5b602002602001015110610348576040517f08c379a000000000000000000000000000000000000000000000000000000000815260040161033f90611903565b60405180910390fd5b8060010190506102e3565b5060005b83518110156103c757818482815181106103745761037361181c565b5b6020026020010151106103bc576040517f08c379a00000000000000000000000000000000000000000000000000000000081526004016103b39061196f565b60405180910390fd5b806001019050610357565b5060005b865181101561057c57818782815181106103e8576103e761181c565b5b602002602001015110610430576040517f08c379a0000000000000000000000000000000000000000000000000000000008152600401610427906119db565b60405180910390fd5b818682815181106104445761044361181c565b5b60200260200101511061048c576040517f08c379a000000000000000000000000000000000000000000000000000000000815260040161048390611a47565b60405180910390fd5b60006104b2858984815181106104a5576104a461181c565b5b60200260200101516109d2565b146104f2576040517f08c379a00000000000000000000000000000000000000000000000000000000081526004016104e990611ab3565b60405180910390fd5b8581815181106105055761050461181c565b5b6020026020010151610531868984815181106105245761052361181c565b5b60200260200101516109d2565b14610571576040517f08c379a000000000000000000000000000000000000000000000000000000000815260040161056890611b1f565b60405180910390fd5b8060010190506103cb565b50600061058884610ac6565b9050600061059586610ac6565b905060006105ab8b6105a684610c85565b610d43565b90506106576105b984610c85565b8b83600360405180604001604052908160008201600280602002604051908101604052809291908260028015610604576020028201915b8154815260200190600101908083116105f0575b5050505050815260200160028201600280602002604051908101604052809291908260028015610649576020028201915b815481526020019060010190808311610635575b505050505081525050610dd6565b9450505050509695505050505050565b60008060008054906101000a900473ffffffffffffffffffffffffffffffffffffffff1673ffffffffffffffffffffffffffffffffffffffff1663e1ccd87a6040518163ffffffff1660e01b8152600401602060405180830381865afa1580156106d5573d6000803e3d6000fd5b505050506040513d601f19601f820116820180604052508101906106f9919061174c565b90508086600001511080156107115750808660200151105b610750576040517f08c379a0000000000000000000000000000000000000000000000000000000008152600401610747906117fc565b60405180910390fd5b8085600001511080156107665750808560200151105b6107a5576040517f08c379a000000000000000000000000000000000000000000000000000000000815260040161079c90611897565b60405180910390fd5b8084106107e7576040517f08c379a00000000000000000000000000000000000000000000000000000000081526004016107de906119db565b60405180910390fd5b808310610829576040517f08c379a000000000000000000000000000000000000000000000000000000000815260040161082090611a47565b60405180910390fd5b60006108668761086161085c6001604051806040016040529081600082015481526020016001820154815250508861110e565b610c85565b610d43565b9050600061087387610c85565b90506000610881888861110e565b90506109c46108908285610d43565b6003604051806040016040529081600082016002806020026040519081016040528092919082600280156108d9576020028201915b8154815260200190600101908083116108c5575b505050505081526020016002820160028060200260405190810160405280929190826002801561091e576020028201915b81548152602001906001019080831161090a575b50505050508152505084600760405180604001604052908160008201600280602002604051908101604052809291908260028015610971576020028201915b81548152602001906001019080831161095d575b50505050508152602001600282016002806020026040519081016040528092919082600280156109b6576020028201915b8154815260200190600101908083116109a2575b505050505081525050610dd6565b945050505050949350505050565b6000806000905060006001905060008060009054906101000a900473ffffffffffffffffffffffffffffffffffffffff1673ffffffffffffffffffffffffffffffffffffffff1663e1ccd87a6040518163ffffffff1660e01b8152600401602060405180830381865afa158015610a4d573d6000803e3d6000fd5b505050506040513d601f19601f82011682018060405250810190610a71919061174c565b905060005b8651811015610ab9576000878281518110610a9457610a9361181c565b5b6020026020010151905082838286098608945082878509935050806001019050610a76565b5082935050505092915050565b610ace611193565b60006040518060400160405280600081526020016000815250905060008351905060005b81811015610c7a57610c6d83610c68604051806040016040528060008054906101000a900473ffffffffffffffffffffffffffffffffffffffff1673ffffffffffffffffffffffffffffffffffffffff1663dd735c0c876040518263ffffffff1660e01b8152600401610b659190611b3f565b602060405180830381865afa158015610b82573d6000803e3d6000fd5b505050506040513d601f19601f82011682018060405250810190610ba6919061174c565b815260200160008054906101000a900473ffffffffffffffffffffffffffffffffffffffff1673ffffffffffffffffffffffffffffffffffffffff1663082a4770876040518263ffffffff1660e01b8152600401610c049190611b3f565b602060405180830381865afa158015610c21573d6000803e3d6000fd5b505050506040513d601f19601f82011682018060405250810190610c45919061174c565b815250888581518110610c5b57610c5a61181c565b5b602002602001015161110e565b610d43565b9250806001019050610af2565b508192505050919050565b610c8d611193565b60008260000151148015610ca5575060008260200151145b15610cc85760405180604001604052806000815260200160008152509050610d3e565b6040518060400160405280836000015181526020017f30644e72e131a029b85045b68181585d97816a916871ca8d3c208c16d87cfd478460200151610d0d9190611b89565b7f30644e72e131a029b85045b68181585d97816a916871ca8d3c208c16d87cfd47610d389190611be9565b81525090505b919050565b610d4b611193565b6000604051806080016040528085600001518152602001856020015181526020018460000151815260200184602001518152509050600060608360c08460065afa905080610dce576040517f08c379a0000000000000000000000000000000000000000000000000000000008152600401610dc590611c69565b60405180910390fd5b505092915050565b6000806040518060400160405280878152602001858152509050600060405180604001604052808781526020018581525090506000600c905060008167ffffffffffffffff811115610e2b57610e2a6112d5565b5b604051908082528060200260200182016040528015610e595781602001602082028036833780820191505090505b50905060005b6002811015611085576000600682610e779190611c89565b9050858260028110610e8c57610e8b61181c565b5b602002015160000151838281518110610ea857610ea761181c565b5b602002602001018181525050858260028110610ec757610ec661181c565b5b60200201516020015183600183610ede9190611ccb565b81518110610eef57610eee61181c565b5b602002602001018181525050848260028110610f0e57610f0d61181c565b5b602002015160000151600060028110610f2a57610f2961181c565b5b602002015183600283610f3d9190611ccb565b81518110610f4e57610f4d61181c565b5b602002602001018181525050848260028110610f6d57610f6c61181c565b5b602002015160000151600160028110610f8957610f8861181c565b5b602002015183600383610f9c9190611ccb565b81518110610fad57610fac61181c565b5b602002602001018181525050848260028110610fcc57610fcb61181c565b5b602002015160200151600060028110610fe857610fe761181c565b5b602002015183600483610ffb9190611ccb565b8151811061100c5761100b61181c565b5b60200260200101818152505084826002811061102b5761102a61181c565b5b6020020151602001516001600281106110475761104661181c565b5b60200201518360058361105a9190611ccb565b8151811061106b5761106a61181c565b5b602002602001018181525050508080600101915050610e5f565b5061108e6111ad565b6000602082602086026020860160085afa9050806110e1576040517f08c379a00000000000000000000000000000000000000000000000000000000081526004016110d890611d4b565b60405180910390fd5b6000826000600181106110f7576110f661181c565b5b602002015114159650505050505050949350505050565b611116611193565b600060405180606001604052808560000151815260200185602001518152602001848152509050600060608360808460075afa90508061118b576040517f08c379a000000000000000000000000000000000000000000000000000000000815260040161118290611ddd565b60405180910390fd5b505092915050565b604051806040016040528060008152602001600081525090565b6040518060200160405280600190602082028036833780820191505090505090565b600073ffffffffffffffffffffffffffffffffffffffff82169050919050565b6000819050919050565b600061121461120f61120a846111cf565b6111ef565b6111cf565b9050919050565b6000611226826111f9565b9050919050565b60006112388261121b565b9050919050565b6112488161122d565b82525050565b6000602082019050611263600083018461123f565b92915050565b6000819050919050565b61127c81611269565b82525050565b60006040820190506112976000830185611273565b6112a46020830184611273565b9392505050565b6000604051905090565b600080fd5b600080fd5b600080fd5b6000601f19601f8301169050919050565b7f4e487b7100000000000000000000000000000000000000000000000000000000600052604160045260246000fd5b61130d826112c4565b810181811067ffffffffffffffff8211171561132c5761132b6112d5565b5b80604052505050565b600061133f6112ab565b905061134b8282611304565b919050565b61135981611269565b811461136457600080fd5b50565b60008135905061137681611350565b92915050565b600060408284031215611392576113916112bf565b5b61139c6040611335565b905060006113ac84828501611367565b60008301525060206113c084828501611367565b60208301525092915050565b600080fd5b600067ffffffffffffffff8211156113ec576113eb6112d5565b5b602082029050919050565b600080fd5b600061140f61140a846113d1565b611335565b90508060208402830185811115611429576114286113f7565b5b835b81811015611452578061143e8882611367565b84526020840193505060208101905061142b565b5050509392505050565b600082601f830112611471576114706113cc565b5b600261147e8482856113fc565b91505092915050565b60006080828403121561149d5761149c6112bf565b5b6114a76040611335565b905060006114b78482850161145c565b60008301525060406114cb8482850161145c565b60208301525092915050565b600067ffffffffffffffff8211156114f2576114f16112d5565b5b602082029050602081019050919050565b6000611516611511846114d7565b611335565b90508083825260208201905060208402830185811115611539576115386113f7565b5b835b81811015611562578061154e8882611367565b84526020840193505060208101905061153b565b5050509392505050565b600082601f830112611581576115806113cc565b5b8135611591848260208601611503565b91505092915050565b60008060008060008061014087890312156115b8576115b76112b5565b5b60006115c689828a0161137c565b96505060406115d789828a01611487565b95505060c087013567ffffffffffffffff8111156115f8576115f76112ba565b5b61160489828a0161156c565b94505060e087013567ffffffffffffffff811115611625576116246112ba565b5b61163189828a0161156c565b93505061010087013567ffffffffffffffff811115611653576116526112ba565b5b61165f89828a0161156c565b92505061012087013567ffffffffffffffff811115611681576116806112ba565b5b61168d89828a0161156c565b9150509295509295509295565b60008115159050919050565b6116af8161169a565b82525050565b60006020820190506116ca60008301846116a6565b92915050565b60008060008060c085870312156116ea576116e96112b5565b5b60006116f88782880161137c565b94505060406117098782880161137c565b935050608061171a87828801611367565b92505060a061172b87828801611367565b91505092959194509250565b60008151905061174681611350565b92915050565b600060208284031215611762576117616112b5565b5b600061177084828501611737565b91505092915050565b600082825260208201905092915050565b7f56657269666965723a20436f6d6d69746d656e74206f7574206f662072616e6760008201527f6500000000000000000000000000000000000000000000000000000000000000602082015250565b60006117e6602183611779565b91506117f18261178a565b604082019050919050565b60006020820190508181036000830152611815816117d9565b9050919050565b7f4e487b7100000000000000000000000000000000000000000000000000000000600052603260045260246000fd5b7f56657269666965723a2050726f6f66206f7574206f662072616e676500000000600082015250565b6000611881601c83611779565b915061188c8261184b565b602082019050919050565b600060208201905081810360008301526118b081611874565b9050919050565b7f56657269666965723a2069436f65666673206f7574206f662072616e67650000600082015250565b60006118ed601e83611779565b91506118f8826118b7565b602082019050919050565b6000602082019050818103600083015261191c816118e0565b9050919050565b7f56657269666965723a207a436f65666673206f7574206f662072616e67650000600082015250565b6000611959601e83611779565b915061196482611923565b602082019050919050565b600060208201905081810360008301526119888161194c565b9050919050565b7f56657269666965723a20496e646578206f7574206f662072616e676500000000600082015250565b60006119c5601c83611779565b91506119d08261198f565b602082019050919050565b600060208201905081810360008301526119f4816119b8565b9050919050565b7f56657269666965723a2056616c7565206f7574206f662072616e676500000000600082015250565b6000611a31601c83611779565b9150611a3c826119fb565b602082019050919050565b60006020820190508181036000830152611a6081611a24565b9050919050565b7f56657269666965723a20496e76616c6964207a436f6566667300000000000000600082015250565b6000611a9d601983611779565b9150611aa882611a67565b602082019050919050565b60006020820190508181036000830152611acc81611a90565b9050919050565b7f56657269666965723a20496e76616c69642069436f6566667300000000000000600082015250565b6000611b09601983611779565b9150611b1482611ad3565b602082019050919050565b60006020820190508181036000830152611b3881611afc565b9050919050565b6000602082019050611b546000830184611273565b92915050565b7f4e487b7100000000000000000000000000000000000000000000000000000000600052601260045260246000fd5b6000611b9482611269565b9150611b9f83611269565b925082611baf57611bae611b5a565b5b828206905092915050565b7f4e487b7100000000000000000000000000000000000000000000000000000000600052601160045260246000fd5b6000611bf482611269565b9150611bff83611269565b9250828203905081811115611c1757611c16611bba565b5b92915050565b7f50616972696e673a204731206164646974696f6e206661696c65640000000000600082015250565b6000611c53601b83611779565b9150611c5e82611c1d565b602082019050919050565b60006020820190508181036000830152611c8281611c46565b9050919050565b6000611c9482611269565b9150611c9f83611269565b9250828202611cad81611269565b91508282048414831517611cc457611cc3611bba565b5b5092915050565b6000611cd682611269565b9150611ce183611269565b9250828201905080821115611cf957611cf8611bba565b5b92915050565b7f50616972696e673a2050616972696e6720636865636b206661696c6564000000600082015250565b6000611d35601d83611779565b9150611d4082611cff565b602082019050919050565b60006020820190508181036000830152611d6481611d28565b9050919050565b7f50616972696e673a205363616c6172206d756c7469706c69636174696f6e206660008201527f61696c6564000000000000000000000000000000000000000000000000000000602082015250565b6000611dc7602583611779565b9150611dd282611d6b565b604082019050919050565b60006020820190508181036000830152611df681611dba565b905091905056fea2646970667358221220e31a31330c4488c89db1c3765d505f79651076c6070ed0176636f8dd6ed9abbc64736f6c634300081b0033",
  "linkReferences": {},
  "deployedLinkReferences": {}
}