{
  "_format": "hh-sol-artifact-1",
  "contractName": "Pairing",
  "sourceName": "contracts/Pairing.sol",
  "abi": [
    {
      "inputs": [],
      "name": "PRIME_Q",
      "outputs": [
        {
          "internalType": "uint256",
          "name": "",
          "type": "uint256"
        }
      ],
      "stateMutability": "view",
      "type": "function"
    }
  ],
  "bytecode": "0x60dc610051600b82828239805160001a6073146044577f4e487b7100000000000000000000000000000000000000000000000000000000600052600060045260246000fd5b30600052607381538281f3fe730000000000000000000000000000000000000000301460806040526004361060335760003560e01c80638d532908146038575b600080fd5b603e6052565b60405160499190608d565b60405180910390f35b7f30644e72e131a029b85045b68181585d97816a916871ca8d3c208c16d87cfd4781565b6000819050919050565b6087816076565b82525050565b600060208201905060a060008301846080565b9291505056fea2646970667358221220f247370b95ad3a30c6a8b50df5601169f3393d1a5b44886538269a843f27ea5864736f6c634300081b0033",
  "linkReferences": {},
  "deployedLinkReferences": {}
}