{
  "_format": "hh-sol-artifact-1",
  "contractName": "CertsCommitment",
  "sourceName": "contracts/CertCommitment.sol",
  "abi": [
    {
      "inputs": [
        {
          "internalType": "string",
          "name": "_issuerCN",
          "type": "string"
        },
        {
          "internalType": "string",
          "name": "_batchDesc",
          "type": "string"
        },
        {
          "components": [
            {
              "internalType": "uint256",
              "name": "index",
              "type": "uint256"
            },
            {
              "internalType": "uint256",
              "name": "value",
              "type": "uint256"
            },
            {
              "components": [
                {
                  "internalType": "uint256",
                  "name": "X",
                  "type": "uint256"
                },
                {
                  "internalType": "uint256",
                  "name": "Y",
                  "type": "uint256"
                }
              ],
              "internalType": "struct CertsCommitment.GPoint",
              "name": "proof",
              "type": "tuple"
            },
            {
              "components": [
                {
                  "internalType": "uint256",
                  "name": "X",
                  "type": "uint256"
                },
                {
                  "internalType": "uint256",
                  "name": "Y",
                  "type": "uint256"
                }
              ],
              "internalType": "struct CertsCommitment.GPoint",
              "name": "commitment",
              "type": "tuple"
            }
          ],
          "internalType": "struct CertsCommitment.Challenge",
          "name": "_rootChallenge",
          "type": "tuple"
        }
      ],
      "stateMutability": "nonpayable",
      "type": "constructor"
    },
    {
      "inputs": [],
      "name": "batchDesc",
      "outputs": [
        {
          "internalType": "string",
          "name": "",
          "type": "string"
        }
      ],
      "stateMutability": "view",
      "type": "function"
    },
    {
      "inputs": [],
      "name": "getRootChallenge",
      "outputs": [
        {
          "internalType": "uint256",
          "name": "index",
          "type": "uint256"
        },
        {
          "internalType": "uint256",
          "name": "value",
          "type": "uint256"
        },
        {
          "internalType": "uint256",
          "name": "proofX",
          "type": "uint256"
        },
        {
          "internalType": "uint256",
          "name": "proofY",
          "type": "uint256"
        },
        {
          "internalType": "uint256",
          "name": "commitX",
          "type": "uint256"
        },
        {
          "internalType": "uint256",
          "name": "commitY",
          "type": "uint256"
        }
      ],
      "stateMutability": "view",
      "type": "function"
    },
    {
      "inputs": [
        {
          "internalType": "string",
          "name": "",
          "type": "string"
        }
      ],
      "name": "isRevoked",
      "outputs": [
        {
          "internalType": "bool",
          "name": "status",
          "type": "bool"
        },
        {
          "internalType": "string",
          "name": "reason",
          "type": "string"
        }
      ],
      "stateMutability": "view",
      "type": "function"
    },
    {
      "inputs": [],
      "name": "issueTime",
      "outputs": [
        {
          "internalType": "uint256",
          "name": "",
          "type": "uint256"
        }
      ],
      "stateMutability": "view",
      "type": "function"
    },
    {
      "inputs": [],
      "name": "issuer",
      "outputs": [
        {
          "internalType": "address",
          "name": "",
          "type": "address"
        }
      ],
      "stateMutability": "view",
      "type": "function"
    },
    {
      "inputs": [],
      "name": "issuerCN",
      "outputs": [
        {
          "internalType": "string",
          "name": "",
          "type": "string"
        }
      ],
      "stateMutability": "view",
      "type": "function"
    },
    {
      "inputs": [
        {
          "internalType": "string",
          "name": "_hash",
          "type": "string"
        },
        {
          "internalType": "string",
          "name": "_reason",
          "type": "string"
        }
      ],
      "name": "revoke",
      "outputs": [],
      "stateMutability": "nonpayable",
      "type": "function"
    },
    {
      "inputs": [],
      "name": "rootChallenge",
      "outputs": [
        {
          "internalType": "uint256",
          "name": "index",
          "type": "uint256"
        },
        {
          "internalType": "uint256",
          "name": "value",
          "type": "uint256"
        },
        {
          "components": [
            {
              "internalType": "uint256",
              "name": "X",
              "type": "uint256"
            },
            {
              "internalType": "uint256",
              "name": "Y",
              "type": "uint256"
            }
          ],
          "internalType": "struct CertsCommitment.GPoint",
          "name": "proof",
          "type": "tuple"
        },
        {
          "components": [
            {
              "internalType": "uint256",
              "name": "X",
              "type": "uint256"
            },
            {
              "internalType": "uint256",
              "name": "Y",
              "type": "uint256"
            }
          ],
          "internalType": "struct CertsCommitment.GPoint",
          "name": "commitment",
          "type": "tuple"
        }
      ],
      "stateMutability": "view",
      "type": "function"
    }
  ],
  "bytecode": "0x608060405234801561001057600080fd5b506040516116f53803806116f583398181016040528101906100329190610372565b4260008190555033600160006101000a81548173ffffffffffffffffffffffffffffffffffffffff021916908373ffffffffffffffffffffffffffffffffffffffff16021790555082600290816100899190610615565b5081600390816100999190610615565b50806004600082015181600001556020820151816001015560408201518160020160008201518160000155602082015181600101555050606082015181600401600082015181600001556020820151816001015550509050505050506106e7565b6000604051905090565b600080fd5b600080fd5b600080fd5b600080fd5b6000601f19601f8301169050919050565b7f4e487b7100000000000000000000000000000000000000000000000000000000600052604160045260246000fd5b61016182610118565b810181811067ffffffffffffffff821117156101805761017f610129565b5b80604052505050565b60006101936100fa565b905061019f8282610158565b919050565b600067ffffffffffffffff8211156101bf576101be610129565b5b6101c882610118565b9050602081019050919050565b60005b838110156101f35780820151818401526020810190506101d8565b60008484015250505050565b600061021261020d846101a4565b610189565b90508281526020810184848401111561022e5761022d610113565b5b6102398482856101d5565b509392505050565b600082601f8301126102565761025561010e565b5b81516102668482602086016101ff565b91505092915050565b600080fd5b6000819050919050565b61028781610274565b811461029257600080fd5b50565b6000815190506102a48161027e565b92915050565b6000604082840312156102c0576102bf61026f565b5b6102ca6040610189565b905060006102da84828501610295565b60008301525060206102ee84828501610295565b60208301525092915050565b600060c082840312156103105761030f61026f565b5b61031a6080610189565b9050600061032a84828501610295565b600083015250602061033e84828501610295565b6020830152506040610352848285016102aa565b6040830152506080610366848285016102aa565b60608301525092915050565b6000806000610100848603121561038c5761038b610104565b5b600084015167ffffffffffffffff8111156103aa576103a9610109565b5b6103b686828701610241565b935050602084015167ffffffffffffffff8111156103d7576103d6610109565b5b6103e386828701610241565b92505060406103f4868287016102fa565b9150509250925092565b600081519050919050565b7f4e487b7100000000000000000000000000000000000000000000000000000000600052602260045260246000fd5b6000600282049050600182168061045057607f821691505b60208210810361046357610462610409565b5b50919050565b60008190508160005260206000209050919050565b60006020601f8301049050919050565b600082821b905092915050565b6000600883026104cb7fffffffffffffffffffffffffffffffffffffffffffffffffffffffffffffffff8261048e565b6104d5868361048e565b95508019841693508086168417925050509392505050565b6000819050919050565b600061051261050d61050884610274565b6104ed565b610274565b9050919050565b6000819050919050565b61052c836104f7565b61054061053882610519565b84845461049b565b825550505050565b600090565b610555610548565b610560818484610523565b505050565b5b818110156105845761057960008261054d565b600181019050610566565b5050565b601f8211156105c95761059a81610469565b6105a38461047e565b810160208510156105b2578190505b6105c66105be8561047e565b830182610565565b50505b505050565b600082821c905092915050565b60006105ec600019846008026105ce565b1980831691505092915050565b600061060583836105db565b9150826002028217905092915050565b61061e826103fe565b67ffffffffffffffff81111561063757610636610129565b5b6106418254610438565b61064c828285610588565b600060209050601f83116001811461067f576000841561066d578287015190505b61067785826105f9565b8655506106df565b601f19841661068d86610469565b60005b828110156106b557848901518255600182019150602085019450602081019050610690565b868310156106d257848901516106ce601f8916826105db565b8355505b6001600288020188555050505b505050505050565b610fff806106f66000396000f3fe608060405234801561001057600080fd5b50600436106100885760003560e01c8063a9b8c5a01161005b578063a9b8c5a01461011b578063c02198e514610139578063db9f4c5b1461015a578063df07b60e1461017857610088565b806310b40f851461008d5780631d143848146100a957806321889ac5146100c757806335168a00146100ea575b600080fd5b6100a760048036038101906100a291906106cb565b610196565b005b6100b1610396565b6040516100be919061078d565b60405180910390f35b6100cf6103bc565b6040516100e1969594939291906107c1565b60405180910390f35b61010460048036038101906100ff9190610963565b610407565b604051610112929190610a46565b60405180910390f35b6101236104d6565b6040516101309190610a76565b60405180910390f35b610141610564565b6040516101519493929190610ad6565b60405180910390f35b6101626105be565b60405161016f9190610a76565b60405180910390f35b61018061064c565b60405161018d9190610b1b565b60405180910390f35b600160009054906101000a900473ffffffffffffffffffffffffffffffffffffffff1673ffffffffffffffffffffffffffffffffffffffff163373ffffffffffffffffffffffffffffffffffffffff1614610226576040517f08c379a000000000000000000000000000000000000000000000000000000000815260040161021d90610ba8565b60405180910390fd5b83838080601f016020809104026020016040519081016040528093929190818152602001838380828437600081840152601f19601f82011690508083019250505050505050600a8160405161027b9190610c04565b908152602001604051809103902060000160009054906101000a900460ff16156102da576040517f08c379a00000000000000000000000000000000000000000000000000000000081526004016102d190610c8d565b60405180910390fd5b604051806040016040528060011515815260200184848080601f016020809104026020016040519081016040528093929190818152602001838380828437600081840152601f19601f82011690508083019250505050505050815250600a8686604051610348929190610cd2565b908152602001604051809103902060008201518160000160006101000a81548160ff021916908315150217905550602082015181600101908161038b9190610ef7565b509050505050505050565b600160009054906101000a900473ffffffffffffffffffffffffffffffffffffffff1681565b60008060008060008060046000015460046001015460046002016000015460046002016001015460048001600001546004800160010154955095509550955095509550909192939495565b600a818051602081018201805184825260208301602085012081835280955050505050506000915090508060000160009054906101000a900460ff169080600101805461045390610d1a565b80601f016020809104026020016040519081016040528092919081815260200182805461047f90610d1a565b80156104cc5780601f106104a1576101008083540402835291602001916104cc565b820191906000526020600020905b8154815290600101906020018083116104af57829003601f168201915b5050505050905082565b600380546104e390610d1a565b80601f016020809104026020016040519081016040528092919081815260200182805461050f90610d1a565b801561055c5780601f106105315761010080835404028352916020019161055c565b820191906000526020600020905b81548152906001019060200180831161053f57829003601f168201915b505050505081565b60048060000154908060010154908060020160405180604001604052908160008201548152602001600182015481525050908060040160405180604001604052908160008201548152602001600182015481525050905084565b600280546105cb90610d1a565b80601f01602080910402602001604051908101604052809291908181526020018280546105f790610d1a565b80156106445780601f1061061957610100808354040283529160200191610644565b820191906000526020600020905b81548152906001019060200180831161062757829003601f168201915b505050505081565b60005481565b6000604051905090565b600080fd5b600080fd5b600080fd5b600080fd5b600080fd5b60008083601f84011261068b5761068a610666565b5b8235905067ffffffffffffffff8111156106a8576106a761066b565b5b6020830191508360018202830111156106c4576106c3610670565b5b9250929050565b600080600080604085870312156106e5576106e461065c565b5b600085013567ffffffffffffffff81111561070357610702610661565b5b61070f87828801610675565b9450945050602085013567ffffffffffffffff81111561073257610731610661565b5b61073e87828801610675565b925092505092959194509250565b600073ffffffffffffffffffffffffffffffffffffffff82169050919050565b60006107778261074c565b9050919050565b6107878161076c565b82525050565b60006020820190506107a2600083018461077e565b92915050565b6000819050919050565b6107bb816107a8565b82525050565b600060c0820190506107d660008301896107b2565b6107e360208301886107b2565b6107f060408301876107b2565b6107fd60608301866107b2565b61080a60808301856107b2565b61081760a08301846107b2565b979650505050505050565b600080fd5b6000601f19601f8301169050919050565b7f4e487b7100000000000000000000000000000000000000000000000000000000600052604160045260246000fd5b61087082610827565b810181811067ffffffffffffffff8211171561088f5761088e610838565b5b80604052505050565b60006108a2610652565b90506108ae8282610867565b919050565b600067ffffffffffffffff8211156108ce576108cd610838565b5b6108d782610827565b9050602081019050919050565b82818337600083830152505050565b6000610906610901846108b3565b610898565b90508281526020810184848401111561092257610921610822565b5b61092d8482856108e4565b509392505050565b600082601f83011261094a57610949610666565b5b813561095a8482602086016108f3565b91505092915050565b6000602082840312156109795761097861065c565b5b600082013567ffffffffffffffff81111561099757610996610661565b5b6109a384828501610935565b91505092915050565b60008115159050919050565b6109c1816109ac565b82525050565b600081519050919050565b600082825260208201905092915050565b60005b83811015610a015780820151818401526020810190506109e6565b60008484015250505050565b6000610a18826109c7565b610a2281856109d2565b9350610a328185602086016109e3565b610a3b81610827565b840191505092915050565b6000604082019050610a5b60008301856109b8565b8181036020830152610a6d8184610a0d565b90509392505050565b60006020820190508181036000830152610a908184610a0d565b905092915050565b610aa1816107a8565b82525050565b604082016000820151610abd6000850182610a98565b506020820151610ad06020850182610a98565b50505050565b600060c082019050610aeb60008301876107b2565b610af860208301866107b2565b610b056040830185610aa7565b610b126080830184610aa7565b95945050505050565b6000602082019050610b3060008301846107b2565b92915050565b7f4365727473436f6d6d69746d656e743a2043616c6c6572206973206e6f74207460008201527f6865206973737565720000000000000000000000000000000000000000000000602082015250565b6000610b926029836109d2565b9150610b9d82610b36565b604082019050919050565b60006020820190508181036000830152610bc181610b85565b9050919050565b600081905092915050565b6000610bde826109c7565b610be88185610bc8565b9350610bf88185602086016109e3565b80840191505092915050565b6000610c108284610bd3565b915081905092915050565b7f4365727473436f6d6d69746d656e743a2043657274696669636174652069732060008201527f7265766f6b656400000000000000000000000000000000000000000000000000602082015250565b6000610c776027836109d2565b9150610c8282610c1b565b604082019050919050565b60006020820190508181036000830152610ca681610c6a565b9050919050565b6000610cb98385610bc8565b9350610cc68385846108e4565b82840190509392505050565b6000610cdf828486610cad565b91508190509392505050565b7f4e487b7100000000000000000000000000000000000000000000000000000000600052602260045260246000fd5b60006002820490506001821680610d3257607f821691505b602082108103610d4557610d44610ceb565b5b50919050565b60008190508160005260206000209050919050565b60006020601f8301049050919050565b600082821b905092915050565b600060088302610dad7fffffffffffffffffffffffffffffffffffffffffffffffffffffffffffffffff82610d70565b610db78683610d70565b95508019841693508086168417925050509392505050565b6000819050919050565b6000610df4610def610dea846107a8565b610dcf565b6107a8565b9050919050565b6000819050919050565b610e0e83610dd9565b610e22610e1a82610dfb565b848454610d7d565b825550505050565b600090565b610e37610e2a565b610e42818484610e05565b505050565b5b81811015610e6657610e5b600082610e2f565b600181019050610e48565b5050565b601f821115610eab57610e7c81610d4b565b610e8584610d60565b81016020851015610e94578190505b610ea8610ea085610d60565b830182610e47565b50505b505050565b600082821c905092915050565b6000610ece60001984600802610eb0565b1980831691505092915050565b6000610ee78383610ebd565b9150826002028217905092915050565b610f00826109c7565b67ffffffffffffffff811115610f1957610f18610838565b5b610f238254610d1a565b610f2e828285610e6a565b600060209050601f831160018114610f615760008415610f4f578287015190505b610f598582610edb565b865550610fc1565b601f198416610f6f86610d4b565b60005b82811015610f9757848901518255600182019150602085019450602081019050610f72565b86831015610fb45784890151610fb0601f891682610ebd565b8355505b6001600288020188555050505b50505050505056fea2646970667358221220625ba2cde1d80a145775d72d007115aba29b010bded09edd322a00e5509888a964736f6c634300081b0033",
  "linkReferences": {},
  "deployedLinkReferences": {}
}