{
  "_format": "hh-sol-artifact-1",
  "contractName": "CredsCommitment",
  "sourceName": "contracts/CredsCommitment.sol",
  "abi": [
    {
      "inputs": [
        {
          "internalType": "string",
          "name": "_issuerCN",
          "type": "string"
        },
        {
          "internalType": "string",
          "name": "_issuerOG",
          "type": "string"
        },
        {
          "internalType": "string",
          "name": "_batchDesc",
          "type": "string"
        },
        {
          "components": [
            {
              "internalType": "uint256",
              "name": "index",
              "type": "uint256"
            },
            {
              "internalType": "uint256",
              "name": "value",
              "type": "uint256"
            },
            {
              "components": [
                {
                  "internalType": "uint256",
                  "name": "X",
                  "type": "uint256"
                },
                {
                  "internalType": "uint256",
                  "name": "Y",
                  "type": "uint256"
                }
              ],
              "internalType": "struct CredsCommitment.GPoint",
              "name": "proof",
              "type": "tuple"
            },
            {
              "components": [
                {
                  "internalType": "uint256",
                  "name": "X",
                  "type": "uint256"
                },
                {
                  "internalType": "uint256",
                  "name": "Y",
                  "type": "uint256"
                }
              ],
              "internalType": "struct CredsCommitment.GPoint",
              "name": "commitment",
              "type": "tuple"
            }
          ],
          "internalType": "struct CredsCommitment.Challenge",
          "name": "_rootChallenge",
          "type": "tuple"
        }
      ],
      "stateMutability": "nonpayable",
      "type": "constructor"
    },
    {
      "inputs": [],
      "name": "batchDesc",
      "outputs": [
        {
          "internalType": "string",
          "name": "",
          "type": "string"
        }
      ],
      "stateMutability": "view",
      "type": "function"
    },
    {
      "inputs": [],
      "name": "getRootChallenge",
      "outputs": [
        {
          "internalType": "uint256",
          "name": "index",
          "type": "uint256"
        },
        {
          "internalType": "uint256",
          "name": "value",
          "type": "uint256"
        },
        {
          "internalType": "uint256",
          "name": "proofX",
          "type": "uint256"
        },
        {
          "internalType": "uint256",
          "name": "proofY",
          "type": "uint256"
        },
        {
          "internalType": "uint256",
          "name": "commitX",
          "type": "uint256"
        },
        {
          "internalType": "uint256",
          "name": "commitY",
          "type": "uint256"
        }
      ],
      "stateMutability": "view",
      "type": "function"
    },
    {
      "inputs": [
        {
          "internalType": "string",
          "name": "",
          "type": "string"
        }
      ],
      "name": "isRevoked",
      "outputs": [
        {
          "internalType": "bool",
          "name": "status",
          "type": "bool"
        },
        {
          "internalType": "string",
          "name": "reason",
          "type": "string"
        }
      ],
      "stateMutability": "view",
      "type": "function"
    },
    {
      "inputs": [],
      "name": "issueTime",
      "outputs": [
        {
          "internalType": "uint256",
          "name": "",
          "type": "uint256"
        }
      ],
      "stateMutability": "view",
      "type": "function"
    },
    {
      "inputs": [],
      "name": "issuer",
      "outputs": [
        {
          "internalType": "address",
          "name": "",
          "type": "address"
        }
      ],
      "stateMutability": "view",
      "type": "function"
    },
    {
      "inputs": [],
      "name": "issuerCN",
      "outputs": [
        {
          "internalType": "string",
          "name": "",
          "type": "string"
        }
      ],
      "stateMutability": "view",
      "type": "function"
    },
    {
      "inputs": [],
      "name": "issuerOG",
      "outputs": [
        {
          "internalType": "string",
          "name": "",
          "type": "string"
        }
      ],
      "stateMutability": "view",
      "type": "function"
    },
    {
      "inputs": [
        {
          "internalType": "string",
          "name": "_hash",
          "type": "string"
        },
        {
          "internalType": "string",
          "name": "_reason",
          "type": "string"
        }
      ],
      "name": "revoke",
      "outputs": [],
      "stateMutability": "nonpayable",
      "type": "function"
    },
    {
      "inputs": [],
      "name": "rootChallenge",
      "outputs": [
        {
          "internalType": "uint256",
          "name": "index",
          "type": "uint256"
        },
        {
          "internalType": "uint256",
          "name": "value",
          "type": "uint256"
        },
        {
          "components": [
            {
              "internalType": "uint256",
              "name": "X",
              "type": "uint256"
            },
            {
              "internalType": "uint256",
              "name": "Y",
              "type": "uint256"
            }
          ],
          "internalType": "struct CredsCommitment.GPoint",
          "name": "proof",
          "type": "tuple"
        },
        {
          "components": [
            {
              "internalType": "uint256",
              "name": "X",
              "type": "uint256"
            },
            {
              "internalType": "uint256",
              "name": "Y",
              "type": "uint256"
            }
          ],
          "internalType": "struct CredsCommitment.GPoint",
          "name": "commitment",
          "type": "tuple"
        }
      ],
      "stateMutability": "view",
      "type": "function"
    }
  ],
  "bytecode": "0x608060405234801561001057600080fd5b506040516117ef3803806117ef83398181016040528101906100329190610383565b4260008190555033600160006101000a81548173ffffffffffffffffffffffffffffffffffffffff021916908373ffffffffffffffffffffffffffffffffffffffff16021790555083600290816100899190610656565b5082600390816100999190610656565b5081600490816100a99190610656565b508060056000820151816000015560208201518160010155604082015181600201600082015181600001556020820151816001015550506060820151816004016000820151816000015560208201518160010155505090505050505050610728565b6000604051905090565b600080fd5b600080fd5b600080fd5b600080fd5b6000601f19601f8301169050919050565b7f4e487b7100000000000000000000000000000000000000000000000000000000600052604160045260246000fd5b61017282610129565b810181811067ffffffffffffffff821117156101915761019061013a565b5b80604052505050565b60006101a461010b565b90506101b08282610169565b919050565b600067ffffffffffffffff8211156101d0576101cf61013a565b5b6101d982610129565b9050602081019050919050565b60005b838110156102045780820151818401526020810190506101e9565b60008484015250505050565b600061022361021e846101b5565b61019a565b90508281526020810184848401111561023f5761023e610124565b5b61024a8482856101e6565b509392505050565b600082601f8301126102675761026661011f565b5b8151610277848260208601610210565b91505092915050565b600080fd5b6000819050919050565b61029881610285565b81146102a357600080fd5b50565b6000815190506102b58161028f565b92915050565b6000604082840312156102d1576102d0610280565b5b6102db604061019a565b905060006102eb848285016102a6565b60008301525060206102ff848285016102a6565b60208301525092915050565b600060c0828403121561032157610320610280565b5b61032b608061019a565b9050600061033b848285016102a6565b600083015250602061034f848285016102a6565b6020830152506040610363848285016102bb565b6040830152506080610377848285016102bb565b60608301525092915050565b600080600080610120858703121561039e5761039d610115565b5b600085015167ffffffffffffffff8111156103bc576103bb61011a565b5b6103c887828801610252565b945050602085015167ffffffffffffffff8111156103e9576103e861011a565b5b6103f587828801610252565b935050604085015167ffffffffffffffff8111156104165761041561011a565b5b61042287828801610252565b92505060606104338782880161030b565b91505092959194509250565b600081519050919050565b7f4e487b7100000000000000000000000000000000000000000000000000000000600052602260045260246000fd5b6000600282049050600182168061049157607f821691505b6020821081036104a4576104a361044a565b5b50919050565b60008190508160005260206000209050919050565b60006020601f8301049050919050565b600082821b905092915050565b60006008830261050c7fffffffffffffffffffffffffffffffffffffffffffffffffffffffffffffffff826104cf565b61051686836104cf565b95508019841693508086168417925050509392505050565b6000819050919050565b600061055361054e61054984610285565b61052e565b610285565b9050919050565b6000819050919050565b61056d83610538565b6105816105798261055a565b8484546104dc565b825550505050565b600090565b610596610589565b6105a1818484610564565b505050565b5b818110156105c5576105ba60008261058e565b6001810190506105a7565b5050565b601f82111561060a576105db816104aa565b6105e4846104bf565b810160208510156105f3578190505b6106076105ff856104bf565b8301826105a6565b50505b505050565b600082821c905092915050565b600061062d6000198460080261060f565b1980831691505092915050565b6000610646838361061c565b9150826002028217905092915050565b61065f8261043f565b67ffffffffffffffff8111156106785761067761013a565b5b6106828254610479565b61068d8282856105c9565b600060209050601f8311600181146106c057600084156106ae578287015190505b6106b8858261063a565b865550610720565b601f1984166106ce866104aa565b60005b828110156106f6578489015182556001820191506020850194506020810190506106d1565b86831015610713578489015161070f601f89168261061c565b8355505b6001600288020188555050505b505050505050565b6110b8806107376000396000f3fe608060405234801561001057600080fd5b50600436106100935760003560e01c8063a9b8c5a011610066578063a9b8c5a014610126578063aa0f476314610144578063c02198e514610162578063db9f4c5b14610183578063df07b60e146101a157610093565b806310b40f85146100985780631d143848146100b457806321889ac5146100d257806335168a00146100f5575b600080fd5b6100b260048036038101906100ad9190610784565b6101bf565b005b6100bc6103bf565b6040516100c99190610846565b60405180910390f35b6100da6103e5565b6040516100ec9695949392919061087a565b60405180910390f35b61010f600480360381019061010a9190610a1c565b610432565b60405161011d929190610aff565b60405180910390f35b61012e610501565b60405161013b9190610b2f565b60405180910390f35b61014c61058f565b6040516101599190610b2f565b60405180910390f35b61016a61061d565b60405161017a9493929190610b8f565b60405180910390f35b61018b610677565b6040516101989190610b2f565b60405180910390f35b6101a9610705565b6040516101b69190610bd4565b60405180910390f35b600160009054906101000a900473ffffffffffffffffffffffffffffffffffffffff1673ffffffffffffffffffffffffffffffffffffffff163373ffffffffffffffffffffffffffffffffffffffff161461024f576040517f08c379a000000000000000000000000000000000000000000000000000000000815260040161024690610c61565b60405180910390fd5b83838080601f016020809104026020016040519081016040528093929190818152602001838380828437600081840152601f19601f82011690508083019250505050505050600b816040516102a49190610cbd565b908152602001604051809103902060000160009054906101000a900460ff1615610303576040517f08c379a00000000000000000000000000000000000000000000000000000000081526004016102fa90610d46565b60405180910390fd5b604051806040016040528060011515815260200184848080601f016020809104026020016040519081016040528093929190818152602001838380828437600081840152601f19601f82011690508083019250505050505050815250600b8686604051610371929190610d8b565b908152602001604051809103902060008201518160000160006101000a81548160ff02191690831515021790555060208201518160010190816103b49190610fb0565b509050505050505050565b600160009054906101000a900473ffffffffffffffffffffffffffffffffffffffff1681565b600080600080600080600560000154600560010154600560020160000154600560020160010154600560040160000154600560040160010154955095509550955095509550909192939495565b600b818051602081018201805184825260208301602085012081835280955050505050506000915090508060000160009054906101000a900460ff169080600101805461047e90610dd3565b80601f01602080910402602001604051908101604052809291908181526020018280546104aa90610dd3565b80156104f75780601f106104cc576101008083540402835291602001916104f7565b820191906000526020600020905b8154815290600101906020018083116104da57829003601f168201915b5050505050905082565b6004805461050e90610dd3565b80601f016020809104026020016040519081016040528092919081815260200182805461053a90610dd3565b80156105875780601f1061055c57610100808354040283529160200191610587565b820191906000526020600020905b81548152906001019060200180831161056a57829003601f168201915b505050505081565b6003805461059c90610dd3565b80601f01602080910402602001604051908101604052809291908181526020018280546105c890610dd3565b80156106155780601f106105ea57610100808354040283529160200191610615565b820191906000526020600020905b8154815290600101906020018083116105f857829003601f168201915b505050505081565b60058060000154908060010154908060020160405180604001604052908160008201548152602001600182015481525050908060040160405180604001604052908160008201548152602001600182015481525050905084565b6002805461068490610dd3565b80601f01602080910402602001604051908101604052809291908181526020018280546106b090610dd3565b80156106fd5780601f106106d2576101008083540402835291602001916106fd565b820191906000526020600020905b8154815290600101906020018083116106e057829003601f168201915b505050505081565b60005481565b6000604051905090565b600080fd5b600080fd5b600080fd5b600080fd5b600080fd5b60008083601f8401126107445761074361071f565b5b8235905067ffffffffffffffff81111561076157610760610724565b5b60208301915083600182028301111561077d5761077c610729565b5b9250929050565b6000806000806040858703121561079e5761079d610715565b5b600085013567ffffffffffffffff8111156107bc576107bb61071a565b5b6107c88782880161072e565b9450945050602085013567ffffffffffffffff8111156107eb576107ea61071a565b5b6107f78782880161072e565b925092505092959194509250565b600073ffffffffffffffffffffffffffffffffffffffff82169050919050565b600061083082610805565b9050919050565b61084081610825565b82525050565b600060208201905061085b6000830184610837565b92915050565b6000819050919050565b61087481610861565b82525050565b600060c08201905061088f600083018961086b565b61089c602083018861086b565b6108a9604083018761086b565b6108b6606083018661086b565b6108c3608083018561086b565b6108d060a083018461086b565b979650505050505050565b600080fd5b6000601f19601f8301169050919050565b7f4e487b7100000000000000000000000000000000000000000000000000000000600052604160045260246000fd5b610929826108e0565b810181811067ffffffffffffffff82111715610948576109476108f1565b5b80604052505050565b600061095b61070b565b90506109678282610920565b919050565b600067ffffffffffffffff821115610987576109866108f1565b5b610990826108e0565b9050602081019050919050565b82818337600083830152505050565b60006109bf6109ba8461096c565b610951565b9050828152602081018484840111156109db576109da6108db565b5b6109e684828561099d565b509392505050565b600082601f830112610a0357610a0261071f565b5b8135610a138482602086016109ac565b91505092915050565b600060208284031215610a3257610a31610715565b5b600082013567ffffffffffffffff811115610a5057610a4f61071a565b5b610a5c848285016109ee565b91505092915050565b60008115159050919050565b610a7a81610a65565b82525050565b600081519050919050565b600082825260208201905092915050565b60005b83811015610aba578082015181840152602081019050610a9f565b60008484015250505050565b6000610ad182610a80565b610adb8185610a8b565b9350610aeb818560208601610a9c565b610af4816108e0565b840191505092915050565b6000604082019050610b146000830185610a71565b8181036020830152610b268184610ac6565b90509392505050565b60006020820190508181036000830152610b498184610ac6565b905092915050565b610b5a81610861565b82525050565b604082016000820151610b766000850182610b51565b506020820151610b896020850182610b51565b50505050565b600060c082019050610ba4600083018761086b565b610bb1602083018661086b565b610bbe6040830185610b60565b610bcb6080830184610b60565b95945050505050565b6000602082019050610be9600083018461086b565b92915050565b7f4372656473436f6d6d69746d656e743a2043616c6c6572206973206e6f74207460008201527f6865206973737565720000000000000000000000000000000000000000000000602082015250565b6000610c4b602983610a8b565b9150610c5682610bef565b604082019050919050565b60006020820190508181036000830152610c7a81610c3e565b9050919050565b600081905092915050565b6000610c9782610a80565b610ca18185610c81565b9350610cb1818560208601610a9c565b80840191505092915050565b6000610cc98284610c8c565b915081905092915050565b7f4372656473436f6d6d69746d656e743a2043726564656e7469616c206973207260008201527f65766f6b65640000000000000000000000000000000000000000000000000000602082015250565b6000610d30602683610a8b565b9150610d3b82610cd4565b604082019050919050565b60006020820190508181036000830152610d5f81610d23565b9050919050565b6000610d728385610c81565b9350610d7f83858461099d565b82840190509392505050565b6000610d98828486610d66565b91508190509392505050565b7f4e487b7100000000000000000000000000000000000000000000000000000000600052602260045260246000fd5b60006002820490506001821680610deb57607f821691505b602082108103610dfe57610dfd610da4565b5b50919050565b60008190508160005260206000209050919050565b60006020601f8301049050919050565b600082821b905092915050565b600060088302610e667fffffffffffffffffffffffffffffffffffffffffffffffffffffffffffffffff82610e29565b610e708683610e29565b95508019841693508086168417925050509392505050565b6000819050919050565b6000610ead610ea8610ea384610861565b610e88565b610861565b9050919050565b6000819050919050565b610ec783610e92565b610edb610ed382610eb4565b848454610e36565b825550505050565b600090565b610ef0610ee3565b610efb818484610ebe565b505050565b5b81811015610f1f57610f14600082610ee8565b600181019050610f01565b5050565b601f821115610f6457610f3581610e04565b610f3e84610e19565b81016020851015610f4d578190505b610f61610f5985610e19565b830182610f00565b50505b505050565b600082821c905092915050565b6000610f8760001984600802610f69565b1980831691505092915050565b6000610fa08383610f76565b9150826002028217905092915050565b610fb982610a80565b67ffffffffffffffff811115610fd257610fd16108f1565b5b610fdc8254610dd3565b610fe7828285610f23565b600060209050601f83116001811461101a5760008415611008578287015190505b6110128582610f94565b86555061107a565b601f19841661102886610e04565b60005b828110156110505784890151825560018201915060208501945060208101905061102b565b8683101561106d5784890151611069601f891682610f76565b8355505b6001600288020188555050505b50505050505056fea2646970667358221220f74ac37663f1a71d84dfe801bf177e3c8056295fde95546fa5218ac65b57d9dc64736f6c634300081b0033",
  "linkReferences": {},
  "deployedLinkReferences": {}
}