{
  "contracts/Constants.sol": {
    "Constants": {
      "abi": [
        {
          "inputs": [],
          "name": "BABYJUB_P",
          "outputs": [
            {
              "internalType": "uint256",
              "name": "",
              "type": "uint256"
            }
          ],
          "stateMutability": "view",
          "type": "function"
        },
        {
          "inputs": [],
          "name": "PRIME_Q",
          "outputs": [
            {
              "internalType": "uint256",
              "name": "",
              "type": "uint256"
            }
          ],
          "stateMutability": "view",
          "type": "function"
        },
        {
          "inputs": [
            {
              "internalType": "uint256",
              "name": "",
              "type": "uint256"
            }
          ],
          "name": "SRS_G1_X",
          "outputs": [
            {
              "internalType": "uint256",
              "name": "",
              "type": "uint256"
            }
          ],
          "stateMutability": "view",
          "type": "function"
        },
        {
          "inputs": [
            {
              "internalType": "uint256",
              "name": "",
              "type": "uint256"
            }
          ],
          "name": "SRS_G1_Y",
          "outputs": [
            {
              "internalType": "uint256",
              "name": "",
              "type": "uint256"
            }
          ],
          "stateMutability": "view",
          "type": "function"
        },
        {
          "inputs": [
            {
              "internalType": "uint256",
              "name": "",
              "type": "uint256"
            }
          ],
          "name": "SRS_G2_X_0",
          "outputs": [
            {
              "internalType": "uint256",
              "name": "",
              "type": "uint256"
            }
          ],
          "stateMutability": "view",
          "type": "function"
        },
        {
          "inputs": [
            {
              "internalType": "uint256",
              "name": "",
              "type": "uint256"
            }
          ],
          "name": "SRS_G2_X_1",
          "outputs": [
            {
              "internalType": "uint256",
              "name": "",
              "type": "uint256"
            }
          ],
          "stateMutability": "view",
          "type": "function"
        },
        {
          "inputs": [
            {
              "internalType": "uint256",
              "name": "",
              "type": "uint256"
            }
          ],
          "name": "SRS_G2_Y_0",
          "outputs": [
            {
              "internalType": "uint256",
              "name": "",
              "type": "uint256"
            }
          ],
          "stateMutability": "view",
          "type": "function"
        },
        {
          "inputs": [
            {
              "internalType": "uint256",
              "name": "",
              "type": "uint256"
            }
          ],
          "name": "SRS_G2_Y_1",
          "outputs": [
            {
              "internalType": "uint256",
              "name": "",
              "type": "uint256"
            }
          ],
          "stateMutability": "view",
          "type": "function"
        }
      ],
      "evm": {
        "bytecode": {
          "linkReferences": {},
          "object": "6080604052604051806110200160405280600181526020017f1bf32ccf9d8606f2a32624586c10380aa3d12ecd1f0b53f277df6e74c2f8652e81526020017f0e401b101716cb5ef95e29e150c1829a179e9d89167205f23593fb8161d085e881526020017f22f09c6d02082455b418cabcaed2f8113ffcba593c346f30d07236308baf24c981526020017f24552bc00dda4d440e1e35ca9550675fdb5e422f6e12c52dfdceb516f4bbbc5b81526020017f1a84f51d9cb05c0db0980d32ca62f20f7bc4e554360a38f2bb0abcf399b2ece181526020017f2ac6d41b3693a672fe527dc1d035c5c6a597be706d054f9f4fbbcc357257b76481526020017f1570df0052502e9249110efe0d85d3292947918851d9c4b34906ea8a73d9672281526020017f2386350d374d88f78cf0ef5ca5777ecb83a5a212eaa69cd548ccc7cfc80c367681526020017f208605b0745f360d5dd002858ee8ea2d5a25dc49b813598036b80a37f6db710e81526020017f27195ac6c913159058be75f4375a6f961b52a835957e91978739257c8e5619e281526020017f22059de91334bc1f7e6655ec5121c2404dafc569532786053c0201792c1f6e4e81526020017f1e0d393cdaeb633260281cda7418605605f7e4bfff89253e6cac0112326af21381526020017f2bdfc801ecc7f983de4dda8ac3c2075f80f213239d6ecbeb79f747aae080b80781526020017f16ac41a2e17d188680abfa742f3cdc0fd5e6809a8dc2f1cafa4cf7394019ef8481526020017f1cc81ba066276c0443b0132009a93a4ca2c2a8075c32d2c14a51f200b567666481526020017f11fe53a734fd48ac9417cad9a5c66cffd10c5a128214b703096b85f2bb18b22c81526020017f238b4bb70fd225fc36a4891eb6dbaee0f3c796015c63c8046a7ca92e24200e4c81526020017f0f00ce493a4cb4f877cf7ccabb82b70489e13a1ac9e09e95818b5ada65a9b17d81526020017f0ff956a105a57dc1729ba78baeeefcaa5ab3570f7597a0c5247f71c96306594281526020017f29af6597a5d726baba2ba5dd507007fc439dfb891a92a9b2e7d72b33007dc7d281526020017f119cfc13c92f5cc18fccdd5135fdef1524c304f1ddadfcbb576dca340d61a9bf81526020017f03a622b55ee067a5690d9d68e9ba6395daa93038e79db4d016db89e043e7ec3181526020017f255a1b1192634ef28388ca22f39112446ba8918cade9a8a3c3486382fddb263b81526020017f14cab6382b88a5c74e478258b8a41d93dc6d34e062c0d03af106233ea4b4260881526020017f13cb22e8c6b65dbf32e8f038c03ae1c77aa44c1424b3f876d8ca3e195e6e7d0781526020017f067acbdc712d30c05b5fa85bd5b18418c4a17804f15e71e2e03ebb51476965d181526020017f29e4d65b0a80bd6ebf2cd78148e9ed379c11c583f7050da7d53031a5afe1cc2481526020017f051ec195df86c4f79cfe7ba118d3b31bcc957b18023c3b967449e213452a988e81526020017f17b09046f4253a9f49b346a94fad379b0a08b4bdaf9315b76c6aa6c83bfdc41e81526020017f12189be11dc6defdf120cad99f984659604633197c304cd68934a8b9d941871681526020017f03de5388417ae676abaa014e9b61dac75d737d5f2519a4894bef50ed4283d6db81526020017f1dc7d8edc296a75939d5d6131cb4dd78df1d0ae603227ffbc86f03dd052668d181526020017ed5226e881e867590fbd5ce8ee70703072215f4c6f560748482dd006a05522881526020017f1438dfb6a676d856ed9dbb6fdddd0ed53540c53e8cdd6adef249c64ae810413481526020017f25048084e9d15cd722c54569538fb135e46dfcf4f0cbcf68bed0ff38b0a51e6e81526020017f1d3048a26337caf01322539fdb9fef9b3a2fc7497ffedf46f4ed530ac7616c2281526020017f284f096194eb7e8a8af689ebef51075848be3bbece0c55371ccb872743398ee281526020017f09c50fa67d6b394ef3843ac64c8b908e3b491730e8e05f58f42b7295de47ca2281526020017f01724b4873ad749824e6ffffd4f4796ed83ccef2b56458aa8fc4127944cb5d6081526020017f067a31423958a5665e44731f9abb5654fda4b524b06bb1167ba130dc42c2f56581526020017f09406bcc0dc3310263338e1b39d29a921906a9d8f911f5f57cc7c436ab98c5d081526020017f2cb5f29fa00afb0a1fce915993d3e592d11a706a6b71926b743d15faace86e7881526020017f237b439d526a32b79b12cc0524b94bac2241397cc1e7a6a62bf6cc00f57103c481526020017f020e3b46c669fac7e852717f5092fa12dc6bbbe11b5e143d04d3c2e7eda41d2981526020017f2ba692b2f2e0f6402dac0c5be6f305dd5b3f4b3dba8e9c574d877f5c1ed3e89981526020017f24bcfd502109ee384cfe8189ae20eb5ccbaf8a72bf76de71019c4ca22980654a81526020017f113df360ac29c8e6d81e3a91f57a92387efd605391be69f7a5414fb4d53a74a481526020017f1c29824113afcb355d26c9fad3d23013a7ee6f186b5e7b3b4a8061a5fd4286d681526020017f111c5a9fe6f2a94e2cb45bad0cd2fb352ccd7d2e483118bb95e5b786e4c66f7581526020017f18043c88634f5ac8385bf4e8b2da2d354c3545bac100b1bfb81c304d6cb0397c81526020017f10c8cdd188a633c04c451a01abc8ce5c17c33b4cf8688b15e9ae1591b65d838581526020017f01d360655fd4a6416a1d288d92571ac1a3833cf79c2c741af54f2f376322203c81526020017f13eedad3278e63b153c049377742815820812e5a539209f94045f632332ee6c581526020017f03a01eb93154c8a50d42ebc9201b6edacbd60e08808a9b2653118a1f3178a7d981526020017f07a03bd02d9c285ae395930aaffad4e586cd430ae4a7a0a4f9280f4d0efea89481526020017f17e331d2c3bf9882bfdf3d3ffeb53496f3f354d5437cc244b51691de2ea67d5b81526020017f26ccfa928dbb6a02f9a2533d1459bbddba5df18b18fbbec979af5ccd8a62187981526020017f1b896d7b5990250d6d4276064c6dd153946d1d41e304631671dd0710612adc3981526020017f082396adad72dc3c6afbe7f8043c3eefdd95d73ca09da70927355093ef2b2f1881526020017f1c524772146c5ad05532b70a1722ec8fdfae97af29fed1c53f3f45062f7db3fe81526020017f0233f98467d8ab85fecf55b97c06e036b3385108863d337b442fe8cae64507b881526020017f0f833d8e6e8110105f6a8bd5a72d1af973a4cff4e68c52efce5a2dbdfbec67c481526020017f195ae5333da2eb06efa9efe5e95149a163682bef6e2c7130f67ae97de868385081526020017f2005bc6dda1277e09b262034501bb1e04812bc1feba3ac019c8d7ea5c0a527cb81526020017f1152eb0ec582c5957a937dadc8035146e911b2cf350ed02a50002e55c0f2eb8681526020017f233ae5272b87840b5cce1ec342bd68768c6c93626a46034ab6ed5c9c293b6dd281526020017f11b4469306e7ccdeacc442dfa17980e8b735535988c8ba0790cffdfcc110d68681526020017f1da2fa66a94f0b086cee7bccfe2aebcaced9de148a73330d8452626cd63ab8bf81526020017f1718aee5698cbcec1cf245d0b54c8ff64de66182bb5b1abae5eb647e2e4dd1ce81526020017f2db11ae2cea66a9ae18bbc7411d39e323fcb878ab84f1364652969ab2b2990c881526020017f130fcf009bd75cf8550b11e040562e23ffd932c2aabda931f90dd90231b151bc81526020017f07bdcac71534013dcdcf3853c5d61635cbaaf01b936fb3e331470eda88fb474c81526020017f0d84ac8954984fe8e238358a793c6ce05a6eb6407601ade13b7b2099b86364c581526020017f240c99d5e3d97c4e8cce8788f19fbff529d8d528eb98095cb94f0534cc3d0ca481526020017f2493baeb15350d0ccd7dc8db251e96279a767f208f6125d600612c3da3c4066881526020017f1c88246299d7e4589101f139a4b8ed1b17253aa61550ec84a3e577e892d0451d81526020017f22215e2ea1866058222250eb6b8ecb052bb21524cf524bfdd40a4168672c04c381526020017f27f1d77697a582d4a35c3ac881694a77f29106aa1367b170df71c8ac28445c8881526020017f198422688ec5c3c4a35ebf4d256e78080716e93c44b865eb0231afc551f7573f81526020017f048d1ef78f62efae6dc64663759196d2e921e420c18e945567776469086de64481526020017f0f8a03adc5e10c524103ac8185d241b18dc9a45996f0b904a8589087e404902381526020017f0d69dc10cfe158ff1c84ccd6d63c834129ee93162423aaccc127cd63a724069c81526020017f297d6aa2cbb7996148a05c5631d645c2a6c2eedcecb8ad0873087d0c086ae81981526020017f112233556f412b1ed8397cf2455aeb8e8e3de5ccfcc5c9d783d41210db8d3cca81526020017f1f63ef47ff7178d32cebcb56cc5223dfac3b13c48210f3e3d149ceef87207ebc81526020017f16216fb5fa0bd7a8ffd9b32c967f7d555e33cb98449e41a08dab4f7c04fa875d81526020017f0dcc507d62fd583f3059a11f59b2593df7f3416bc4a86fc343cfc6e8d37ae28481526020017f2e6f2bc8daf0b0edbece8373a6a579e4ea1c0bded0bed7705c2d7b869c4410c681526020017f22dd6c713cbcddb5716fe9ef8097e545cc96f44fc064c0481cff0eb36030f37481526020017e89ca7a5894a1402f42ac610c68de090c11920db3be434a3da6dc50c398653d81526020017f2d319043e517c197a9ff8963d3399f4bc74bbb055977c9808e75ed644c5bc2af81526020017f1c38a11baf9e41cfb444f05ac75790abfd65a917f6c259ab9010c4c87fdcf54781526020017f2ff127ee998bd98b2adbcc7bcf174191182f7c6a621ac46910bf4867347edc1481526020017f11b6a7410e205a57e2536f0977a17e85e5f941b7adc15d111c0737984a278cd781526020017f151e70f61c2b5c0165b62a9cd648b6b49d9733b07fe02df5ae4deaf77efe56c881526020017f22ba4329810639d735b295a9e8648d7e34851c135e6a94e742597d0dc99093dd81526020017f2151d31159162e67bd628085c9947aec27b1aa2135e81943b28a0083b4bcb68d81526020017f0c76bbec76cb006ccd76a5503448dcc7c7ae80f890df4e63df07c47c16bc9a6981526020017f1d6ceda71a17d701e3ebbcbb51f21289c6d358e0453c4991a67c1baf37c41fc981526020017f118bda3788e835dff55cbbe4227e33e0c16df832a5086a9e0e0af1d9920fa07281526020017f20f612096d0e9ee8f6afa12c4d30c3de302e46fbea8452b092cb2a14a51f4b7881526020017f0ef0668a61b2407e138d2db6bece20a4d1d4748efb39c2f6a76eb7090cf5a24d81526020017f1c68d162f18f5c326c505f15f6710b842cff82cc125d4cf4ce41d2adc3c41ede81526020017f15092b3f5c6e118cc6518dbd78130c6bf633829411c5c8e93a33c8f8b0f2f24f81526020017f2088f01e02d62d0b37a859a657e42032a5c9a189c790978877bbc789e01df35781526020017f124c2f64042235e28c192180c0bce808183cde7aec26ce2a60bcab2ef2de1b8b81526020017f02429f148e681404783fb448d28d5b23777856568e5cfbab16902c3d825d706e81526020017f1863f247dea2bc3872f3b6786d7db0d99810a7e1237b6f607bd18c8701b700b481526020017f1e73726594d8b4d592039f71679896d41761d0e346c982310c736b96fd2a3b6981526020017f11734c5f7f1175c112e9eae54076df4ed7348c938487a57fd0c1c461f103d8ca81526020017f2257ba20d6d1db7839cd8d0e72f64564fde0688991add50450289471a4f0fa3781526020017f1cdac5b7698f7878f24bc60e3e4df9030a18204f73e3a135e5b45302a359805a81526020017f0d2108f8f26a1a1aef9c31f81632208f34e442654a2093e2a3acbdd1da7ec02481526020017f2bc97f19326fc924fcda4fe0ec205f66165ae0f39b8a34cdfc2deea3835f56f381526020017f1c711fea1f593f068fc1a8965548f6b4da36f248914b5fda56e97cce9b0b2ec581526020017f1b1b24ac8aa9f3229f75eccb7d16b86da8563bad2cda601def5c9080452d2a4781526020017f2e9b3ce02d01bb443a4315e4de7e1388fa90ec63200a62e07f36137c68d8212d81526020017f2fb08041e23b4f9fa04d0d0cfa461f1e871763cce3d6b71252fe7d417a75cc1881526020017e800cb48d12d98948dbcef6c053a1ef262d7cd093dd847308e0313c7acd6be781526020017f2e287d2a4ef6aca672590ed58686c78e91395f2101d7495ba8c2541ff8a67cce81526020017f144a442e4c494f9c9bbae7d39fb87df6c4f3155c77ef257cb5054097cc08219781526020017f3035d908ecb10844885144e69e5d3fbe5d29748d1a4f886b0bb052b737a342e081526020017f24035c69ec713397270c63bed7d4d3968e2aa671e5518e4ae46b0529df5b361d81526020017f26f733617e30cc35b2a565d321bb40b4f120b1097f3f28100987e2e235c6be8581526020017f21aac9d466cbf97709887d44fdc0189c6757ebd2228795f23f700dfd5f45f80581526020017f07491ccd643e4a420081be79b89273efc11a6c07406ec0047971df979f4b711b81526020017f0c44669879d7d3a0d5fece9db8c027b9009fdbeb9b9c0330a5c2ca74a8154dff81526020017f2ca6b5fb21a082dde700929ef7cbd301d9330a502153f3e3f9b80f831479923081525060009060816113229291906127eb565b50604051806110200160405280600281526020017f2d5cba37de100449b4a704cf146a4e1fa4e35a775b0978dac606af22ee086c1481526020017f1d1766d6eb8ad6899aa76215fbc72c7c815cdf4fa5b94824b214d33a8144164781526020017f3047fa8d988dd0ffb58a3d397c05febc29adc880fa1740d4ba37392593eab87d81526020017f149769b4009ba286c3bf68b9ef89ea3df3722c0f2c02a7e733286671bb340e1781526020017f1a47c465665f82ab95677a0e38e0b5c5aa3e79e9eff490941b8c426623822da081526020017f1dc22078116b8ed7fd2e5f257fabb07309522d378318f5b85413ca6f96b25e3281526020017f2e80a8e528e16d94f043fe10f07f41b68db811edea59b24c598f3427f8c72aeb81526020017f06a10cd14a0f266976fd8979b6e28278d9611df51ffef4f91388142aa90e35ee81526020017f26652fc097af0b4d90f17396336cfc2b79a1d6884bb8106198e47a4adcf7336a81526020017f27a212a6246a5b985ee7053be49efc820ba3755704e4eeff72c910ba6bf569c681526020017f1e314e6119e215d2ab5169ae96675810519d002cb38e723810ac55fc583c781c81526020017f0b1ada68373f226d74a1ca1d7639d9a4e1abbe59150c742ff9af5e5486dd3f1b81526020017f12aee19f60cdd2f7a7200ced5e87d38a834dc9e629cb449ead29269f99fd3d0e81526020017f1690b5e0e2541f332fc381762d43d500ed8b07f89b653ac604b99f53765833e281526020017f19ebb23a6a6ce9a3dd172ad0d2e4d24c4731c5d106946237ceda98f15dcf159281526020017f11d516516d35854d291e2d6f8af84d044c43d3c8b2024fc6e27862bf1230e63a81526020017f20e4336d023d9ccecf62430ef5ec71d25afbe398ceaea9f25756fd78d1fb283581526020017f0d1c520eb24243a6e668a3ef57b0d73f8ecc310c2d91d7a8b44690f05c63c87381526020017f2760789df6ed04a45bb374f700a984790661d72e0b3ec10da401ba737a1c35e781526020017f017ae69c9f9d9f62d9be2bba4bcac172adb630378c7aa702bf93ce64d300775381526020017f1e8be147b24481e83beabb209e37f1414ac0f6163c44319a65b82c0ddda82cda81526020017f08d2d8d6685ac4d7cb56f03e17679fe4b5aab0953f9f1ccd67b509a57ee511fb81526020017f157bdad8593045c65705e274bb9d0559a7e3331f90e5b86f4f100c61da9ad3b581526020017f2ce8ffad132cdad32966587f2bce541451754a53b5a212fb7cfdf70aef39ff3c81526020017f2d822f93cc4bd0eab8996734cee63ecfaf2cfe76de6d247579dd2c66fee532b981526020017f07c038c058f7b6e8fff220758849f8ac5e5975ef541e07c22c7f43456c01229581526020017f2427978f5e9472976b5eaa97bbf6b2755450fbb5354181dfd6e71e15e9e2ffbe81526020017f1d599933e905c6ecaec12316efe9de0f838202f322798af444b404a50757546581526020017f11b815533a46bf46479315a3968e8ddeefb559f2768844e7b8d4a09e29ae85bf81526020017f0f8e56aa69115451d882f6bd581a1b14b063c25bac3a494713b9ec507e5a8a8c81526020017f0a67970ad52392001ec0ccfc6c63176401c03f428628e75624d816e2179d5ce581526020017f0a1f8809f23f000712329eeebbdaf002f063678a131860966dae22a61252869881526020017f15e19f0b4b73b2d5d81902612592f9639b84b8c649299194c54e7eef59bd495c81526020017f12930fb964361543c19d8e5ae6047e6758c004874254b62a225ef7d3b70bed4181526020017f1f579ad5a828d4befb75b758879a53e5c5b485c5eab0c0eaa0417088b094bf2081526020017f1cb5f8d5d179db5994269371fbb59a132e41e283e80f3204487b5afb7d30ffb481526020017f25a3d89782f2ea4487bf4e2c9d8d00bd5d081b26130d273b300e5f06590b171881526020017f1c0bc9a8e12f0225e0a15b7050d9093ebf9c8d10a7dddc21051c005c50de88c281526020017f04c351362d1ba5aaa5639af13c9ca3ae3a9452519ece8e9cd1a04cfd7856b2f681526020017f1f5eb724253d5f59b74fd1dca99c4b2f759f421571d22ec9902c0d4459df1e6f81526020017e45d1de9fa72244143f328dfb89f9652b542109082d487cb347b948dc31060581526020017f2f187d4be3dd9f05a6f462a6aa2381f53fb11c668247a72af37d9bed25e1072181526020017f0f9073543658e3f5fcfb8aa7df76429d65ca79946fb66e1d7290a2d038da9c7281526020017f149aa20ce146dbe877edefc4ec10d088eb1f92c7a8873c7b56772e2da887f01081526020017f0ceae61a535d7bc905c6203eb8e421c2ba3addf6d5bb739822ce2353c748340f81526020017f1b145d1d7d659a7f23a96e0d52b8ba61624484b56b66b847bfc6a884b3acaafe81526020017f25f29b1bae3b366e2398abb7571157b5d52343ef903d4aa82fa76a9c041e923b81526020017f0d0d8a2b608a7c11e5deaacbb38581ba9f5f093e0a394aa83de5d45aa224ff5f81526020017f0a43b44970fa36ddb115c385df350f48706d77f2641e17b1ec8eb8fe6ea86dc081526020017f19f16b73cd232170391b5c09654cf40011204c263b253b487714527a4e3d133181526020017f0872d0852a8efc8fe2a31192189c431a7d4425887c0391f91423d5e3ea47d87381526020017eb717eb019c15daf8c2ebf5a3a901197b3955c5236118feb9aadaa3bf84206d81526020017f291c4e7df058a59bfd82e83cd3bffb9a2fd72dbbea166fd6982ef1057eafd2c881526020017f015a235802a944021064fc6284132c366ad31bbe9558123bdd6c2d078a8c8e1e81526020017f22a73d8429ea8b36b88df533c5376b04cf3da473bf20da9e23feed2f27beb95981526020017f2d5711ed390df1fa1e87f2990b178b35b7e12718f24c57a051f6682b5cae935881526020017f15019cab7966fed1d524a74a25ede548e4056efcf9e0f9eb18ade4c6e300b4d781526020017f24b2e6f1d24d364908496c72266ffa3d217e563083b3fc938824c183ca2c823681526020017f1d039cfa26ad29bef82e74a1da3634e5430128143022d7e1a2889d4cdbaca7bc81526020017f303b4543b0ee763a4613004fa96206297a17f2c5eac19f53590f08d31b5a97f481526020017f224bf61e71a3ee0327eb5af20b1f2718fd1c122bde7d5bce8d6ced5cb17da20e81526020017f290cae27dbe937b9d85b5e615f8c41d43d6cb9f6ac5a3eb3b6ea5ca46f918fe981526020017f2a254e8bcfc6e7c251e66c109f246aba1ac47ed20c618cd5e56d3b77078bfb3481526020017f1f4e246aefa67f3b2680af0cf06bca2d0f6601c8bcbb7db5ea765a1cdfeb25a681526020017f038f0a9aaf22cd265ad2faf248ad858a6b72658b4bb58a87deafe19580aedb4781526020017f0c20195898635dcd0baba574bdf883459f85d98e54ec45693a82ed8a941b37ca81526020017f234bd122b666c98734e0938cc35698596cd3a12ce346fa206cfc54926878d7a781526020017f1f2120194205cb2147fcfaf8be22edb6001ff7fe2bd5216024644d172bbb214281526020017efea1899d321bd5328eedffaad5cf47d7bdf8201e01e9dba140050ec205d0bb81526020017f11fc36dee7eea4ec379423863a4009e79b57837de3c776c8e376f40b74f45bff81526020017f24758ba34ce9b0f6614e5172cf7be92ef4907bbd4df9c65c78be37f764febdb881526020017f0d0584624f800ea25e12064a54ab7ff764cabd521ee9d85a379599ccacb1d05081526020017f279e037ed29fe73e29523201a3da7ba8461a2a125ea339b5d419f76187c5daa781526020017f15b4f4fe52ac379489a0c322d04881582f8d91ec59df1d2b551f5959f4f73ab481526020017f0148c7412573d5bb7042f7aab20805d8bb323eab5780b7d62d20d2cc43d3a05681526020017f0f3735f595d4b7c49efdd21826c0c04418e293f8977f8452c3b5290517dc5f4681526020017f0325b26ab0d50baa0ae526a62085a9d964db03c45a5925a33af35f975212261a81526020017f28f2718fdf99ba20651857bfe40763a7fdeb0bf51c95c86228e12971dcba248881526020017f0734b877472354a0ecd5f2a0cc586743b24fa0e62f73fe30e7e03aba4a6539ad81526020017f04043bac7985131e179843002ddd2bb677007727c1afcfe0482b3768dd651ec681526020017f0cadf7f6fed14559a71c8120a94986dd15233aa7cbe1833e4a64d1538f7c754581526020017f288a32405234a5d5808ebdd26216cc3b037c456458cbbc04624245f884cf31ea81526020017f2322b693732bcd38a5bc287595c91124243f6e3bfd2589986c82d998d528608981526020017f12424a6422286c73f44ca4ef472c023ddafa71ca4afff44a188141058980f1d381526020017f12382b745a02b93c31584e102aeb09d8bd471d33d0acec21d6e4478e5ae2ad0581526020017f10a5e23fa88595f036718db0940504de24ff70aa93b3113612525b700c730a7981526020017f21d0da6f54a12fa3590f970017c0cf8314ac5a5f3a31d34ebe504baf5267399381526020017f0c5fdeef3b5064d8fb28bdb67bf4cf82ccdb21ab8cc3f48dbde13e2a779086cb81526020017f07350301a21ba4c6ed6f0b24ddfef0641a270be7271942c4bc5f82078333a4e481526020017f107d51fca8445f86c44d3148589c7e829b9e89d4013b3ea0d8cc076935b2029d81526020017f2d0c96327fa1f2a9ab6afecfb7494c60a3345b76c709452624286ebb6ba3422581526020017f282d020250c192491494dc757314f9b6f046e9a084236f770dd5cea0d8261c7f81526020017f1f1d45d529d2acd871b7dc98a387ffd9c0b172da7a3e6bd4b70cb70e297f4a3781526020017f1c5f400a637a690b95fcbefd0a201ad35963f30da3ed3204be68fe25257194d381526020017f06ec73abe97909b53e2f3b13c04a5ead3c79a5c5fd1bb1028dee3af44e894a7681526020017f173803ec88cb821831bf5b4e95ddb46f048d4f23ffc09216eafb8fb5157dde0b81526020017f2050a6d610fd945c5c1a93058981803b086b545e7f406185c1b547b9a55d752e81526020017f1cfae703a5336d3624c52aa816b6229ff3ea26e9e0b888a05471d2cc2ab832f981526020017e920238b751931d557cf04214484958ef1f31248cb424e0f0fb0ac0dd78d11381526020017f19460b7b47698fcce9a08b0f5c9201993a9aa36e09e4415c9f2269a418ba63f781526020017f0b32bdbd0a569fd886837697c61fc23a3b6b631959dfa787b50271b249cf62ba81526020017f27eb8f3f578d0f86145d16e7464119d75faff0149c8972df63e45e3aa9d9beef81526020017f27f799f1ce2a5ed1e1669bee620eab54a6895f7e06c8742be0b87af49db7122781526020017f195bab2ce40c27c5553815a87d887c5dff3af38b5c45d5dc18f39722dd5f1f8381526020017f1c2cafd5c56f4be8a93e06eec3c5fb723d8bfbb64b536caf13d6ad5873277a8581526020017f01aea92ca3e59ff975a3913e6ceb5205985617b020f8df64611a3b87b17791cb81526020017f0f51d61e0665150867a59afb240b2065427624b17beccb46da3f637262fb3faa81526020017f1f23e3e87c40f7ba850ed06bc775dc9e798d928e14e8e35a2066337f8b85261b81526020017f1b296b0c2ca61a7693fcf69c7b5f7483277c4d1078cd5f19df12f2f494fc991881526020017f11d4f84493b1bd7f9fb3463b1f1211fae055700346a966bdc25dcbf8070c4ded81526020017f03591b124a5100f4ab1d04f1c8d6daacdd598c0a7d1cfc2d891dcdf305018f7281526020017f0286d0964f98554397ed0378ac62009e57ad0ef010d6c9c14a66cbe5973ebb8d81526020017f2915be98166b8684f23bfe4d5db880d3094fc6f5a45c77fc604b17b0be09f71e81526020017f05842457076bb32999bb4f18a38a59d9e738aa1a41364d11be8ae28ea446cb5881526020017f0a09416f7bf18562a68d5273973eb673d032695ae1e20a9db051c74cf72711a881526020017f09fe21bf0de83b7359af8972a1a30534e5e1de75a61f29da1ea3f9128f26a39281526020017f0dd4fe56a197133b53fec74610feb568826781996459722fec0995a70375a3b881526020017f2d289e6c918e44cfd81520cb6578b8083f34709902bee8f67f503f3d602b717f81526020017f2533fe6f024cdca297e6be92aa60db3190e53c1cf836e8167afc6a00eaaecafb81526020017f21571af0f8a43e057e309ce03136a16d160d947d28be4edd398e781bab6263eb81526020017f0467dd0c3d1f4da968d51f662028283f40b9558fd5c649acfbf4f6d33b5a2a5381526020017f207a62a6d7d9cca6a9a4985b5ab35bbcef9e828188edd26151a7a6f989b5ce1181526020017f2be4b2d39d059658c55fa506005e7397cb656406e8310c037ab851fbec892d8c81526020017f150946fadeff878b03d83c015e5c108b115774b0263945922f310ac52b64fc8681526020017f07be02e86e6904c2e6580f9396a029fe2df096b53d891dcf57ebc6fbb993552581526020017f162a19e9d3670993b04862326b2be2f48dee94a4b62df2d08addb3fb99e1c30181526020017f0f6496a3f2609d24c928b2ba93d9dbef2ceb1129131cb1a49199be4c9e13fddc81526020017f02f44ae6eb7ebfb4dcc6a3bee7a60a5a2cf15818c394a9833d41007d7da648c081525060019060816126409291906127eb565b5060405180604001604052807f198e9393920d483a7260bfb731fb5d25f1aa493335a9e71297e485b7aef312c281526020017f21a808dad5c50720fb7294745cf4c87812ce0ea76baa7df4e922615d1388f25a81525060029060026126a6929190612838565b5060405180604001604052807f1800deef121f1e76426a00665e5c4479674322d4f75edadd46debd5cd992f6ed81526020017f04c5e74c85a87f008a2feb4b5c8a1e7f9ba9d8eb40eb02e70139c89fb1c505a9815250600390600261270c929190612838565b5060405180604001604052807f090689d0585ff075ec9e99ad690c3395bc4b313370b38ef355acdadcd122975b81526020017f204b66d8e1fadc307c35187a6b813be0b46ba1cd720cd1c4ee5f68d13036b4ba8152506004906002612772929190612838565b5060405180604001604052807f12c85ea5db8c6deb4aab71808dcb408fe3d1e7690c43d37b4ce6cc0166fa7daa81526020017f2d58022915fc6bc90e036e858fbc98055084ac7aff98ccceb0e3fde64bc1a08481525060059060026127d8929190612838565b503480156127e557600080fd5b506128a2565b828054828255906000526020600020908101928215612827579160200282015b8281111561282657825182559160200191906001019061280b565b5b5090506128349190612885565b5090565b828054828255906000526020600020908101928215612874579160200282015b82811115612873578251825591602001919060010190612858565b5b5090506128819190612885565b5090565b5b8082111561289e576000816000905550600101612886565b5090565b6103d1806128b16000396000f3fe608060405234801561001057600080fd5b50600436106100885760003560e01c80638d5329081161005b5780638d5329081461014d578063a80a0aca1461016b578063dd735c0c1461019b578063e1ccd87a146101cb57610088565b8063082a47701461008d57806371c1441e146100bd5780637cf50768146100ed57806382a124f61461011d575b600080fd5b6100a760048036038101906100a29190610344565b6101e9565b6040516100b49190610380565b60405180910390f35b6100d760048036038101906100d29190610344565b61020d565b6040516100e49190610380565b60405180910390f35b61010760048036038101906101029190610344565b610231565b6040516101149190610380565b60405180910390f35b61013760048036038101906101329190610344565b610255565b6040516101449190610380565b60405180910390f35b610155610279565b6040516101629190610380565b60405180910390f35b61018560048036038101906101809190610344565b61029d565b6040516101929190610380565b60405180910390f35b6101b560048036038101906101b09190610344565b6102c1565b6040516101c29190610380565b60405180910390f35b6101d36102e5565b6040516101e09190610380565b60405180910390f35b600181815481106101f957600080fd5b906000526020600020016000915090505481565b6002818154811061021d57600080fd5b906000526020600020016000915090505481565b6005818154811061024157600080fd5b906000526020600020016000915090505481565b6003818154811061026557600080fd5b906000526020600020016000915090505481565b7f30644e72e131a029b85045b68181585d97816a916871ca8d3c208c16d87cfd4781565b600481815481106102ad57600080fd5b906000526020600020016000915090505481565b600081815481106102d157600080fd5b906000526020600020016000915090505481565b7f30644e72e131a029b85045b68181585d2833e84879b9709143e1f593f000000181565b600080fd5b6000819050919050565b6103218161030e565b811461032c57600080fd5b50565b60008135905061033e81610318565b92915050565b60006020828403121561035a57610359610309565b5b60006103688482850161032f565b91505092915050565b61037a8161030e565b82525050565b60006020820190506103956000830184610371565b9291505056fea264697066735822122011867e802d97d5877671f770dc1f7116c739c4d6688da824f3521488f086586f64736f6c634300081b0033",
          "opcodes": "PUSH1 0x80 PUSH1 0x40 MSTORE PUSH1 0x40 MLOAD DUP1 PUSH2 0x1020 ADD PUSH1 0x40 MSTORE DUP1 PUSH1 0x1 DUP2 MSTORE PUSH1 0x20 ADD PUSH32 0x1BF32CCF9D8606F2A32624586C10380AA3D12ECD1F0B53F277DF6E74C2F8652E DUP2 MSTORE PUSH1 0x20 ADD PUSH32 0xE401B101716CB5EF95E29E150C1829A179E9D89167205F23593FB8161D085E8 DUP2 MSTORE PUSH1 0x20 ADD PUSH32 0x22F09C6D02082455B418CABCAED2F8113FFCBA593C346F30D07236308BAF24C9 DUP2 MSTORE PUSH1 0x20 ADD PUSH32 0x24552BC00DDA4D440E1E35CA9550675FDB5E422F6E12C52DFDCEB516F4BBBC5B DUP2 MSTORE PUSH1 0x20 ADD PUSH32 0x1A84F51D9CB05C0DB0980D32CA62F20F7BC4E554360A38F2BB0ABCF399B2ECE1 DUP2 MSTORE PUSH1 0x20 ADD PUSH32 0x2AC6D41B3693A672FE527DC1D035C5C6A597BE706D054F9F4FBBCC357257B764 DUP2 MSTORE PUSH1 0x20 ADD PUSH32 0x1570DF0052502E9249110EFE0D85D3292947918851D9C4B34906EA8A73D96722 DUP2 MSTORE PUSH1 0x20 ADD PUSH32 0x2386350D374D88F78CF0EF5CA5777ECB83A5A212EAA69CD548CCC7CFC80C3676 DUP2 MSTORE PUSH1 0x20 ADD PUSH32 0x208605B0745F360D5DD002858EE8EA2D5A25DC49B813598036B80A37F6DB710E DUP2 MSTORE PUSH1 0x20 ADD PUSH32 0x27195AC6C913159058BE75F4375A6F961B52A835957E91978739257C8E5619E2 DUP2 MSTORE PUSH1 0x20 ADD PUSH32 0x22059DE91334BC1F7E6655EC5121C2404DAFC569532786053C0201792C1F6E4E DUP2 MSTORE PUSH1 0x20 ADD PUSH32 0x1E0D393CDAEB633260281CDA7418605605F7E4BFFF89253E6CAC0112326AF213 DUP2 MSTORE PUSH1 0x20 ADD PUSH32 0x2BDFC801ECC7F983DE4DDA8AC3C2075F80F213239D6ECBEB79F747AAE080B807 DUP2 MSTORE PUSH1 0x20 ADD PUSH32 0x16AC41A2E17D188680ABFA742F3CDC0FD5E6809A8DC2F1CAFA4CF7394019EF84 DUP2 MSTORE PUSH1 0x20 ADD PUSH32 0x1CC81BA066276C0443B0132009A93A4CA2C2A8075C32D2C14A51F200B5676664 DUP2 MSTORE PUSH1 0x20 ADD PUSH32 0x11FE53A734FD48AC9417CAD9A5C66CFFD10C5A128214B703096B85F2BB18B22C DUP2 MSTORE PUSH1 0x20 ADD PUSH32 0x238B4BB70FD225FC36A4891EB6DBAEE0F3C796015C63C8046A7CA92E24200E4C DUP2 MSTORE PUSH1 0x20 ADD PUSH32 0xF00CE493A4CB4F877CF7CCABB82B70489E13A1AC9E09E95818B5ADA65A9B17D DUP2 MSTORE PUSH1 0x20 ADD PUSH32 0xFF956A105A57DC1729BA78BAEEEFCAA5AB3570F7597A0C5247F71C963065942 DUP2 MSTORE PUSH1 0x20 ADD PUSH32 0x29AF6597A5D726BABA2BA5DD507007FC439DFB891A92A9B2E7D72B33007DC7D2 DUP2 MSTORE PUSH1 0x20 ADD PUSH32 0x119CFC13C92F5CC18FCCDD5135FDEF1524C304F1DDADFCBB576DCA340D61A9BF DUP2 MSTORE PUSH1 0x20 ADD PUSH32 0x3A622B55EE067A5690D9D68E9BA6395DAA93038E79DB4D016DB89E043E7EC31 DUP2 MSTORE PUSH1 0x20 ADD PUSH32 0x255A1B1192634EF28388CA22F39112446BA8918CADE9A8A3C3486382FDDB263B DUP2 MSTORE PUSH1 0x20 ADD PUSH32 0x14CAB6382B88A5C74E478258B8A41D93DC6D34E062C0D03AF106233EA4B42608 DUP2 MSTORE PUSH1 0x20 ADD PUSH32 0x13CB22E8C6B65DBF32E8F038C03AE1C77AA44C1424B3F876D8CA3E195E6E7D07 DUP2 MSTORE PUSH1 0x20 ADD PUSH32 0x67ACBDC712D30C05B5FA85BD5B18418C4A17804F15E71E2E03EBB51476965D1 DUP2 MSTORE PUSH1 0x20 ADD PUSH32 0x29E4D65B0A80BD6EBF2CD78148E9ED379C11C583F7050DA7D53031A5AFE1CC24 DUP2 MSTORE PUSH1 0x20 ADD PUSH32 0x51EC195DF86C4F79CFE7BA118D3B31BCC957B18023C3B967449E213452A988E DUP2 MSTORE PUSH1 0x20 ADD PUSH32 0x17B09046F4253A9F49B346A94FAD379B0A08B4BDAF9315B76C6AA6C83BFDC41E DUP2 MSTORE PUSH1 0x20 ADD PUSH32 0x12189BE11DC6DEFDF120CAD99F984659604633197C304CD68934A8B9D9418716 DUP2 MSTORE PUSH1 0x20 ADD PUSH32 0x3DE5388417AE676ABAA014E9B61DAC75D737D5F2519A4894BEF50ED4283D6DB DUP2 MSTORE PUSH1 0x20 ADD PUSH32 0x1DC7D8EDC296A75939D5D6131CB4DD78DF1D0AE603227FFBC86F03DD052668D1 DUP2 MSTORE PUSH1 0x20 ADD PUSH31 0xD5226E881E867590FBD5CE8EE70703072215F4C6F560748482DD006A055228 DUP2 MSTORE PUSH1 0x20 ADD PUSH32 0x1438DFB6A676D856ED9DBB6FDDDD0ED53540C53E8CDD6ADEF249C64AE8104134 DUP2 MSTORE PUSH1 0x20 ADD PUSH32 0x25048084E9D15CD722C54569538FB135E46DFCF4F0CBCF68BED0FF38B0A51E6E DUP2 MSTORE PUSH1 0x20 ADD PUSH32 0x1D3048A26337CAF01322539FDB9FEF9B3A2FC7497FFEDF46F4ED530AC7616C22 DUP2 MSTORE PUSH1 0x20 ADD PUSH32 0x284F096194EB7E8A8AF689EBEF51075848BE3BBECE0C55371CCB872743398EE2 DUP2 MSTORE PUSH1 0x20 ADD PUSH32 0x9C50FA67D6B394EF3843AC64C8B908E3B491730E8E05F58F42B7295DE47CA22 DUP2 MSTORE PUSH1 0x20 ADD PUSH32 0x1724B4873AD749824E6FFFFD4F4796ED83CCEF2B56458AA8FC4127944CB5D60 DUP2 MSTORE PUSH1 0x20 ADD PUSH32 0x67A31423958A5665E44731F9ABB5654FDA4B524B06BB1167BA130DC42C2F565 DUP2 MSTORE PUSH1 0x20 ADD PUSH32 0x9406BCC0DC3310263338E1B39D29A921906A9D8F911F5F57CC7C436AB98C5D0 DUP2 MSTORE PUSH1 0x20 ADD PUSH32 0x2CB5F29FA00AFB0A1FCE915993D3E592D11A706A6B71926B743D15FAACE86E78 DUP2 MSTORE PUSH1 0x20 ADD PUSH32 0x237B439D526A32B79B12CC0524B94BAC2241397CC1E7A6A62BF6CC00F57103C4 DUP2 MSTORE PUSH1 0x20 ADD PUSH32 0x20E3B46C669FAC7E852717F5092FA12DC6BBBE11B5E143D04D3C2E7EDA41D29 DUP2 MSTORE PUSH1 0x20 ADD PUSH32 0x2BA692B2F2E0F6402DAC0C5BE6F305DD5B3F4B3DBA8E9C574D877F5C1ED3E899 DUP2 MSTORE PUSH1 0x20 ADD PUSH32 0x24BCFD502109EE384CFE8189AE20EB5CCBAF8A72BF76DE71019C4CA22980654A DUP2 MSTORE PUSH1 0x20 ADD PUSH32 0x113DF360AC29C8E6D81E3A91F57A92387EFD605391BE69F7A5414FB4D53A74A4 DUP2 MSTORE PUSH1 0x20 ADD PUSH32 0x1C29824113AFCB355D26C9FAD3D23013A7EE6F186B5E7B3B4A8061A5FD4286D6 DUP2 MSTORE PUSH1 0x20 ADD PUSH32 0x111C5A9FE6F2A94E2CB45BAD0CD2FB352CCD7D2E483118BB95E5B786E4C66F75 DUP2 MSTORE PUSH1 0x20 ADD PUSH32 0x18043C88634F5AC8385BF4E8B2DA2D354C3545BAC100B1BFB81C304D6CB0397C DUP2 MSTORE PUSH1 0x20 ADD PUSH32 0x10C8CDD188A633C04C451A01ABC8CE5C17C33B4CF8688B15E9AE1591B65D8385 DUP2 MSTORE PUSH1 0x20 ADD PUSH32 0x1D360655FD4A6416A1D288D92571AC1A3833CF79C2C741AF54F2F376322203C DUP2 MSTORE PUSH1 0x20 ADD PUSH32 0x13EEDAD3278E63B153C049377742815820812E5A539209F94045F632332EE6C5 DUP2 MSTORE PUSH1 0x20 ADD PUSH32 0x3A01EB93154C8A50D42EBC9201B6EDACBD60E08808A9B2653118A1F3178A7D9 DUP2 MSTORE PUSH1 0x20 ADD PUSH32 0x7A03BD02D9C285AE395930AAFFAD4E586CD430AE4A7A0A4F9280F4D0EFEA894 DUP2 MSTORE PUSH1 0x20 ADD PUSH32 0x17E331D2C3BF9882BFDF3D3FFEB53496F3F354D5437CC244B51691DE2EA67D5B DUP2 MSTORE PUSH1 0x20 ADD PUSH32 0x26CCFA928DBB6A02F9A2533D1459BBDDBA5DF18B18FBBEC979AF5CCD8A621879 DUP2 MSTORE PUSH1 0x20 ADD PUSH32 0x1B896D7B5990250D6D4276064C6DD153946D1D41E304631671DD0710612ADC39 DUP2 MSTORE PUSH1 0x20 ADD PUSH32 0x82396ADAD72DC3C6AFBE7F8043C3EEFDD95D73CA09DA70927355093EF2B2F18 DUP2 MSTORE PUSH1 0x20 ADD PUSH32 0x1C524772146C5AD05532B70A1722EC8FDFAE97AF29FED1C53F3F45062F7DB3FE DUP2 MSTORE PUSH1 0x20 ADD PUSH32 0x233F98467D8AB85FECF55B97C06E036B3385108863D337B442FE8CAE64507B8 DUP2 MSTORE PUSH1 0x20 ADD PUSH32 0xF833D8E6E8110105F6A8BD5A72D1AF973A4CFF4E68C52EFCE5A2DBDFBEC67C4 DUP2 MSTORE PUSH1 0x20 ADD PUSH32 0x195AE5333DA2EB06EFA9EFE5E95149A163682BEF6E2C7130F67AE97DE8683850 DUP2 MSTORE PUSH1 0x20 ADD PUSH32 0x2005BC6DDA1277E09B262034501BB1E04812BC1FEBA3AC019C8D7EA5C0A527CB DUP2 MSTORE PUSH1 0x20 ADD PUSH32 0x1152EB0EC582C5957A937DADC8035146E911B2CF350ED02A50002E55C0F2EB86 DUP2 MSTORE PUSH1 0x20 ADD PUSH32 0x233AE5272B87840B5CCE1EC342BD68768C6C93626A46034AB6ED5C9C293B6DD2 DUP2 MSTORE PUSH1 0x20 ADD PUSH32 0x11B4469306E7CCDEACC442DFA17980E8B735535988C8BA0790CFFDFCC110D686 DUP2 MSTORE PUSH1 0x20 ADD PUSH32 0x1DA2FA66A94F0B086CEE7BCCFE2AEBCACED9DE148A73330D8452626CD63AB8BF DUP2 MSTORE PUSH1 0x20 ADD PUSH32 0x1718AEE5698CBCEC1CF245D0B54C8FF64DE66182BB5B1ABAE5EB647E2E4DD1CE DUP2 MSTORE PUSH1 0x20 ADD PUSH32 0x2DB11AE2CEA66A9AE18BBC7411D39E323FCB878AB84F1364652969AB2B2990C8 DUP2 MSTORE PUSH1 0x20 ADD PUSH32 0x130FCF009BD75CF8550B11E040562E23FFD932C2AABDA931F90DD90231B151BC DUP2 MSTORE PUSH1 0x20 ADD PUSH32 0x7BDCAC71534013DCDCF3853C5D61635CBAAF01B936FB3E331470EDA88FB474C DUP2 MSTORE PUSH1 0x20 ADD PUSH32 0xD84AC8954984FE8E238358A793C6CE05A6EB6407601ADE13B7B2099B86364C5 DUP2 MSTORE PUSH1 0x20 ADD PUSH32 0x240C99D5E3D97C4E8CCE8788F19FBFF529D8D528EB98095CB94F0534CC3D0CA4 DUP2 MSTORE PUSH1 0x20 ADD PUSH32 0x2493BAEB15350D0CCD7DC8DB251E96279A767F208F6125D600612C3DA3C40668 DUP2 MSTORE PUSH1 0x20 ADD PUSH32 0x1C88246299D7E4589101F139A4B8ED1B17253AA61550EC84A3E577E892D0451D DUP2 MSTORE PUSH1 0x20 ADD PUSH32 0x22215E2EA1866058222250EB6B8ECB052BB21524CF524BFDD40A4168672C04C3 DUP2 MSTORE PUSH1 0x20 ADD PUSH32 0x27F1D77697A582D4A35C3AC881694A77F29106AA1367B170DF71C8AC28445C88 DUP2 MSTORE PUSH1 0x20 ADD PUSH32 0x198422688EC5C3C4A35EBF4D256E78080716E93C44B865EB0231AFC551F7573F DUP2 MSTORE PUSH1 0x20 ADD PUSH32 0x48D1EF78F62EFAE6DC64663759196D2E921E420C18E945567776469086DE644 DUP2 MSTORE PUSH1 0x20 ADD PUSH32 0xF8A03ADC5E10C524103AC8185D241B18DC9A45996F0B904A8589087E4049023 DUP2 MSTORE PUSH1 0x20 ADD PUSH32 0xD69DC10CFE158FF1C84CCD6D63C834129EE93162423AACCC127CD63A724069C DUP2 MSTORE PUSH1 0x20 ADD PUSH32 0x297D6AA2CBB7996148A05C5631D645C2A6C2EEDCECB8AD0873087D0C086AE819 DUP2 MSTORE PUSH1 0x20 ADD PUSH32 0x112233556F412B1ED8397CF2455AEB8E8E3DE5CCFCC5C9D783D41210DB8D3CCA DUP2 MSTORE PUSH1 0x20 ADD PUSH32 0x1F63EF47FF7178D32CEBCB56CC5223DFAC3B13C48210F3E3D149CEEF87207EBC DUP2 MSTORE PUSH1 0x20 ADD PUSH32 0x16216FB5FA0BD7A8FFD9B32C967F7D555E33CB98449E41A08DAB4F7C04FA875D DUP2 MSTORE PUSH1 0x20 ADD PUSH32 0xDCC507D62FD583F3059A11F59B2593DF7F3416BC4A86FC343CFC6E8D37AE284 DUP2 MSTORE PUSH1 0x20 ADD PUSH32 0x2E6F2BC8DAF0B0EDBECE8373A6A579E4EA1C0BDED0BED7705C2D7B869C4410C6 DUP2 MSTORE PUSH1 0x20 ADD PUSH32 0x22DD6C713CBCDDB5716FE9EF8097E545CC96F44FC064C0481CFF0EB36030F374 DUP2 MSTORE PUSH1 0x20 ADD PUSH31 0x89CA7A5894A1402F42AC610C68DE090C11920DB3BE434A3DA6DC50C398653D DUP2 MSTORE PUSH1 0x20 ADD PUSH32 0x2D319043E517C197A9FF8963D3399F4BC74BBB055977C9808E75ED644C5BC2AF DUP2 MSTORE PUSH1 0x20 ADD PUSH32 0x1C38A11BAF9E41CFB444F05AC75790ABFD65A917F6C259AB9010C4C87FDCF547 DUP2 MSTORE PUSH1 0x20 ADD PUSH32 0x2FF127EE998BD98B2ADBCC7BCF174191182F7C6A621AC46910BF4867347EDC14 DUP2 MSTORE PUSH1 0x20 ADD PUSH32 0x11B6A7410E205A57E2536F0977A17E85E5F941B7ADC15D111C0737984A278CD7 DUP2 MSTORE PUSH1 0x20 ADD PUSH32 0x151E70F61C2B5C0165B62A9CD648B6B49D9733B07FE02DF5AE4DEAF77EFE56C8 DUP2 MSTORE PUSH1 0x20 ADD PUSH32 0x22BA4329810639D735B295A9E8648D7E34851C135E6A94E742597D0DC99093DD DUP2 MSTORE PUSH1 0x20 ADD PUSH32 0x2151D31159162E67BD628085C9947AEC27B1AA2135E81943B28A0083B4BCB68D DUP2 MSTORE PUSH1 0x20 ADD PUSH32 0xC76BBEC76CB006CCD76A5503448DCC7C7AE80F890DF4E63DF07C47C16BC9A69 DUP2 MSTORE PUSH1 0x20 ADD PUSH32 0x1D6CEDA71A17D701E3EBBCBB51F21289C6D358E0453C4991A67C1BAF37C41FC9 DUP2 MSTORE PUSH1 0x20 ADD PUSH32 0x118BDA3788E835DFF55CBBE4227E33E0C16DF832A5086A9E0E0AF1D9920FA072 DUP2 MSTORE PUSH1 0x20 ADD PUSH32 0x20F612096D0E9EE8F6AFA12C4D30C3DE302E46FBEA8452B092CB2A14A51F4B78 DUP2 MSTORE PUSH1 0x20 ADD PUSH32 0xEF0668A61B2407E138D2DB6BECE20A4D1D4748EFB39C2F6A76EB7090CF5A24D DUP2 MSTORE PUSH1 0x20 ADD PUSH32 0x1C68D162F18F5C326C505F15F6710B842CFF82CC125D4CF4CE41D2ADC3C41EDE DUP2 MSTORE PUSH1 0x20 ADD PUSH32 0x15092B3F5C6E118CC6518DBD78130C6BF633829411C5C8E93A33C8F8B0F2F24F DUP2 MSTORE PUSH1 0x20 ADD PUSH32 0x2088F01E02D62D0B37A859A657E42032A5C9A189C790978877BBC789E01DF357 DUP2 MSTORE PUSH1 0x20 ADD PUSH32 0x124C2F64042235E28C192180C0BCE808183CDE7AEC26CE2A60BCAB2EF2DE1B8B DUP2 MSTORE PUSH1 0x20 ADD PUSH32 0x2429F148E681404783FB448D28D5B23777856568E5CFBAB16902C3D825D706E DUP2 MSTORE PUSH1 0x20 ADD PUSH32 0x1863F247DEA2BC3872F3B6786D7DB0D99810A7E1237B6F607BD18C8701B700B4 DUP2 MSTORE PUSH1 0x20 ADD PUSH32 0x1E73726594D8B4D592039F71679896D41761D0E346C982310C736B96FD2A3B69 DUP2 MSTORE PUSH1 0x20 ADD PUSH32 0x11734C5F7F1175C112E9EAE54076DF4ED7348C938487A57FD0C1C461F103D8CA DUP2 MSTORE PUSH1 0x20 ADD PUSH32 0x2257BA20D6D1DB7839CD8D0E72F64564FDE0688991ADD50450289471A4F0FA37 DUP2 MSTORE PUSH1 0x20 ADD PUSH32 0x1CDAC5B7698F7878F24BC60E3E4DF9030A18204F73E3A135E5B45302A359805A DUP2 MSTORE PUSH1 0x20 ADD PUSH32 0xD2108F8F26A1A1AEF9C31F81632208F34E442654A2093E2A3ACBDD1DA7EC024 DUP2 MSTORE PUSH1 0x20 ADD PUSH32 0x2BC97F19326FC924FCDA4FE0EC205F66165AE0F39B8A34CDFC2DEEA3835F56F3 DUP2 MSTORE PUSH1 0x20 ADD PUSH32 0x1C711FEA1F593F068FC1A8965548F6B4DA36F248914B5FDA56E97CCE9B0B2EC5 DUP2 MSTORE PUSH1 0x20 ADD PUSH32 0x1B1B24AC8AA9F3229F75ECCB7D16B86DA8563BAD2CDA601DEF5C9080452D2A47 DUP2 MSTORE PUSH1 0x20 ADD PUSH32 0x2E9B3CE02D01BB443A4315E4DE7E1388FA90EC63200A62E07F36137C68D8212D DUP2 MSTORE PUSH1 0x20 ADD PUSH32 0x2FB08041E23B4F9FA04D0D0CFA461F1E871763CCE3D6B71252FE7D417A75CC18 DUP2 MSTORE PUSH1 0x20 ADD PUSH31 0x800CB48D12D98948DBCEF6C053A1EF262D7CD093DD847308E0313C7ACD6BE7 DUP2 MSTORE PUSH1 0x20 ADD PUSH32 0x2E287D2A4EF6ACA672590ED58686C78E91395F2101D7495BA8C2541FF8A67CCE DUP2 MSTORE PUSH1 0x20 ADD PUSH32 0x144A442E4C494F9C9BBAE7D39FB87DF6C4F3155C77EF257CB5054097CC082197 DUP2 MSTORE PUSH1 0x20 ADD PUSH32 0x3035D908ECB10844885144E69E5D3FBE5D29748D1A4F886B0BB052B737A342E0 DUP2 MSTORE PUSH1 0x20 ADD PUSH32 0x24035C69EC713397270C63BED7D4D3968E2AA671E5518E4AE46B0529DF5B361D DUP2 MSTORE PUSH1 0x20 ADD PUSH32 0x26F733617E30CC35B2A565D321BB40B4F120B1097F3F28100987E2E235C6BE85 DUP2 MSTORE PUSH1 0x20 ADD PUSH32 0x21AAC9D466CBF97709887D44FDC0189C6757EBD2228795F23F700DFD5F45F805 DUP2 MSTORE PUSH1 0x20 ADD PUSH32 0x7491CCD643E4A420081BE79B89273EFC11A6C07406EC0047971DF979F4B711B DUP2 MSTORE PUSH1 0x20 ADD PUSH32 0xC44669879D7D3A0D5FECE9DB8C027B9009FDBEB9B9C0330A5C2CA74A8154DFF DUP2 MSTORE PUSH1 0x20 ADD PUSH32 0x2CA6B5FB21A082DDE700929EF7CBD301D9330A502153F3E3F9B80F8314799230 DUP2 MSTORE POP PUSH1 0x0 SWAP1 PUSH1 0x81 PUSH2 0x1322 SWAP3 SWAP2 SWAP1 PUSH2 0x27EB JUMP JUMPDEST POP PUSH1 0x40 MLOAD DUP1 PUSH2 0x1020 ADD PUSH1 0x40 MSTORE DUP1 PUSH1 0x2 DUP2 MSTORE PUSH1 0x20 ADD PUSH32 0x2D5CBA37DE100449B4A704CF146A4E1FA4E35A775B0978DAC606AF22EE086C14 DUP2 MSTORE PUSH1 0x20 ADD PUSH32 0x1D1766D6EB8AD6899AA76215FBC72C7C815CDF4FA5B94824B214D33A81441647 DUP2 MSTORE PUSH1 0x20 ADD PUSH32 0x3047FA8D988DD0FFB58A3D397C05FEBC29ADC880FA1740D4BA37392593EAB87D DUP2 MSTORE PUSH1 0x20 ADD PUSH32 0x149769B4009BA286C3BF68B9EF89EA3DF3722C0F2C02A7E733286671BB340E17 DUP2 MSTORE PUSH1 0x20 ADD PUSH32 0x1A47C465665F82AB95677A0E38E0B5C5AA3E79E9EFF490941B8C426623822DA0 DUP2 MSTORE PUSH1 0x20 ADD PUSH32 0x1DC22078116B8ED7FD2E5F257FABB07309522D378318F5B85413CA6F96B25E32 DUP2 MSTORE PUSH1 0x20 ADD PUSH32 0x2E80A8E528E16D94F043FE10F07F41B68DB811EDEA59B24C598F3427F8C72AEB DUP2 MSTORE PUSH1 0x20 ADD PUSH32 0x6A10CD14A0F266976FD8979B6E28278D9611DF51FFEF4F91388142AA90E35EE DUP2 MSTORE PUSH1 0x20 ADD PUSH32 0x26652FC097AF0B4D90F17396336CFC2B79A1D6884BB8106198E47A4ADCF7336A DUP2 MSTORE PUSH1 0x20 ADD PUSH32 0x27A212A6246A5B985EE7053BE49EFC820BA3755704E4EEFF72C910BA6BF569C6 DUP2 MSTORE PUSH1 0x20 ADD PUSH32 0x1E314E6119E215D2AB5169AE96675810519D002CB38E723810AC55FC583C781C DUP2 MSTORE PUSH1 0x20 ADD PUSH32 0xB1ADA68373F226D74A1CA1D7639D9A4E1ABBE59150C742FF9AF5E5486DD3F1B DUP2 MSTORE PUSH1 0x20 ADD PUSH32 0x12AEE19F60CDD2F7A7200CED5E87D38A834DC9E629CB449EAD29269F99FD3D0E DUP2 MSTORE PUSH1 0x20 ADD PUSH32 0x1690B5E0E2541F332FC381762D43D500ED8B07F89B653AC604B99F53765833E2 DUP2 MSTORE PUSH1 0x20 ADD PUSH32 0x19EBB23A6A6CE9A3DD172AD0D2E4D24C4731C5D106946237CEDA98F15DCF1592 DUP2 MSTORE PUSH1 0x20 ADD PUSH32 0x11D516516D35854D291E2D6F8AF84D044C43D3C8B2024FC6E27862BF1230E63A DUP2 MSTORE PUSH1 0x20 ADD PUSH32 0x20E4336D023D9CCECF62430EF5EC71D25AFBE398CEAEA9F25756FD78D1FB2835 DUP2 MSTORE PUSH1 0x20 ADD PUSH32 0xD1C520EB24243A6E668A3EF57B0D73F8ECC310C2D91D7A8B44690F05C63C873 DUP2 MSTORE PUSH1 0x20 ADD PUSH32 0x2760789DF6ED04A45BB374F700A984790661D72E0B3EC10DA401BA737A1C35E7 DUP2 MSTORE PUSH1 0x20 ADD PUSH32 0x17AE69C9F9D9F62D9BE2BBA4BCAC172ADB630378C7AA702BF93CE64D3007753 DUP2 MSTORE PUSH1 0x20 ADD PUSH32 0x1E8BE147B24481E83BEABB209E37F1414AC0F6163C44319A65B82C0DDDA82CDA DUP2 MSTORE PUSH1 0x20 ADD PUSH32 0x8D2D8D6685AC4D7CB56F03E17679FE4B5AAB0953F9F1CCD67B509A57EE511FB DUP2 MSTORE PUSH1 0x20 ADD PUSH32 0x157BDAD8593045C65705E274BB9D0559A7E3331F90E5B86F4F100C61DA9AD3B5 DUP2 MSTORE PUSH1 0x20 ADD PUSH32 0x2CE8FFAD132CDAD32966587F2BCE541451754A53B5A212FB7CFDF70AEF39FF3C DUP2 MSTORE PUSH1 0x20 ADD PUSH32 0x2D822F93CC4BD0EAB8996734CEE63ECFAF2CFE76DE6D247579DD2C66FEE532B9 DUP2 MSTORE PUSH1 0x20 ADD PUSH32 0x7C038C058F7B6E8FFF220758849F8AC5E5975EF541E07C22C7F43456C012295 DUP2 MSTORE PUSH1 0x20 ADD PUSH32 0x2427978F5E9472976B5EAA97BBF6B2755450FBB5354181DFD6E71E15E9E2FFBE DUP2 MSTORE PUSH1 0x20 ADD PUSH32 0x1D599933E905C6ECAEC12316EFE9DE0F838202F322798AF444B404A507575465 DUP2 MSTORE PUSH1 0x20 ADD PUSH32 0x11B815533A46BF46479315A3968E8DDEEFB559F2768844E7B8D4A09E29AE85BF DUP2 MSTORE PUSH1 0x20 ADD PUSH32 0xF8E56AA69115451D882F6BD581A1B14B063C25BAC3A494713B9EC507E5A8A8C DUP2 MSTORE PUSH1 0x20 ADD PUSH32 0xA67970AD52392001EC0CCFC6C63176401C03F428628E75624D816E2179D5CE5 DUP2 MSTORE PUSH1 0x20 ADD PUSH32 0xA1F8809F23F000712329EEEBBDAF002F063678A131860966DAE22A612528698 DUP2 MSTORE PUSH1 0x20 ADD PUSH32 0x15E19F0B4B73B2D5D81902612592F9639B84B8C649299194C54E7EEF59BD495C DUP2 MSTORE PUSH1 0x20 ADD PUSH32 0x12930FB964361543C19D8E5AE6047E6758C004874254B62A225EF7D3B70BED41 DUP2 MSTORE PUSH1 0x20 ADD PUSH32 0x1F579AD5A828D4BEFB75B758879A53E5C5B485C5EAB0C0EAA0417088B094BF20 DUP2 MSTORE PUSH1 0x20 ADD PUSH32 0x1CB5F8D5D179DB5994269371FBB59A132E41E283E80F3204487B5AFB7D30FFB4 DUP2 MSTORE PUSH1 0x20 ADD PUSH32 0x25A3D89782F2EA4487BF4E2C9D8D00BD5D081B26130D273B300E5F06590B1718 DUP2 MSTORE PUSH1 0x20 ADD PUSH32 0x1C0BC9A8E12F0225E0A15B7050D9093EBF9C8D10A7DDDC21051C005C50DE88C2 DUP2 MSTORE PUSH1 0x20 ADD PUSH32 0x4C351362D1BA5AAA5639AF13C9CA3AE3A9452519ECE8E9CD1A04CFD7856B2F6 DUP2 MSTORE PUSH1 0x20 ADD PUSH32 0x1F5EB724253D5F59B74FD1DCA99C4B2F759F421571D22EC9902C0D4459DF1E6F DUP2 MSTORE PUSH1 0x20 ADD PUSH31 0x45D1DE9FA72244143F328DFB89F9652B542109082D487CB347B948DC310605 DUP2 MSTORE PUSH1 0x20 ADD PUSH32 0x2F187D4BE3DD9F05A6F462A6AA2381F53FB11C668247A72AF37D9BED25E10721 DUP2 MSTORE PUSH1 0x20 ADD PUSH32 0xF9073543658E3F5FCFB8AA7DF76429D65CA79946FB66E1D7290A2D038DA9C72 DUP2 MSTORE PUSH1 0x20 ADD PUSH32 0x149AA20CE146DBE877EDEFC4EC10D088EB1F92C7A8873C7B56772E2DA887F010 DUP2 MSTORE PUSH1 0x20 ADD PUSH32 0xCEAE61A535D7BC905C6203EB8E421C2BA3ADDF6D5BB739822CE2353C748340F DUP2 MSTORE PUSH1 0x20 ADD PUSH32 0x1B145D1D7D659A7F23A96E0D52B8BA61624484B56B66B847BFC6A884B3ACAAFE DUP2 MSTORE PUSH1 0x20 ADD PUSH32 0x25F29B1BAE3B366E2398ABB7571157B5D52343EF903D4AA82FA76A9C041E923B DUP2 MSTORE PUSH1 0x20 ADD PUSH32 0xD0D8A2B608A7C11E5DEAACBB38581BA9F5F093E0A394AA83DE5D45AA224FF5F DUP2 MSTORE PUSH1 0x20 ADD PUSH32 0xA43B44970FA36DDB115C385DF350F48706D77F2641E17B1EC8EB8FE6EA86DC0 DUP2 MSTORE PUSH1 0x20 ADD PUSH32 0x19F16B73CD232170391B5C09654CF40011204C263B253B487714527A4E3D1331 DUP2 MSTORE PUSH1 0x20 ADD PUSH32 0x872D0852A8EFC8FE2A31192189C431A7D4425887C0391F91423D5E3EA47D873 DUP2 MSTORE PUSH1 0x20 ADD PUSH31 0xB717EB019C15DAF8C2EBF5A3A901197B3955C5236118FEB9AADAA3BF84206D DUP2 MSTORE PUSH1 0x20 ADD PUSH32 0x291C4E7DF058A59BFD82E83CD3BFFB9A2FD72DBBEA166FD6982EF1057EAFD2C8 DUP2 MSTORE PUSH1 0x20 ADD PUSH32 0x15A235802A944021064FC6284132C366AD31BBE9558123BDD6C2D078A8C8E1E DUP2 MSTORE PUSH1 0x20 ADD PUSH32 0x22A73D8429EA8B36B88DF533C5376B04CF3DA473BF20DA9E23FEED2F27BEB959 DUP2 MSTORE PUSH1 0x20 ADD PUSH32 0x2D5711ED390DF1FA1E87F2990B178B35B7E12718F24C57A051F6682B5CAE9358 DUP2 MSTORE PUSH1 0x20 ADD PUSH32 0x15019CAB7966FED1D524A74A25EDE548E4056EFCF9E0F9EB18ADE4C6E300B4D7 DUP2 MSTORE PUSH1 0x20 ADD PUSH32 0x24B2E6F1D24D364908496C72266FFA3D217E563083B3FC938824C183CA2C8236 DUP2 MSTORE PUSH1 0x20 ADD PUSH32 0x1D039CFA26AD29BEF82E74A1DA3634E5430128143022D7E1A2889D4CDBACA7BC DUP2 MSTORE PUSH1 0x20 ADD PUSH32 0x303B4543B0EE763A4613004FA96206297A17F2C5EAC19F53590F08D31B5A97F4 DUP2 MSTORE PUSH1 0x20 ADD PUSH32 0x224BF61E71A3EE0327EB5AF20B1F2718FD1C122BDE7D5BCE8D6CED5CB17DA20E DUP2 MSTORE PUSH1 0x20 ADD PUSH32 0x290CAE27DBE937B9D85B5E615F8C41D43D6CB9F6AC5A3EB3B6EA5CA46F918FE9 DUP2 MSTORE PUSH1 0x20 ADD PUSH32 0x2A254E8BCFC6E7C251E66C109F246ABA1AC47ED20C618CD5E56D3B77078BFB34 DUP2 MSTORE PUSH1 0x20 ADD PUSH32 0x1F4E246AEFA67F3B2680AF0CF06BCA2D0F6601C8BCBB7DB5EA765A1CDFEB25A6 DUP2 MSTORE PUSH1 0x20 ADD PUSH32 0x38F0A9AAF22CD265AD2FAF248AD858A6B72658B4BB58A87DEAFE19580AEDB47 DUP2 MSTORE PUSH1 0x20 ADD PUSH32 0xC20195898635DCD0BABA574BDF883459F85D98E54EC45693A82ED8A941B37CA DUP2 MSTORE PUSH1 0x20 ADD PUSH32 0x234BD122B666C98734E0938CC35698596CD3A12CE346FA206CFC54926878D7A7 DUP2 MSTORE PUSH1 0x20 ADD PUSH32 0x1F2120194205CB2147FCFAF8BE22EDB6001FF7FE2BD5216024644D172BBB2142 DUP2 MSTORE PUSH1 0x20 ADD PUSH31 0xFEA1899D321BD5328EEDFFAAD5CF47D7BDF8201E01E9DBA140050EC205D0BB DUP2 MSTORE PUSH1 0x20 ADD PUSH32 0x11FC36DEE7EEA4EC379423863A4009E79B57837DE3C776C8E376F40B74F45BFF DUP2 MSTORE PUSH1 0x20 ADD PUSH32 0x24758BA34CE9B0F6614E5172CF7BE92EF4907BBD4DF9C65C78BE37F764FEBDB8 DUP2 MSTORE PUSH1 0x20 ADD PUSH32 0xD0584624F800EA25E12064A54AB7FF764CABD521EE9D85A379599CCACB1D050 DUP2 MSTORE PUSH1 0x20 ADD PUSH32 0x279E037ED29FE73E29523201A3DA7BA8461A2A125EA339B5D419F76187C5DAA7 DUP2 MSTORE PUSH1 0x20 ADD PUSH32 0x15B4F4FE52AC379489A0C322D04881582F8D91EC59DF1D2B551F5959F4F73AB4 DUP2 MSTORE PUSH1 0x20 ADD PUSH32 0x148C7412573D5BB7042F7AAB20805D8BB323EAB5780B7D62D20D2CC43D3A056 DUP2 MSTORE PUSH1 0x20 ADD PUSH32 0xF3735F595D4B7C49EFDD21826C0C04418E293F8977F8452C3B5290517DC5F46 DUP2 MSTORE PUSH1 0x20 ADD PUSH32 0x325B26AB0D50BAA0AE526A62085A9D964DB03C45A5925A33AF35F975212261A DUP2 MSTORE PUSH1 0x20 ADD PUSH32 0x28F2718FDF99BA20651857BFE40763A7FDEB0BF51C95C86228E12971DCBA2488 DUP2 MSTORE PUSH1 0x20 ADD PUSH32 0x734B877472354A0ECD5F2A0CC586743B24FA0E62F73FE30E7E03ABA4A6539AD DUP2 MSTORE PUSH1 0x20 ADD PUSH32 0x4043BAC7985131E179843002DDD2BB677007727C1AFCFE0482B3768DD651EC6 DUP2 MSTORE PUSH1 0x20 ADD PUSH32 0xCADF7F6FED14559A71C8120A94986DD15233AA7CBE1833E4A64D1538F7C7545 DUP2 MSTORE PUSH1 0x20 ADD PUSH32 0x288A32405234A5D5808EBDD26216CC3B037C456458CBBC04624245F884CF31EA DUP2 MSTORE PUSH1 0x20 ADD PUSH32 0x2322B693732BCD38A5BC287595C91124243F6E3BFD2589986C82D998D5286089 DUP2 MSTORE PUSH1 0x20 ADD PUSH32 0x12424A6422286C73F44CA4EF472C023DDAFA71CA4AFFF44A188141058980F1D3 DUP2 MSTORE PUSH1 0x20 ADD PUSH32 0x12382B745A02B93C31584E102AEB09D8BD471D33D0ACEC21D6E4478E5AE2AD05 DUP2 MSTORE PUSH1 0x20 ADD PUSH32 0x10A5E23FA88595F036718DB0940504DE24FF70AA93B3113612525B700C730A79 DUP2 MSTORE PUSH1 0x20 ADD PUSH32 0x21D0DA6F54A12FA3590F970017C0CF8314AC5A5F3A31D34EBE504BAF52673993 DUP2 MSTORE PUSH1 0x20 ADD PUSH32 0xC5FDEEF3B5064D8FB28BDB67BF4CF82CCDB21AB8CC3F48DBDE13E2A779086CB DUP2 MSTORE PUSH1 0x20 ADD PUSH32 0x7350301A21BA4C6ED6F0B24DDFEF0641A270BE7271942C4BC5F82078333A4E4 DUP2 MSTORE PUSH1 0x20 ADD PUSH32 0x107D51FCA8445F86C44D3148589C7E829B9E89D4013B3EA0D8CC076935B2029D DUP2 MSTORE PUSH1 0x20 ADD PUSH32 0x2D0C96327FA1F2A9AB6AFECFB7494C60A3345B76C709452624286EBB6BA34225 DUP2 MSTORE PUSH1 0x20 ADD PUSH32 0x282D020250C192491494DC757314F9B6F046E9A084236F770DD5CEA0D8261C7F DUP2 MSTORE PUSH1 0x20 ADD PUSH32 0x1F1D45D529D2ACD871B7DC98A387FFD9C0B172DA7A3E6BD4B70CB70E297F4A37 DUP2 MSTORE PUSH1 0x20 ADD PUSH32 0x1C5F400A637A690B95FCBEFD0A201AD35963F30DA3ED3204BE68FE25257194D3 DUP2 MSTORE PUSH1 0x20 ADD PUSH32 0x6EC73ABE97909B53E2F3B13C04A5EAD3C79A5C5FD1BB1028DEE3AF44E894A76 DUP2 MSTORE PUSH1 0x20 ADD PUSH32 0x173803EC88CB821831BF5B4E95DDB46F048D4F23FFC09216EAFB8FB5157DDE0B DUP2 MSTORE PUSH1 0x20 ADD PUSH32 0x2050A6D610FD945C5C1A93058981803B086B545E7F406185C1B547B9A55D752E DUP2 MSTORE PUSH1 0x20 ADD PUSH32 0x1CFAE703A5336D3624C52AA816B6229FF3EA26E9E0B888A05471D2CC2AB832F9 DUP2 MSTORE PUSH1 0x20 ADD PUSH31 0x920238B751931D557CF04214484958EF1F31248CB424E0F0FB0AC0DD78D113 DUP2 MSTORE PUSH1 0x20 ADD PUSH32 0x19460B7B47698FCCE9A08B0F5C9201993A9AA36E09E4415C9F2269A418BA63F7 DUP2 MSTORE PUSH1 0x20 ADD PUSH32 0xB32BDBD0A569FD886837697C61FC23A3B6B631959DFA787B50271B249CF62BA DUP2 MSTORE PUSH1 0x20 ADD PUSH32 0x27EB8F3F578D0F86145D16E7464119D75FAFF0149C8972DF63E45E3AA9D9BEEF DUP2 MSTORE PUSH1 0x20 ADD PUSH32 0x27F799F1CE2A5ED1E1669BEE620EAB54A6895F7E06C8742BE0B87AF49DB71227 DUP2 MSTORE PUSH1 0x20 ADD PUSH32 0x195BAB2CE40C27C5553815A87D887C5DFF3AF38B5C45D5DC18F39722DD5F1F83 DUP2 MSTORE PUSH1 0x20 ADD PUSH32 0x1C2CAFD5C56F4BE8A93E06EEC3C5FB723D8BFBB64B536CAF13D6AD5873277A85 DUP2 MSTORE PUSH1 0x20 ADD PUSH32 0x1AEA92CA3E59FF975A3913E6CEB5205985617B020F8DF64611A3B87B17791CB DUP2 MSTORE PUSH1 0x20 ADD PUSH32 0xF51D61E0665150867A59AFB240B2065427624B17BECCB46DA3F637262FB3FAA DUP2 MSTORE PUSH1 0x20 ADD PUSH32 0x1F23E3E87C40F7BA850ED06BC775DC9E798D928E14E8E35A2066337F8B85261B DUP2 MSTORE PUSH1 0x20 ADD PUSH32 0x1B296B0C2CA61A7693FCF69C7B5F7483277C4D1078CD5F19DF12F2F494FC9918 DUP2 MSTORE PUSH1 0x20 ADD PUSH32 0x11D4F84493B1BD7F9FB3463B1F1211FAE055700346A966BDC25DCBF8070C4DED DUP2 MSTORE PUSH1 0x20 ADD PUSH32 0x3591B124A5100F4AB1D04F1C8D6DAACDD598C0A7D1CFC2D891DCDF305018F72 DUP2 MSTORE PUSH1 0x20 ADD PUSH32 0x286D0964F98554397ED0378AC62009E57AD0EF010D6C9C14A66CBE5973EBB8D DUP2 MSTORE PUSH1 0x20 ADD PUSH32 0x2915BE98166B8684F23BFE4D5DB880D3094FC6F5A45C77FC604B17B0BE09F71E DUP2 MSTORE PUSH1 0x20 ADD PUSH32 0x5842457076BB32999BB4F18A38A59D9E738AA1A41364D11BE8AE28EA446CB58 DUP2 MSTORE PUSH1 0x20 ADD PUSH32 0xA09416F7BF18562A68D5273973EB673D032695AE1E20A9DB051C74CF72711A8 DUP2 MSTORE PUSH1 0x20 ADD PUSH32 0x9FE21BF0DE83B7359AF8972A1A30534E5E1DE75A61F29DA1EA3F9128F26A392 DUP2 MSTORE PUSH1 0x20 ADD PUSH32 0xDD4FE56A197133B53FEC74610FEB568826781996459722FEC0995A70375A3B8 DUP2 MSTORE PUSH1 0x20 ADD PUSH32 0x2D289E6C918E44CFD81520CB6578B8083F34709902BEE8F67F503F3D602B717F DUP2 MSTORE PUSH1 0x20 ADD PUSH32 0x2533FE6F024CDCA297E6BE92AA60DB3190E53C1CF836E8167AFC6A00EAAECAFB DUP2 MSTORE PUSH1 0x20 ADD PUSH32 0x21571AF0F8A43E057E309CE03136A16D160D947D28BE4EDD398E781BAB6263EB DUP2 MSTORE PUSH1 0x20 ADD PUSH32 0x467DD0C3D1F4DA968D51F662028283F40B9558FD5C649ACFBF4F6D33B5A2A53 DUP2 MSTORE PUSH1 0x20 ADD PUSH32 0x207A62A6D7D9CCA6A9A4985B5AB35BBCEF9E828188EDD26151A7A6F989B5CE11 DUP2 MSTORE PUSH1 0x20 ADD PUSH32 0x2BE4B2D39D059658C55FA506005E7397CB656406E8310C037AB851FBEC892D8C DUP2 MSTORE PUSH1 0x20 ADD PUSH32 0x150946FADEFF878B03D83C015E5C108B115774B0263945922F310AC52B64FC86 DUP2 MSTORE PUSH1 0x20 ADD PUSH32 0x7BE02E86E6904C2E6580F9396A029FE2DF096B53D891DCF57EBC6FBB9935525 DUP2 MSTORE PUSH1 0x20 ADD PUSH32 0x162A19E9D3670993B04862326B2BE2F48DEE94A4B62DF2D08ADDB3FB99E1C301 DUP2 MSTORE PUSH1 0x20 ADD PUSH32 0xF6496A3F2609D24C928B2BA93D9DBEF2CEB1129131CB1A49199BE4C9E13FDDC DUP2 MSTORE PUSH1 0x20 ADD PUSH32 0x2F44AE6EB7EBFB4DCC6A3BEE7A60A5A2CF15818C394A9833D41007D7DA648C0 DUP2 MSTORE POP PUSH1 0x1 SWAP1 PUSH1 0x81 PUSH2 0x2640 SWAP3 SWAP2 SWAP1 PUSH2 0x27EB JUMP JUMPDEST POP PUSH1 0x40 MLOAD DUP1 PUSH1 0x40 ADD PUSH1 0x40 MSTORE DUP1 PUSH32 0x198E9393920D483A7260BFB731FB5D25F1AA493335A9E71297E485B7AEF312C2 DUP2 MSTORE PUSH1 0x20 ADD PUSH32 0x21A808DAD5C50720FB7294745CF4C87812CE0EA76BAA7DF4E922615D1388F25A DUP2 MSTORE POP PUSH1 0x2 SWAP1 PUSH1 0x2 PUSH2 0x26A6 SWAP3 SWAP2 SWAP1 PUSH2 0x2838 JUMP JUMPDEST POP PUSH1 0x40 MLOAD DUP1 PUSH1 0x40 ADD PUSH1 0x40 MSTORE DUP1 PUSH32 0x1800DEEF121F1E76426A00665E5C4479674322D4F75EDADD46DEBD5CD992F6ED DUP2 MSTORE PUSH1 0x20 ADD PUSH32 0x4C5E74C85A87F008A2FEB4B5C8A1E7F9BA9D8EB40EB02E70139C89FB1C505A9 DUP2 MSTORE POP PUSH1 0x3 SWAP1 PUSH1 0x2 PUSH2 0x270C SWAP3 SWAP2 SWAP1 PUSH2 0x2838 JUMP JUMPDEST POP PUSH1 0x40 MLOAD DUP1 PUSH1 0x40 ADD PUSH1 0x40 MSTORE DUP1 PUSH32 0x90689D0585FF075EC9E99AD690C3395BC4B313370B38EF355ACDADCD122975B DUP2 MSTORE PUSH1 0x20 ADD PUSH32 0x204B66D8E1FADC307C35187A6B813BE0B46BA1CD720CD1C4EE5F68D13036B4BA DUP2 MSTORE POP PUSH1 0x4 SWAP1 PUSH1 0x2 PUSH2 0x2772 SWAP3 SWAP2 SWAP1 PUSH2 0x2838 JUMP JUMPDEST POP PUSH1 0x40 MLOAD DUP1 PUSH1 0x40 ADD PUSH1 0x40 MSTORE DUP1 PUSH32 0x12C85EA5DB8C6DEB4AAB71808DCB408FE3D1E7690C43D37B4CE6CC0166FA7DAA DUP2 MSTORE PUSH1 0x20 ADD PUSH32 0x2D58022915FC6BC90E036E858FBC98055084AC7AFF98CCCEB0E3FDE64BC1A084 DUP2 MSTORE POP PUSH1 0x5 SWAP1 PUSH1 0x2 PUSH2 0x27D8 SWAP3 SWAP2 SWAP1 PUSH2 0x2838 JUMP JUMPDEST POP CALLVALUE DUP1 ISZERO PUSH2 0x27E5 JUMPI PUSH1 0x0 DUP1 REVERT JUMPDEST POP PUSH2 0x28A2 JUMP JUMPDEST DUP3 DUP1 SLOAD DUP3 DUP3 SSTORE SWAP1 PUSH1 0x0 MSTORE PUSH1 0x20 PUSH1 0x0 KECCAK256 SWAP1 DUP2 ADD SWAP3 DUP3 ISZERO PUSH2 0x2827 JUMPI SWAP2 PUSH1 0x20 MUL DUP3 ADD JUMPDEST DUP3 DUP2 GT ISZERO PUSH2 0x2826 JUMPI DUP3 MLOAD DUP3 SSTORE SWAP2 PUSH1 0x20 ADD SWAP2 SWAP1 PUSH1 0x1 ADD SWAP1 PUSH2 0x280B JUMP JUMPDEST JUMPDEST POP SWAP1 POP PUSH2 0x2834 SWAP2 SWAP1 PUSH2 0x2885 JUMP JUMPDEST POP SWAP1 JUMP JUMPDEST DUP3 DUP1 SLOAD DUP3 DUP3 SSTORE SWAP1 PUSH1 0x0 MSTORE PUSH1 0x20 PUSH1 0x0 KECCAK256 SWAP1 DUP2 ADD SWAP3 DUP3 ISZERO PUSH2 0x2874 JUMPI SWAP2 PUSH1 0x20 MUL DUP3 ADD JUMPDEST DUP3 DUP2 GT ISZERO PUSH2 0x2873 JUMPI DUP3 MLOAD DUP3 SSTORE SWAP2 PUSH1 0x20 ADD SWAP2 SWAP1 PUSH1 0x1 ADD SWAP1 PUSH2 0x2858 JUMP JUMPDEST JUMPDEST POP SWAP1 POP PUSH2 0x2881 SWAP2 SWAP1 PUSH2 0x2885 JUMP JUMPDEST POP SWAP1 JUMP JUMPDEST JUMPDEST DUP1 DUP3 GT ISZERO PUSH2 0x289E JUMPI PUSH1 0x0 DUP2 PUSH1 0x0 SWAP1 SSTORE POP PUSH1 0x1 ADD PUSH2 0x2886 JUMP JUMPDEST POP SWAP1 JUMP JUMPDEST PUSH2 0x3D1 DUP1 PUSH2 0x28B1 PUSH1 0x0 CODECOPY PUSH1 0x0 RETURN INVALID PUSH1 0x80 PUSH1 0x40 MSTORE CALLVALUE DUP1 ISZERO PUSH2 0x10 JUMPI PUSH1 0x0 DUP1 REVERT JUMPDEST POP PUSH1 0x4 CALLDATASIZE LT PUSH2 0x88 JUMPI PUSH1 0x0 CALLDATALOAD PUSH1 0xE0 SHR DUP1 PUSH4 0x8D532908 GT PUSH2 0x5B JUMPI DUP1 PUSH4 0x8D532908 EQ PUSH2 0x14D JUMPI DUP1 PUSH4 0xA80A0ACA EQ PUSH2 0x16B JUMPI DUP1 PUSH4 0xDD735C0C EQ PUSH2 0x19B JUMPI DUP1 PUSH4 0xE1CCD87A EQ PUSH2 0x1CB JUMPI PUSH2 0x88 JUMP JUMPDEST DUP1 PUSH4 0x82A4770 EQ PUSH2 0x8D JUMPI DUP1 PUSH4 0x71C1441E EQ PUSH2 0xBD JUMPI DUP1 PUSH4 0x7CF50768 EQ PUSH2 0xED JUMPI DUP1 PUSH4 0x82A124F6 EQ PUSH2 0x11D JUMPI JUMPDEST PUSH1 0x0 DUP1 REVERT JUMPDEST PUSH2 0xA7 PUSH1 0x4 DUP1 CALLDATASIZE SUB DUP2 ADD SWAP1 PUSH2 0xA2 SWAP2 SWAP1 PUSH2 0x344 JUMP JUMPDEST PUSH2 0x1E9 JUMP JUMPDEST PUSH1 0x40 MLOAD PUSH2 0xB4 SWAP2 SWAP1 PUSH2 0x380 JUMP JUMPDEST PUSH1 0x40 MLOAD DUP1 SWAP2 SUB SWAP1 RETURN JUMPDEST PUSH2 0xD7 PUSH1 0x4 DUP1 CALLDATASIZE SUB DUP2 ADD SWAP1 PUSH2 0xD2 SWAP2 SWAP1 PUSH2 0x344 JUMP JUMPDEST PUSH2 0x20D JUMP JUMPDEST PUSH1 0x40 MLOAD PUSH2 0xE4 SWAP2 SWAP1 PUSH2 0x380 JUMP JUMPDEST PUSH1 0x40 MLOAD DUP1 SWAP2 SUB SWAP1 RETURN JUMPDEST PUSH2 0x107 PUSH1 0x4 DUP1 CALLDATASIZE SUB DUP2 ADD SWAP1 PUSH2 0x102 SWAP2 SWAP1 PUSH2 0x344 JUMP JUMPDEST PUSH2 0x231 JUMP JUMPDEST PUSH1 0x40 MLOAD PUSH2 0x114 SWAP2 SWAP1 PUSH2 0x380 JUMP JUMPDEST PUSH1 0x40 MLOAD DUP1 SWAP2 SUB SWAP1 RETURN JUMPDEST PUSH2 0x137 PUSH1 0x4 DUP1 CALLDATASIZE SUB DUP2 ADD SWAP1 PUSH2 0x132 SWAP2 SWAP1 PUSH2 0x344 JUMP JUMPDEST PUSH2 0x255 JUMP JUMPDEST PUSH1 0x40 MLOAD PUSH2 0x144 SWAP2 SWAP1 PUSH2 0x380 JUMP JUMPDEST PUSH1 0x40 MLOAD DUP1 SWAP2 SUB SWAP1 RETURN JUMPDEST PUSH2 0x155 PUSH2 0x279 JUMP JUMPDEST PUSH1 0x40 MLOAD PUSH2 0x162 SWAP2 SWAP1 PUSH2 0x380 JUMP JUMPDEST PUSH1 0x40 MLOAD DUP1 SWAP2 SUB SWAP1 RETURN JUMPDEST PUSH2 0x185 PUSH1 0x4 DUP1 CALLDATASIZE SUB DUP2 ADD SWAP1 PUSH2 0x180 SWAP2 SWAP1 PUSH2 0x344 JUMP JUMPDEST PUSH2 0x29D JUMP JUMPDEST PUSH1 0x40 MLOAD PUSH2 0x192 SWAP2 SWAP1 PUSH2 0x380 JUMP JUMPDEST PUSH1 0x40 MLOAD DUP1 SWAP2 SUB SWAP1 RETURN JUMPDEST PUSH2 0x1B5 PUSH1 0x4 DUP1 CALLDATASIZE SUB DUP2 ADD SWAP1 PUSH2 0x1B0 SWAP2 SWAP1 PUSH2 0x344 JUMP JUMPDEST PUSH2 0x2C1 JUMP JUMPDEST PUSH1 0x40 MLOAD PUSH2 0x1C2 SWAP2 SWAP1 PUSH2 0x380 JUMP JUMPDEST PUSH1 0x40 MLOAD DUP1 SWAP2 SUB SWAP1 RETURN JUMPDEST PUSH2 0x1D3 PUSH2 0x2E5 JUMP JUMPDEST PUSH1 0x40 MLOAD PUSH2 0x1E0 SWAP2 SWAP1 PUSH2 0x380 JUMP JUMPDEST PUSH1 0x40 MLOAD DUP1 SWAP2 SUB SWAP1 RETURN JUMPDEST PUSH1 0x1 DUP2 DUP2 SLOAD DUP2 LT PUSH2 0x1F9 JUMPI PUSH1 0x0 DUP1 REVERT JUMPDEST SWAP1 PUSH1 0x0 MSTORE PUSH1 0x20 PUSH1 0x0 KECCAK256 ADD PUSH1 0x0 SWAP2 POP SWAP1 POP SLOAD DUP2 JUMP JUMPDEST PUSH1 0x2 DUP2 DUP2 SLOAD DUP2 LT PUSH2 0x21D JUMPI PUSH1 0x0 DUP1 REVERT JUMPDEST SWAP1 PUSH1 0x0 MSTORE PUSH1 0x20 PUSH1 0x0 KECCAK256 ADD PUSH1 0x0 SWAP2 POP SWAP1 POP SLOAD DUP2 JUMP JUMPDEST PUSH1 0x5 DUP2 DUP2 SLOAD DUP2 LT PUSH2 0x241 JUMPI PUSH1 0x0 DUP1 REVERT JUMPDEST SWAP1 PUSH1 0x0 MSTORE PUSH1 0x20 PUSH1 0x0 KECCAK256 ADD PUSH1 0x0 SWAP2 POP SWAP1 POP SLOAD DUP2 JUMP JUMPDEST PUSH1 0x3 DUP2 DUP2 SLOAD DUP2 LT PUSH2 0x265 JUMPI PUSH1 0x0 DUP1 REVERT JUMPDEST SWAP1 PUSH1 0x0 MSTORE PUSH1 0x20 PUSH1 0x0 KECCAK256 ADD PUSH1 0x0 SWAP2 POP SWAP1 POP SLOAD DUP2 JUMP JUMPDEST PUSH32 0x30644E72E131A029B85045B68181585D97816A916871CA8D3C208C16D87CFD47 DUP2 JUMP JUMPDEST PUSH1 0x4 DUP2 DUP2 SLOAD DUP2 LT PUSH2 0x2AD JUMPI PUSH1 0x0 DUP1 REVERT JUMPDEST SWAP1 PUSH1 0x0 MSTORE PUSH1 0x20 PUSH1 0x0 KECCAK256 ADD PUSH1 0x0 SWAP2 POP SWAP1 POP SLOAD DUP2 JUMP JUMPDEST PUSH1 0x0 DUP2 DUP2 SLOAD DUP2 LT PUSH2 0x2D1 JUMPI PUSH1 0x0 DUP1 REVERT JUMPDEST SWAP1 PUSH1 0x0 MSTORE PUSH1 0x20 PUSH1 0x0 KECCAK256 ADD PUSH1 0x0 SWAP2 POP SWAP1 POP SLOAD DUP2 JUMP JUMPDEST PUSH32 0x30644E72E131A029B85045B68181585D2833E84879B9709143E1F593F0000001 DUP2 JUMP JUMPDEST PUSH1 0x0 DUP1 REVERT JUMPDEST PUSH1 0x0 DUP2 SWAP1 POP SWAP2 SWAP1 POP JUMP JUMPDEST PUSH2 0x321 DUP2 PUSH2 0x30E JUMP JUMPDEST DUP2 EQ PUSH2 0x32C JUMPI PUSH1 0x0 DUP1 REVERT JUMPDEST POP JUMP JUMPDEST PUSH1 0x0 DUP2 CALLDATALOAD SWAP1 POP PUSH2 0x33E DUP2 PUSH2 0x318 JUMP JUMPDEST SWAP3 SWAP2 POP POP JUMP JUMPDEST PUSH1 0x0 PUSH1 0x20 DUP3 DUP5 SUB SLT ISZERO PUSH2 0x35A JUMPI PUSH2 0x359 PUSH2 0x309 JUMP JUMPDEST JUMPDEST PUSH1 0x0 PUSH2 0x368 DUP5 DUP3 DUP6 ADD PUSH2 0x32F JUMP JUMPDEST SWAP2 POP POP SWAP3 SWAP2 POP POP JUMP JUMPDEST PUSH2 0x37A DUP2 PUSH2 0x30E JUMP JUMPDEST DUP3 MSTORE POP POP JUMP JUMPDEST PUSH1 0x0 PUSH1 0x20 DUP3 ADD SWAP1 POP PUSH2 0x395 PUSH1 0x0 DUP4 ADD DUP5 PUSH2 0x371 JUMP JUMPDEST SWAP3 SWAP2 POP POP JUMP INVALID LOG2 PUSH5 0x6970667358 0x22 SLT KECCAK256 GT DUP7 PUSH31 0x802D97D5877671F770DC1F7116C739C4D6688DA824F3521488F086586F6473 PUSH16 0x6C634300081B00330000000000000000 "
        },
        "methodIdentifiers": {
          "BABYJUB_P()": "e1ccd87a",
          "PRIME_Q()": "8d532908",
          "SRS_G1_X(uint256)": "dd735c0c",
          "SRS_G1_Y(uint256)": "082a4770",
          "SRS_G2_X_0(uint256)": "71c1441e",
          "SRS_G2_X_1(uint256)": "82a124f6",
          "SRS_G2_Y_0(uint256)": "a80a0aca",
          "SRS_G2_Y_1(uint256)": "7cf50768"
        }
      }
    }
  }
}