{
  "contracts/CertCommitment.sol": {
    "CertsCommitment": {
      "abi": [
        {
          "inputs": [
            {
              "internalType": "string",
              "name": "_issuerCN",
              "type": "string"
            },
            {
              "internalType": "string",
              "name": "_batchDesc",
              "type": "string"
            },
            {
              "internalType": "uint256",
              "name": "_commitment0",
              "type": "uint256"
            },
            {
              "internalType": "uint256",
              "name": "_commitment1",
              "type": "uint256"
            },
            {
              "internalType": "uint256",
              "name": "_challengeIndex",
              "type": "uint256"
            },
            {
              "internalType": "uint256",
              "name": "_challengeValue",
              "type": "uint256"
            },
            {
              "internalType": "uint256",
              "name": "_challengeProof0",
              "type": "uint256"
            },
            {
              "internalType": "uint256",
              "name": "_challengeProof1",
              "type": "uint256"
            }
          ],
          "stateMutability": "nonpayable",
          "type": "constructor"
        },
        {
          "inputs": [],
          "name": "batchDesc",
          "outputs": [
            {
              "internalType": "string",
              "name": "",
              "type": "string"
            }
          ],
          "stateMutability": "view",
          "type": "function"
        },
        {
          "inputs": [],
          "name": "challengeIndex",
          "outputs": [
            {
              "internalType": "uint256",
              "name": "",
              "type": "uint256"
            }
          ],
          "stateMutability": "view",
          "type": "function"
        },
        {
          "inputs": [
            {
              "internalType": "uint256",
              "name": "",
              "type": "uint256"
            }
          ],
          "name": "challengeProof",
          "outputs": [
            {
              "internalType": "uint256",
              "name": "",
              "type": "uint256"
            }
          ],
          "stateMutability": "view",
          "type": "function"
        },
        {
          "inputs": [],
          "name": "challengeValue",
          "outputs": [
            {
              "internalType": "uint256",
              "name": "",
              "type": "uint256"
            }
          ],
          "stateMutability": "view",
          "type": "function"
        },
        {
          "inputs": [
            {
              "internalType": "uint256",
              "name": "",
              "type": "uint256"
            }
          ],
          "name": "commitment",
          "outputs": [
            {
              "internalType": "uint256",
              "name": "",
              "type": "uint256"
            }
          ],
          "stateMutability": "view",
          "type": "function"
        },
        {
          "inputs": [
            {
              "internalType": "string",
              "name": "",
              "type": "string"
            }
          ],
          "name": "isRevoked",
          "outputs": [
            {
              "internalType": "bool",
              "name": "",
              "type": "bool"
            }
          ],
          "stateMutability": "view",
          "type": "function"
        },
        {
          "inputs": [],
          "name": "issueTime",
          "outputs": [
            {
              "internalType": "uint256",
              "name": "",
              "type": "uint256"
            }
          ],
          "stateMutability": "view",
          "type": "function"
        },
        {
          "inputs": [],
          "name": "issuer",
          "outputs": [
            {
              "internalType": "address",
              "name": "",
              "type": "address"
            }
          ],
          "stateMutability": "view",
          "type": "function"
        },
        {
          "inputs": [],
          "name": "issuerCN",
          "outputs": [
            {
              "internalType": "string",
              "name": "",
              "type": "string"
            }
          ],
          "stateMutability": "view",
          "type": "function"
        },
        {
          "inputs": [
            {
              "internalType": "string",
              "name": "_hash",
              "type": "string"
            }
          ],
          "name": "revoke",
          "outputs": [],
          "stateMutability": "nonpayable",
          "type": "function"
        }
      ],
      "evm": {
        "bytecode": {
          "linkReferences": {},
          "object": "60806040523480156200001157600080fd5b50604051620011be380380620011be833981810160405281019062000037919062000305565b4260008190555033600160006101000a81548173ffffffffffffffffffffffffffffffffffffffff021916908373ffffffffffffffffffffffffffffffffffffffff16021790555087600290816200009091906200064d565b508660039081620000a291906200064d565b50856004600060028110620000bc57620000bb62000734565b5b0181905550846004600160028110620000da57620000d962000734565b5b0181905550836006819055508260078190555081600860006002811062000106576200010562000734565b5b018190555080600860016002811062000124576200012362000734565b5b0181905550505050505050505062000763565b6000604051905090565b600080fd5b600080fd5b600080fd5b600080fd5b6000601f19601f8301169050919050565b7f4e487b7100000000000000000000000000000000000000000000000000000000600052604160045260246000fd5b620001a08262000155565b810181811067ffffffffffffffff82111715620001c257620001c162000166565b5b80604052505050565b6000620001d762000137565b9050620001e5828262000195565b919050565b600067ffffffffffffffff82111562000208576200020762000166565b5b620002138262000155565b9050602081019050919050565b60005b838110156200024057808201518184015260208101905062000223565b60008484015250505050565b6000620002636200025d84620001ea565b620001cb565b90508281526020810184848401111562000282576200028162000150565b5b6200028f84828562000220565b509392505050565b600082601f830112620002af57620002ae6200014b565b5b8151620002c18482602086016200024c565b91505092915050565b6000819050919050565b620002df81620002ca565b8114620002eb57600080fd5b50565b600081519050620002ff81620002d4565b92915050565b600080600080600080600080610100898b03121562000329576200032862000141565b5b600089015167ffffffffffffffff8111156200034a576200034962000146565b5b620003588b828c0162000297565b985050602089015167ffffffffffffffff8111156200037c576200037b62000146565b5b6200038a8b828c0162000297565b97505060406200039d8b828c01620002ee565b9650506060620003b08b828c01620002ee565b9550506080620003c38b828c01620002ee565b94505060a0620003d68b828c01620002ee565b93505060c0620003e98b828c01620002ee565b92505060e0620003fc8b828c01620002ee565b9150509295985092959890939650565b600081519050919050565b7f4e487b7100000000000000000000000000000000000000000000000000000000600052602260045260246000fd5b600060028204905060018216806200045f57607f821691505b60208210810362000475576200047462000417565b5b50919050565b60008190508160005260206000209050919050565b60006020601f8301049050919050565b600082821b905092915050565b600060088302620004df7fffffffffffffffffffffffffffffffffffffffffffffffffffffffffffffffff82620004a0565b620004eb8683620004a0565b95508019841693508086168417925050509392505050565b6000819050919050565b60006200052e620005286200052284620002ca565b62000503565b620002ca565b9050919050565b6000819050919050565b6200054a836200050d565b62000562620005598262000535565b848454620004ad565b825550505050565b600090565b620005796200056a565b620005868184846200053f565b505050565b5b81811015620005ae57620005a26000826200056f565b6001810190506200058c565b5050565b601f821115620005fd57620005c7816200047b565b620005d28462000490565b81016020851015620005e2578190505b620005fa620005f18562000490565b8301826200058b565b50505b505050565b600082821c905092915050565b6000620006226000198460080262000602565b1980831691505092915050565b60006200063d83836200060f565b9150826002028217905092915050565b62000658826200040c565b67ffffffffffffffff81111562000674576200067362000166565b5b62000680825462000446565b6200068d828285620005b2565b600060209050601f831160018114620006c55760008415620006b0578287015190505b620006bc85826200062f565b8655506200072c565b601f198416620006d5866200047b565b60005b82811015620006ff57848901518255600182019150602085019450602081019050620006d8565b868310156200071f57848901516200071b601f8916826200060f565b8355505b6001600288020188555050505b505050505050565b7f4e487b7100000000000000000000000000000000000000000000000000000000600052603260045260246000fd5b610a4b80620007736000396000f3fe608060405234801561001057600080fd5b506004361061009e5760003560e01c8063d685374811610066578063d68537481461015b578063db9f4c5b14610179578063df07b60e14610197578063ea1e11cb146101b5578063fab7dbdd146101e55761009e565b80631d143848146100a357806335168a00146100c157806365b2a863146100f1578063a9b8c5a01461010d578063b7cc6af21461012b575b600080fd5b6100ab610203565b6040516100b89190610542565b60405180910390f35b6100db60048036038101906100d691906106b7565b610229565b6040516100e8919061071b565b60405180910390f35b61010b600480360381019061010691906106b7565b61025f565b005b61011561039d565b60405161012291906107b5565b60405180910390f35b6101456004803603810190610140919061080d565b61042b565b6040516101529190610849565b60405180910390f35b610163610446565b6040516101709190610849565b60405180910390f35b61018161044c565b60405161018e91906107b5565b60405180910390f35b61019f6104da565b6040516101ac9190610849565b60405180910390f35b6101cf60048036038101906101ca919061080d565b6104e0565b6040516101dc9190610849565b60405180910390f35b6101ed6104fb565b6040516101fa9190610849565b60405180910390f35b600160009054906101000a900473ffffffffffffffffffffffffffffffffffffffff1681565b600a818051602081018201805184825260208301602085012081835280955050505050506000915054906101000a900460ff1681565b600160009054906101000a900473ffffffffffffffffffffffffffffffffffffffff1673ffffffffffffffffffffffffffffffffffffffff163373ffffffffffffffffffffffffffffffffffffffff16146102ef576040517f08c379a00000000000000000000000000000000000000000000000000000000081526004016102e6906108b0565b60405180910390fd5b8060011515600a82604051610304919061090c565b908152602001604051809103902060009054906101000a900460ff16151503610362576040517f08c379a000000000000000000000000000000000000000000000000000000000815260040161035990610995565b60405180910390fd5b6001600a83604051610374919061090c565b908152602001604051809103902060006101000a81548160ff0219169083151502179055505050565b600380546103aa906109e4565b80601f01602080910402602001604051908101604052809291908181526020018280546103d6906109e4565b80156104235780601f106103f857610100808354040283529160200191610423565b820191906000526020600020905b81548152906001019060200180831161040657829003601f168201915b505050505081565b6004816002811061043b57600080fd5b016000915090505481565b60065481565b60028054610459906109e4565b80601f0160208091040260200160405190810160405280929190818152602001828054610485906109e4565b80156104d25780601f106104a7576101008083540402835291602001916104d2565b820191906000526020600020905b8154815290600101906020018083116104b557829003601f168201915b505050505081565b60005481565b600881600281106104f057600080fd5b016000915090505481565b60075481565b600073ffffffffffffffffffffffffffffffffffffffff82169050919050565b600061052c82610501565b9050919050565b61053c81610521565b82525050565b60006020820190506105576000830184610533565b92915050565b6000604051905090565b600080fd5b600080fd5b600080fd5b600080fd5b6000601f19601f8301169050919050565b7f4e487b7100000000000000000000000000000000000000000000000000000000600052604160045260246000fd5b6105c48261057b565b810181811067ffffffffffffffff821117156105e3576105e261058c565b5b80604052505050565b60006105f661055d565b905061060282826105bb565b919050565b600067ffffffffffffffff8211156106225761062161058c565b5b61062b8261057b565b9050602081019050919050565b82818337600083830152505050565b600061065a61065584610607565b6105ec565b90508281526020810184848401111561067657610675610576565b5b610681848285610638565b509392505050565b600082601f83011261069e5761069d610571565b5b81356106ae848260208601610647565b91505092915050565b6000602082840312156106cd576106cc610567565b5b600082013567ffffffffffffffff8111156106eb576106ea61056c565b5b6106f784828501610689565b91505092915050565b60008115159050919050565b61071581610700565b82525050565b6000602082019050610730600083018461070c565b92915050565b600081519050919050565b600082825260208201905092915050565b60005b83811015610770578082015181840152602081019050610755565b60008484015250505050565b600061078782610736565b6107918185610741565b93506107a1818560208601610752565b6107aa8161057b565b840191505092915050565b600060208201905081810360008301526107cf818461077c565b905092915050565b6000819050919050565b6107ea816107d7565b81146107f557600080fd5b50565b600081359050610807816107e1565b92915050565b60006020828403121561082357610822610567565b5b6000610831848285016107f8565b91505092915050565b610843816107d7565b82525050565b600060208201905061085e600083018461083a565b92915050565b7f596f7520617265206e6f74207468652069737375657221000000000000000000600082015250565b600061089a601783610741565b91506108a582610864565b602082019050919050565b600060208201905081810360008301526108c98161088d565b9050919050565b600081905092915050565b60006108e682610736565b6108f081856108d0565b9350610900818560208601610752565b80840191505092915050565b600061091882846108db565b915081905092915050565b7f54686973206365727469666963617465206973207265766f6b656420616e642060008201527f63616e6e6f742062652075736521000000000000000000000000000000000000602082015250565b600061097f602e83610741565b915061098a82610923565b604082019050919050565b600060208201905081810360008301526109ae81610972565b9050919050565b7f4e487b7100000000000000000000000000000000000000000000000000000000600052602260045260246000fd5b600060028204905060018216806109fc57607f821691505b602082108103610a0f57610a0e6109b5565b5b5091905056fea2646970667358221220ec15f59d35e190b9a10bde32c6b1b106412f869b89d3465ce96e06ff3a2d384b64736f6c63430008140033",
          "opcodes": "PUSH1 0x80 PUSH1 0x40 MSTORE CALLVALUE DUP1 ISZERO PUSH3 0x11 JUMPI PUSH1 0x0 DUP1 REVERT JUMPDEST POP PUSH1 0x40 MLOAD PUSH3 0x11BE CODESIZE SUB DUP1 PUSH3 0x11BE DUP4 CODECOPY DUP2 DUP2 ADD PUSH1 0x40 MSTORE DUP2 ADD SWAP1 PUSH3 0x37 SWAP2 SWAP1 PUSH3 0x305 JUMP JUMPDEST TIMESTAMP PUSH1 0x0 DUP2 SWAP1 SSTORE POP CALLER PUSH1 0x1 PUSH1 0x0 PUSH2 0x100 EXP DUP2 SLOAD DUP2 PUSH20 0xFFFFFFFFFFFFFFFFFFFFFFFFFFFFFFFFFFFFFFFF MUL NOT AND SWAP1 DUP4 PUSH20 0xFFFFFFFFFFFFFFFFFFFFFFFFFFFFFFFFFFFFFFFF AND MUL OR SWAP1 SSTORE POP DUP8 PUSH1 0x2 SWAP1 DUP2 PUSH3 0x90 SWAP2 SWAP1 PUSH3 0x64D JUMP JUMPDEST POP DUP7 PUSH1 0x3 SWAP1 DUP2 PUSH3 0xA2 SWAP2 SWAP1 PUSH3 0x64D JUMP JUMPDEST POP DUP6 PUSH1 0x4 PUSH1 0x0 PUSH1 0x2 DUP2 LT PUSH3 0xBC JUMPI PUSH3 0xBB PUSH3 0x734 JUMP JUMPDEST JUMPDEST ADD DUP2 SWAP1 SSTORE POP DUP5 PUSH1 0x4 PUSH1 0x1 PUSH1 0x2 DUP2 LT PUSH3 0xDA JUMPI PUSH3 0xD9 PUSH3 0x734 JUMP JUMPDEST JUMPDEST ADD DUP2 SWAP1 SSTORE POP DUP4 PUSH1 0x6 DUP2 SWAP1 SSTORE POP DUP3 PUSH1 0x7 DUP2 SWAP1 SSTORE POP DUP2 PUSH1 0x8 PUSH1 0x0 PUSH1 0x2 DUP2 LT PUSH3 0x106 JUMPI PUSH3 0x105 PUSH3 0x734 JUMP JUMPDEST JUMPDEST ADD DUP2 SWAP1 SSTORE POP DUP1 PUSH1 0x8 PUSH1 0x1 PUSH1 0x2 DUP2 LT PUSH3 0x124 JUMPI PUSH3 0x123 PUSH3 0x734 JUMP JUMPDEST JUMPDEST ADD DUP2 SWAP1 SSTORE POP POP POP POP POP POP POP POP POP PUSH3 0x763 JUMP JUMPDEST PUSH1 0x0 PUSH1 0x40 MLOAD SWAP1 POP SWAP1 JUMP JUMPDEST PUSH1 0x0 DUP1 REVERT JUMPDEST PUSH1 0x0 DUP1 REVERT JUMPDEST PUSH1 0x0 DUP1 REVERT JUMPDEST PUSH1 0x0 DUP1 REVERT JUMPDEST PUSH1 0x0 PUSH1 0x1F NOT PUSH1 0x1F DUP4 ADD AND SWAP1 POP SWAP2 SWAP1 POP JUMP JUMPDEST PUSH32 0x4E487B7100000000000000000000000000000000000000000000000000000000 PUSH1 0x0 MSTORE PUSH1 0x41 PUSH1 0x4 MSTORE PUSH1 0x24 PUSH1 0x0 REVERT JUMPDEST PUSH3 0x1A0 DUP3 PUSH3 0x155 JUMP JUMPDEST DUP2 ADD DUP2 DUP2 LT PUSH8 0xFFFFFFFFFFFFFFFF DUP3 GT OR ISZERO PUSH3 0x1C2 JUMPI PUSH3 0x1C1 PUSH3 0x166 JUMP JUMPDEST JUMPDEST DUP1 PUSH1 0x40 MSTORE POP POP POP JUMP JUMPDEST PUSH1 0x0 PUSH3 0x1D7 PUSH3 0x137 JUMP JUMPDEST SWAP1 POP PUSH3 0x1E5 DUP3 DUP3 PUSH3 0x195 JUMP JUMPDEST SWAP2 SWAP1 POP JUMP JUMPDEST PUSH1 0x0 PUSH8 0xFFFFFFFFFFFFFFFF DUP3 GT ISZERO PUSH3 0x208 JUMPI PUSH3 0x207 PUSH3 0x166 JUMP JUMPDEST JUMPDEST PUSH3 0x213 DUP3 PUSH3 0x155 JUMP JUMPDEST SWAP1 POP PUSH1 0x20 DUP2 ADD SWAP1 POP SWAP2 SWAP1 POP JUMP JUMPDEST PUSH1 0x0 JUMPDEST DUP4 DUP2 LT ISZERO PUSH3 0x240 JUMPI DUP1 DUP3 ADD MLOAD DUP2 DUP5 ADD MSTORE PUSH1 0x20 DUP2 ADD SWAP1 POP PUSH3 0x223 JUMP JUMPDEST PUSH1 0x0 DUP5 DUP5 ADD MSTORE POP POP POP POP JUMP JUMPDEST PUSH1 0x0 PUSH3 0x263 PUSH3 0x25D DUP5 PUSH3 0x1EA JUMP JUMPDEST PUSH3 0x1CB JUMP JUMPDEST SWAP1 POP DUP3 DUP2 MSTORE PUSH1 0x20 DUP2 ADD DUP5 DUP5 DUP5 ADD GT ISZERO PUSH3 0x282 JUMPI PUSH3 0x281 PUSH3 0x150 JUMP JUMPDEST JUMPDEST PUSH3 0x28F DUP5 DUP3 DUP6 PUSH3 0x220 JUMP JUMPDEST POP SWAP4 SWAP3 POP POP POP JUMP JUMPDEST PUSH1 0x0 DUP3 PUSH1 0x1F DUP4 ADD SLT PUSH3 0x2AF JUMPI PUSH3 0x2AE PUSH3 0x14B JUMP JUMPDEST JUMPDEST DUP2 MLOAD PUSH3 0x2C1 DUP5 DUP3 PUSH1 0x20 DUP7 ADD PUSH3 0x24C JUMP JUMPDEST SWAP2 POP POP SWAP3 SWAP2 POP POP JUMP JUMPDEST PUSH1 0x0 DUP2 SWAP1 POP SWAP2 SWAP1 POP JUMP JUMPDEST PUSH3 0x2DF DUP2 PUSH3 0x2CA JUMP JUMPDEST DUP2 EQ PUSH3 0x2EB JUMPI PUSH1 0x0 DUP1 REVERT JUMPDEST POP JUMP JUMPDEST PUSH1 0x0 DUP2 MLOAD SWAP1 POP PUSH3 0x2FF DUP2 PUSH3 0x2D4 JUMP JUMPDEST SWAP3 SWAP2 POP POP JUMP JUMPDEST PUSH1 0x0 DUP1 PUSH1 0x0 DUP1 PUSH1 0x0 DUP1 PUSH1 0x0 DUP1 PUSH2 0x100 DUP10 DUP12 SUB SLT ISZERO PUSH3 0x329 JUMPI PUSH3 0x328 PUSH3 0x141 JUMP JUMPDEST JUMPDEST PUSH1 0x0 DUP10 ADD MLOAD PUSH8 0xFFFFFFFFFFFFFFFF DUP2 GT ISZERO PUSH3 0x34A JUMPI PUSH3 0x349 PUSH3 0x146 JUMP JUMPDEST JUMPDEST PUSH3 0x358 DUP12 DUP3 DUP13 ADD PUSH3 0x297 JUMP JUMPDEST SWAP9 POP POP PUSH1 0x20 DUP10 ADD MLOAD PUSH8 0xFFFFFFFFFFFFFFFF DUP2 GT ISZERO PUSH3 0x37C JUMPI PUSH3 0x37B PUSH3 0x146 JUMP JUMPDEST JUMPDEST PUSH3 0x38A DUP12 DUP3 DUP13 ADD PUSH3 0x297 JUMP JUMPDEST SWAP8 POP POP PUSH1 0x40 PUSH3 0x39D DUP12 DUP3 DUP13 ADD PUSH3 0x2EE JUMP JUMPDEST SWAP7 POP POP PUSH1 0x60 PUSH3 0x3B0 DUP12 DUP3 DUP13 ADD PUSH3 0x2EE JUMP JUMPDEST SWAP6 POP POP PUSH1 0x80 PUSH3 0x3C3 DUP12 DUP3 DUP13 ADD PUSH3 0x2EE JUMP JUMPDEST SWAP5 POP POP PUSH1 0xA0 PUSH3 0x3D6 DUP12 DUP3 DUP13 ADD PUSH3 0x2EE JUMP JUMPDEST SWAP4 POP POP PUSH1 0xC0 PUSH3 0x3E9 DUP12 DUP3 DUP13 ADD PUSH3 0x2EE JUMP JUMPDEST SWAP3 POP POP PUSH1 0xE0 PUSH3 0x3FC DUP12 DUP3 DUP13 ADD PUSH3 0x2EE JUMP JUMPDEST SWAP2 POP POP SWAP3 SWAP6 SWAP9 POP SWAP3 SWAP6 SWAP9 SWAP1 SWAP4 SWAP7 POP JUMP JUMPDEST PUSH1 0x0 DUP2 MLOAD SWAP1 POP SWAP2 SWAP1 POP JUMP JUMPDEST PUSH32 0x4E487B7100000000000000000000000000000000000000000000000000000000 PUSH1 0x0 MSTORE PUSH1 0x22 PUSH1 0x4 MSTORE PUSH1 0x24 PUSH1 0x0 REVERT JUMPDEST PUSH1 0x0 PUSH1 0x2 DUP3 DIV SWAP1 POP PUSH1 0x1 DUP3 AND DUP1 PUSH3 0x45F JUMPI PUSH1 0x7F DUP3 AND SWAP2 POP JUMPDEST PUSH1 0x20 DUP3 LT DUP2 SUB PUSH3 0x475 JUMPI PUSH3 0x474 PUSH3 0x417 JUMP JUMPDEST JUMPDEST POP SWAP2 SWAP1 POP JUMP JUMPDEST PUSH1 0x0 DUP2 SWAP1 POP DUP2 PUSH1 0x0 MSTORE PUSH1 0x20 PUSH1 0x0 KECCAK256 SWAP1 POP SWAP2 SWAP1 POP JUMP JUMPDEST PUSH1 0x0 PUSH1 0x20 PUSH1 0x1F DUP4 ADD DIV SWAP1 POP SWAP2 SWAP1 POP JUMP JUMPDEST PUSH1 0x0 DUP3 DUP3 SHL SWAP1 POP SWAP3 SWAP2 POP POP JUMP JUMPDEST PUSH1 0x0 PUSH1 0x8 DUP4 MUL PUSH3 0x4DF PUSH32 0xFFFFFFFFFFFFFFFFFFFFFFFFFFFFFFFFFFFFFFFFFFFFFFFFFFFFFFFFFFFFFFFF DUP3 PUSH3 0x4A0 JUMP JUMPDEST PUSH3 0x4EB DUP7 DUP4 PUSH3 0x4A0 JUMP JUMPDEST SWAP6 POP DUP1 NOT DUP5 AND SWAP4 POP DUP1 DUP7 AND DUP5 OR SWAP3 POP POP POP SWAP4 SWAP3 POP POP POP JUMP JUMPDEST PUSH1 0x0 DUP2 SWAP1 POP SWAP2 SWAP1 POP JUMP JUMPDEST PUSH1 0x0 PUSH3 0x52E PUSH3 0x528 PUSH3 0x522 DUP5 PUSH3 0x2CA JUMP JUMPDEST PUSH3 0x503 JUMP JUMPDEST PUSH3 0x2CA JUMP JUMPDEST SWAP1 POP SWAP2 SWAP1 POP JUMP JUMPDEST PUSH1 0x0 DUP2 SWAP1 POP SWAP2 SWAP1 POP JUMP JUMPDEST PUSH3 0x54A DUP4 PUSH3 0x50D JUMP JUMPDEST PUSH3 0x562 PUSH3 0x559 DUP3 PUSH3 0x535 JUMP JUMPDEST DUP5 DUP5 SLOAD PUSH3 0x4AD JUMP JUMPDEST DUP3 SSTORE POP POP POP POP JUMP JUMPDEST PUSH1 0x0 SWAP1 JUMP JUMPDEST PUSH3 0x579 PUSH3 0x56A JUMP JUMPDEST PUSH3 0x586 DUP2 DUP5 DUP5 PUSH3 0x53F JUMP JUMPDEST POP POP POP JUMP JUMPDEST JUMPDEST DUP2 DUP2 LT ISZERO PUSH3 0x5AE JUMPI PUSH3 0x5A2 PUSH1 0x0 DUP3 PUSH3 0x56F JUMP JUMPDEST PUSH1 0x1 DUP2 ADD SWAP1 POP PUSH3 0x58C JUMP JUMPDEST POP POP JUMP JUMPDEST PUSH1 0x1F DUP3 GT ISZERO PUSH3 0x5FD JUMPI PUSH3 0x5C7 DUP2 PUSH3 0x47B JUMP JUMPDEST PUSH3 0x5D2 DUP5 PUSH3 0x490 JUMP JUMPDEST DUP2 ADD PUSH1 0x20 DUP6 LT ISZERO PUSH3 0x5E2 JUMPI DUP2 SWAP1 POP JUMPDEST PUSH3 0x5FA PUSH3 0x5F1 DUP6 PUSH3 0x490 JUMP JUMPDEST DUP4 ADD DUP3 PUSH3 0x58B JUMP JUMPDEST POP POP JUMPDEST POP POP POP JUMP JUMPDEST PUSH1 0x0 DUP3 DUP3 SHR SWAP1 POP SWAP3 SWAP2 POP POP JUMP JUMPDEST PUSH1 0x0 PUSH3 0x622 PUSH1 0x0 NOT DUP5 PUSH1 0x8 MUL PUSH3 0x602 JUMP JUMPDEST NOT DUP1 DUP4 AND SWAP2 POP POP SWAP3 SWAP2 POP POP JUMP JUMPDEST PUSH1 0x0 PUSH3 0x63D DUP4 DUP4 PUSH3 0x60F JUMP JUMPDEST SWAP2 POP DUP3 PUSH1 0x2 MUL DUP3 OR SWAP1 POP SWAP3 SWAP2 POP POP JUMP JUMPDEST PUSH3 0x658 DUP3 PUSH3 0x40C JUMP JUMPDEST PUSH8 0xFFFFFFFFFFFFFFFF DUP2 GT ISZERO PUSH3 0x674 JUMPI PUSH3 0x673 PUSH3 0x166 JUMP JUMPDEST JUMPDEST PUSH3 0x680 DUP3 SLOAD PUSH3 0x446 JUMP JUMPDEST PUSH3 0x68D DUP3 DUP3 DUP6 PUSH3 0x5B2 JUMP JUMPDEST PUSH1 0x0 PUSH1 0x20 SWAP1 POP PUSH1 0x1F DUP4 GT PUSH1 0x1 DUP2 EQ PUSH3 0x6C5 JUMPI PUSH1 0x0 DUP5 ISZERO PUSH3 0x6B0 JUMPI DUP3 DUP8 ADD MLOAD SWAP1 POP JUMPDEST PUSH3 0x6BC DUP6 DUP3 PUSH3 0x62F JUMP JUMPDEST DUP7 SSTORE POP PUSH3 0x72C JUMP JUMPDEST PUSH1 0x1F NOT DUP5 AND PUSH3 0x6D5 DUP7 PUSH3 0x47B JUMP JUMPDEST PUSH1 0x0 JUMPDEST DUP3 DUP2 LT ISZERO PUSH3 0x6FF JUMPI DUP5 DUP10 ADD MLOAD DUP3 SSTORE PUSH1 0x1 DUP3 ADD SWAP2 POP PUSH1 0x20 DUP6 ADD SWAP5 POP PUSH1 0x20 DUP2 ADD SWAP1 POP PUSH3 0x6D8 JUMP JUMPDEST DUP7 DUP4 LT ISZERO PUSH3 0x71F JUMPI DUP5 DUP10 ADD MLOAD PUSH3 0x71B PUSH1 0x1F DUP10 AND DUP3 PUSH3 0x60F JUMP JUMPDEST DUP4 SSTORE POP JUMPDEST PUSH1 0x1 PUSH1 0x2 DUP9 MUL ADD DUP9 SSTORE POP POP POP JUMPDEST POP POP POP POP POP POP JUMP JUMPDEST PUSH32 0x4E487B7100000000000000000000000000000000000000000000000000000000 PUSH1 0x0 MSTORE PUSH1 0x32 PUSH1 0x4 MSTORE PUSH1 0x24 PUSH1 0x0 REVERT JUMPDEST PUSH2 0xA4B DUP1 PUSH3 0x773 PUSH1 0x0 CODECOPY PUSH1 0x0 RETURN INVALID PUSH1 0x80 PUSH1 0x40 MSTORE CALLVALUE DUP1 ISZERO PUSH2 0x10 JUMPI PUSH1 0x0 DUP1 REVERT JUMPDEST POP PUSH1 0x4 CALLDATASIZE LT PUSH2 0x9E JUMPI PUSH1 0x0 CALLDATALOAD PUSH1 0xE0 SHR DUP1 PUSH4 0xD6853748 GT PUSH2 0x66 JUMPI DUP1 PUSH4 0xD6853748 EQ PUSH2 0x15B JUMPI DUP1 PUSH4 0xDB9F4C5B EQ PUSH2 0x179 JUMPI DUP1 PUSH4 0xDF07B60E EQ PUSH2 0x197 JUMPI DUP1 PUSH4 0xEA1E11CB EQ PUSH2 0x1B5 JUMPI DUP1 PUSH4 0xFAB7DBDD EQ PUSH2 0x1E5 JUMPI PUSH2 0x9E JUMP JUMPDEST DUP1 PUSH4 0x1D143848 EQ PUSH2 0xA3 JUMPI DUP1 PUSH4 0x35168A00 EQ PUSH2 0xC1 JUMPI DUP1 PUSH4 0x65B2A863 EQ PUSH2 0xF1 JUMPI DUP1 PUSH4 0xA9B8C5A0 EQ PUSH2 0x10D JUMPI DUP1 PUSH4 0xB7CC6AF2 EQ PUSH2 0x12B JUMPI JUMPDEST PUSH1 0x0 DUP1 REVERT JUMPDEST PUSH2 0xAB PUSH2 0x203 JUMP JUMPDEST PUSH1 0x40 MLOAD PUSH2 0xB8 SWAP2 SWAP1 PUSH2 0x542 JUMP JUMPDEST PUSH1 0x40 MLOAD DUP1 SWAP2 SUB SWAP1 RETURN JUMPDEST PUSH2 0xDB PUSH1 0x4 DUP1 CALLDATASIZE SUB DUP2 ADD SWAP1 PUSH2 0xD6 SWAP2 SWAP1 PUSH2 0x6B7 JUMP JUMPDEST PUSH2 0x229 JUMP JUMPDEST PUSH1 0x40 MLOAD PUSH2 0xE8 SWAP2 SWAP1 PUSH2 0x71B JUMP JUMPDEST PUSH1 0x40 MLOAD DUP1 SWAP2 SUB SWAP1 RETURN JUMPDEST PUSH2 0x10B PUSH1 0x4 DUP1 CALLDATASIZE SUB DUP2 ADD SWAP1 PUSH2 0x106 SWAP2 SWAP1 PUSH2 0x6B7 JUMP JUMPDEST PUSH2 0x25F JUMP JUMPDEST STOP JUMPDEST PUSH2 0x115 PUSH2 0x39D JUMP JUMPDEST PUSH1 0x40 MLOAD PUSH2 0x122 SWAP2 SWAP1 PUSH2 0x7B5 JUMP JUMPDEST PUSH1 0x40 MLOAD DUP1 SWAP2 SUB SWAP1 RETURN JUMPDEST PUSH2 0x145 PUSH1 0x4 DUP1 CALLDATASIZE SUB DUP2 ADD SWAP1 PUSH2 0x140 SWAP2 SWAP1 PUSH2 0x80D JUMP JUMPDEST PUSH2 0x42B JUMP JUMPDEST PUSH1 0x40 MLOAD PUSH2 0x152 SWAP2 SWAP1 PUSH2 0x849 JUMP JUMPDEST PUSH1 0x40 MLOAD DUP1 SWAP2 SUB SWAP1 RETURN JUMPDEST PUSH2 0x163 PUSH2 0x446 JUMP JUMPDEST PUSH1 0x40 MLOAD PUSH2 0x170 SWAP2 SWAP1 PUSH2 0x849 JUMP JUMPDEST PUSH1 0x40 MLOAD DUP1 SWAP2 SUB SWAP1 RETURN JUMPDEST PUSH2 0x181 PUSH2 0x44C JUMP JUMPDEST PUSH1 0x40 MLOAD PUSH2 0x18E SWAP2 SWAP1 PUSH2 0x7B5 JUMP JUMPDEST PUSH1 0x40 MLOAD DUP1 SWAP2 SUB SWAP1 RETURN JUMPDEST PUSH2 0x19F PUSH2 0x4DA JUMP JUMPDEST PUSH1 0x40 MLOAD PUSH2 0x1AC SWAP2 SWAP1 PUSH2 0x849 JUMP JUMPDEST PUSH1 0x40 MLOAD DUP1 SWAP2 SUB SWAP1 RETURN JUMPDEST PUSH2 0x1CF PUSH1 0x4 DUP1 CALLDATASIZE SUB DUP2 ADD SWAP1 PUSH2 0x1CA SWAP2 SWAP1 PUSH2 0x80D JUMP JUMPDEST PUSH2 0x4E0 JUMP JUMPDEST PUSH1 0x40 MLOAD PUSH2 0x1DC SWAP2 SWAP1 PUSH2 0x849 JUMP JUMPDEST PUSH1 0x40 MLOAD DUP1 SWAP2 SUB SWAP1 RETURN JUMPDEST PUSH2 0x1ED PUSH2 0x4FB JUMP JUMPDEST PUSH1 0x40 MLOAD PUSH2 0x1FA SWAP2 SWAP1 PUSH2 0x849 JUMP JUMPDEST PUSH1 0x40 MLOAD DUP1 SWAP2 SUB SWAP1 RETURN JUMPDEST PUSH1 0x1 PUSH1 0x0 SWAP1 SLOAD SWAP1 PUSH2 0x100 EXP SWAP1 DIV PUSH20 0xFFFFFFFFFFFFFFFFFFFFFFFFFFFFFFFFFFFFFFFF AND DUP2 JUMP JUMPDEST PUSH1 0xA DUP2 DUP1 MLOAD PUSH1 0x20 DUP2 ADD DUP3 ADD DUP1 MLOAD DUP5 DUP3 MSTORE PUSH1 0x20 DUP4 ADD PUSH1 0x20 DUP6 ADD KECCAK256 DUP2 DUP4 MSTORE DUP1 SWAP6 POP POP POP POP POP POP PUSH1 0x0 SWAP2 POP SLOAD SWAP1 PUSH2 0x100 EXP SWAP1 DIV PUSH1 0xFF AND DUP2 JUMP JUMPDEST PUSH1 0x1 PUSH1 0x0 SWAP1 SLOAD SWAP1 PUSH2 0x100 EXP SWAP1 DIV PUSH20 0xFFFFFFFFFFFFFFFFFFFFFFFFFFFFFFFFFFFFFFFF AND PUSH20 0xFFFFFFFFFFFFFFFFFFFFFFFFFFFFFFFFFFFFFFFF AND CALLER PUSH20 0xFFFFFFFFFFFFFFFFFFFFFFFFFFFFFFFFFFFFFFFF AND EQ PUSH2 0x2EF JUMPI PUSH1 0x40 MLOAD PUSH32 0x8C379A000000000000000000000000000000000000000000000000000000000 DUP2 MSTORE PUSH1 0x4 ADD PUSH2 0x2E6 SWAP1 PUSH2 0x8B0 JUMP JUMPDEST PUSH1 0x40 MLOAD DUP1 SWAP2 SUB SWAP1 REVERT JUMPDEST DUP1 PUSH1 0x1 ISZERO ISZERO PUSH1 0xA DUP3 PUSH1 0x40 MLOAD PUSH2 0x304 SWAP2 SWAP1 PUSH2 0x90C JUMP JUMPDEST SWAP1 DUP2 MSTORE PUSH1 0x20 ADD PUSH1 0x40 MLOAD DUP1 SWAP2 SUB SWAP1 KECCAK256 PUSH1 0x0 SWAP1 SLOAD SWAP1 PUSH2 0x100 EXP SWAP1 DIV PUSH1 0xFF AND ISZERO ISZERO SUB PUSH2 0x362 JUMPI PUSH1 0x40 MLOAD PUSH32 0x8C379A000000000000000000000000000000000000000000000000000000000 DUP2 MSTORE PUSH1 0x4 ADD PUSH2 0x359 SWAP1 PUSH2 0x995 JUMP JUMPDEST PUSH1 0x40 MLOAD DUP1 SWAP2 SUB SWAP1 REVERT JUMPDEST PUSH1 0x1 PUSH1 0xA DUP4 PUSH1 0x40 MLOAD PUSH2 0x374 SWAP2 SWAP1 PUSH2 0x90C JUMP JUMPDEST SWAP1 DUP2 MSTORE PUSH1 0x20 ADD PUSH1 0x40 MLOAD DUP1 SWAP2 SUB SWAP1 KECCAK256 PUSH1 0x0 PUSH2 0x100 EXP DUP2 SLOAD DUP2 PUSH1 0xFF MUL NOT AND SWAP1 DUP4 ISZERO ISZERO MUL OR SWAP1 SSTORE POP POP POP JUMP JUMPDEST PUSH1 0x3 DUP1 SLOAD PUSH2 0x3AA SWAP1 PUSH2 0x9E4 JUMP JUMPDEST DUP1 PUSH1 0x1F ADD PUSH1 0x20 DUP1 SWAP2 DIV MUL PUSH1 0x20 ADD PUSH1 0x40 MLOAD SWAP1 DUP2 ADD PUSH1 0x40 MSTORE DUP1 SWAP3 SWAP2 SWAP1 DUP2 DUP2 MSTORE PUSH1 0x20 ADD DUP3 DUP1 SLOAD PUSH2 0x3D6 SWAP1 PUSH2 0x9E4 JUMP JUMPDEST DUP1 ISZERO PUSH2 0x423 JUMPI DUP1 PUSH1 0x1F LT PUSH2 0x3F8 JUMPI PUSH2 0x100 DUP1 DUP4 SLOAD DIV MUL DUP4 MSTORE SWAP2 PUSH1 0x20 ADD SWAP2 PUSH2 0x423 JUMP JUMPDEST DUP3 ADD SWAP2 SWAP1 PUSH1 0x0 MSTORE PUSH1 0x20 PUSH1 0x0 KECCAK256 SWAP1 JUMPDEST DUP2 SLOAD DUP2 MSTORE SWAP1 PUSH1 0x1 ADD SWAP1 PUSH1 0x20 ADD DUP1 DUP4 GT PUSH2 0x406 JUMPI DUP3 SWAP1 SUB PUSH1 0x1F AND DUP3 ADD SWAP2 JUMPDEST POP POP POP POP POP DUP2 JUMP JUMPDEST PUSH1 0x4 DUP2 PUSH1 0x2 DUP2 LT PUSH2 0x43B JUMPI PUSH1 0x0 DUP1 REVERT JUMPDEST ADD PUSH1 0x0 SWAP2 POP SWAP1 POP SLOAD DUP2 JUMP JUMPDEST PUSH1 0x6 SLOAD DUP2 JUMP JUMPDEST PUSH1 0x2 DUP1 SLOAD PUSH2 0x459 SWAP1 PUSH2 0x9E4 JUMP JUMPDEST DUP1 PUSH1 0x1F ADD PUSH1 0x20 DUP1 SWAP2 DIV MUL PUSH1 0x20 ADD PUSH1 0x40 MLOAD SWAP1 DUP2 ADD PUSH1 0x40 MSTORE DUP1 SWAP3 SWAP2 SWAP1 DUP2 DUP2 MSTORE PUSH1 0x20 ADD DUP3 DUP1 SLOAD PUSH2 0x485 SWAP1 PUSH2 0x9E4 JUMP JUMPDEST DUP1 ISZERO PUSH2 0x4D2 JUMPI DUP1 PUSH1 0x1F LT PUSH2 0x4A7 JUMPI PUSH2 0x100 DUP1 DUP4 SLOAD DIV MUL DUP4 MSTORE SWAP2 PUSH1 0x20 ADD SWAP2 PUSH2 0x4D2 JUMP JUMPDEST DUP3 ADD SWAP2 SWAP1 PUSH1 0x0 MSTORE PUSH1 0x20 PUSH1 0x0 KECCAK256 SWAP1 JUMPDEST DUP2 SLOAD DUP2 MSTORE SWAP1 PUSH1 0x1 ADD SWAP1 PUSH1 0x20 ADD DUP1 DUP4 GT PUSH2 0x4B5 JUMPI DUP3 SWAP1 SUB PUSH1 0x1F AND DUP3 ADD SWAP2 JUMPDEST POP POP POP POP POP DUP2 JUMP JUMPDEST PUSH1 0x0 SLOAD DUP2 JUMP JUMPDEST PUSH1 0x8 DUP2 PUSH1 0x2 DUP2 LT PUSH2 0x4F0 JUMPI PUSH1 0x0 DUP1 REVERT JUMPDEST ADD PUSH1 0x0 SWAP2 POP SWAP1 POP SLOAD DUP2 JUMP JUMPDEST PUSH1 0x7 SLOAD DUP2 JUMP JUMPDEST PUSH1 0x0 PUSH20 0xFFFFFFFFFFFFFFFFFFFFFFFFFFFFFFFFFFFFFFFF DUP3 AND SWAP1 POP SWAP2 SWAP1 POP JUMP JUMPDEST PUSH1 0x0 PUSH2 0x52C DUP3 PUSH2 0x501 JUMP JUMPDEST SWAP1 POP SWAP2 SWAP1 POP JUMP JUMPDEST PUSH2 0x53C DUP2 PUSH2 0x521 JUMP JUMPDEST DUP3 MSTORE POP POP JUMP JUMPDEST PUSH1 0x0 PUSH1 0x20 DUP3 ADD SWAP1 POP PUSH2 0x557 PUSH1 0x0 DUP4 ADD DUP5 PUSH2 0x533 JUMP JUMPDEST SWAP3 SWAP2 POP POP JUMP JUMPDEST PUSH1 0x0 PUSH1 0x40 MLOAD SWAP1 POP SWAP1 JUMP JUMPDEST PUSH1 0x0 DUP1 REVERT JUMPDEST PUSH1 0x0 DUP1 REVERT JUMPDEST PUSH1 0x0 DUP1 REVERT JUMPDEST PUSH1 0x0 DUP1 REVERT JUMPDEST PUSH1 0x0 PUSH1 0x1F NOT PUSH1 0x1F DUP4 ADD AND SWAP1 POP SWAP2 SWAP1 POP JUMP JUMPDEST PUSH32 0x4E487B7100000000000000000000000000000000000000000000000000000000 PUSH1 0x0 MSTORE PUSH1 0x41 PUSH1 0x4 MSTORE PUSH1 0x24 PUSH1 0x0 REVERT JUMPDEST PUSH2 0x5C4 DUP3 PUSH2 0x57B JUMP JUMPDEST DUP2 ADD DUP2 DUP2 LT PUSH8 0xFFFFFFFFFFFFFFFF DUP3 GT OR ISZERO PUSH2 0x5E3 JUMPI PUSH2 0x5E2 PUSH2 0x58C JUMP JUMPDEST JUMPDEST DUP1 PUSH1 0x40 MSTORE POP POP POP JUMP JUMPDEST PUSH1 0x0 PUSH2 0x5F6 PUSH2 0x55D JUMP JUMPDEST SWAP1 POP PUSH2 0x602 DUP3 DUP3 PUSH2 0x5BB JUMP JUMPDEST SWAP2 SWAP1 POP JUMP JUMPDEST PUSH1 0x0 PUSH8 0xFFFFFFFFFFFFFFFF DUP3 GT ISZERO PUSH2 0x622 JUMPI PUSH2 0x621 PUSH2 0x58C JUMP JUMPDEST JUMPDEST PUSH2 0x62B DUP3 PUSH2 0x57B JUMP JUMPDEST SWAP1 POP PUSH1 0x20 DUP2 ADD SWAP1 POP SWAP2 SWAP1 POP JUMP JUMPDEST DUP3 DUP2 DUP4 CALLDATACOPY PUSH1 0x0 DUP4 DUP4 ADD MSTORE POP POP POP JUMP JUMPDEST PUSH1 0x0 PUSH2 0x65A PUSH2 0x655 DUP5 PUSH2 0x607 JUMP JUMPDEST PUSH2 0x5EC JUMP JUMPDEST SWAP1 POP DUP3 DUP2 MSTORE PUSH1 0x20 DUP2 ADD DUP5 DUP5 DUP5 ADD GT ISZERO PUSH2 0x676 JUMPI PUSH2 0x675 PUSH2 0x576 JUMP JUMPDEST JUMPDEST PUSH2 0x681 DUP5 DUP3 DUP6 PUSH2 0x638 JUMP JUMPDEST POP SWAP4 SWAP3 POP POP POP JUMP JUMPDEST PUSH1 0x0 DUP3 PUSH1 0x1F DUP4 ADD SLT PUSH2 0x69E JUMPI PUSH2 0x69D PUSH2 0x571 JUMP JUMPDEST JUMPDEST DUP2 CALLDATALOAD PUSH2 0x6AE DUP5 DUP3 PUSH1 0x20 DUP7 ADD PUSH2 0x647 JUMP JUMPDEST SWAP2 POP POP SWAP3 SWAP2 POP POP JUMP JUMPDEST PUSH1 0x0 PUSH1 0x20 DUP3 DUP5 SUB SLT ISZERO PUSH2 0x6CD JUMPI PUSH2 0x6CC PUSH2 0x567 JUMP JUMPDEST JUMPDEST PUSH1 0x0 DUP3 ADD CALLDATALOAD PUSH8 0xFFFFFFFFFFFFFFFF DUP2 GT ISZERO PUSH2 0x6EB JUMPI PUSH2 0x6EA PUSH2 0x56C JUMP JUMPDEST JUMPDEST PUSH2 0x6F7 DUP5 DUP3 DUP6 ADD PUSH2 0x689 JUMP JUMPDEST SWAP2 POP POP SWAP3 SWAP2 POP POP JUMP JUMPDEST PUSH1 0x0 DUP2 ISZERO ISZERO SWAP1 POP SWAP2 SWAP1 POP JUMP JUMPDEST PUSH2 0x715 DUP2 PUSH2 0x700 JUMP JUMPDEST DUP3 MSTORE POP POP JUMP JUMPDEST PUSH1 0x0 PUSH1 0x20 DUP3 ADD SWAP1 POP PUSH2 0x730 PUSH1 0x0 DUP4 ADD DUP5 PUSH2 0x70C JUMP JUMPDEST SWAP3 SWAP2 POP POP JUMP JUMPDEST PUSH1 0x0 DUP2 MLOAD SWAP1 POP SWAP2 SWAP1 POP JUMP JUMPDEST PUSH1 0x0 DUP3 DUP3 MSTORE PUSH1 0x20 DUP3 ADD SWAP1 POP SWAP3 SWAP2 POP POP JUMP JUMPDEST PUSH1 0x0 JUMPDEST DUP4 DUP2 LT ISZERO PUSH2 0x770 JUMPI DUP1 DUP3 ADD MLOAD DUP2 DUP5 ADD MSTORE PUSH1 0x20 DUP2 ADD SWAP1 POP PUSH2 0x755 JUMP JUMPDEST PUSH1 0x0 DUP5 DUP5 ADD MSTORE POP POP POP POP JUMP JUMPDEST PUSH1 0x0 PUSH2 0x787 DUP3 PUSH2 0x736 JUMP JUMPDEST PUSH2 0x791 DUP2 DUP6 PUSH2 0x741 JUMP JUMPDEST SWAP4 POP PUSH2 0x7A1 DUP2 DUP6 PUSH1 0x20 DUP7 ADD PUSH2 0x752 JUMP JUMPDEST PUSH2 0x7AA DUP2 PUSH2 0x57B JUMP JUMPDEST DUP5 ADD SWAP2 POP POP SWAP3 SWAP2 POP POP JUMP JUMPDEST PUSH1 0x0 PUSH1 0x20 DUP3 ADD SWAP1 POP DUP2 DUP2 SUB PUSH1 0x0 DUP4 ADD MSTORE PUSH2 0x7CF DUP2 DUP5 PUSH2 0x77C JUMP JUMPDEST SWAP1 POP SWAP3 SWAP2 POP POP JUMP JUMPDEST PUSH1 0x0 DUP2 SWAP1 POP SWAP2 SWAP1 POP JUMP JUMPDEST PUSH2 0x7EA DUP2 PUSH2 0x7D7 JUMP JUMPDEST DUP2 EQ PUSH2 0x7F5 JUMPI PUSH1 0x0 DUP1 REVERT JUMPDEST POP JUMP JUMPDEST PUSH1 0x0 DUP2 CALLDATALOAD SWAP1 POP PUSH2 0x807 DUP2 PUSH2 0x7E1 JUMP JUMPDEST SWAP3 SWAP2 POP POP JUMP JUMPDEST PUSH1 0x0 PUSH1 0x20 DUP3 DUP5 SUB SLT ISZERO PUSH2 0x823 JUMPI PUSH2 0x822 PUSH2 0x567 JUMP JUMPDEST JUMPDEST PUSH1 0x0 PUSH2 0x831 DUP5 DUP3 DUP6 ADD PUSH2 0x7F8 JUMP JUMPDEST SWAP2 POP POP SWAP3 SWAP2 POP POP JUMP JUMPDEST PUSH2 0x843 DUP2 PUSH2 0x7D7 JUMP JUMPDEST DUP3 MSTORE POP POP JUMP JUMPDEST PUSH1 0x0 PUSH1 0x20 DUP3 ADD SWAP1 POP PUSH2 0x85E PUSH1 0x0 DUP4 ADD DUP5 PUSH2 0x83A JUMP JUMPDEST SWAP3 SWAP2 POP POP JUMP JUMPDEST PUSH32 0x596F7520617265206E6F74207468652069737375657221000000000000000000 PUSH1 0x0 DUP3 ADD MSTORE POP JUMP JUMPDEST PUSH1 0x0 PUSH2 0x89A PUSH1 0x17 DUP4 PUSH2 0x741 JUMP JUMPDEST SWAP2 POP PUSH2 0x8A5 DUP3 PUSH2 0x864 JUMP JUMPDEST PUSH1 0x20 DUP3 ADD SWAP1 POP SWAP2 SWAP1 POP JUMP JUMPDEST PUSH1 0x0 PUSH1 0x20 DUP3 ADD SWAP1 POP DUP2 DUP2 SUB PUSH1 0x0 DUP4 ADD MSTORE PUSH2 0x8C9 DUP2 PUSH2 0x88D JUMP JUMPDEST SWAP1 POP SWAP2 SWAP1 POP JUMP JUMPDEST PUSH1 0x0 DUP2 SWAP1 POP SWAP3 SWAP2 POP POP JUMP JUMPDEST PUSH1 0x0 PUSH2 0x8E6 DUP3 PUSH2 0x736 JUMP JUMPDEST PUSH2 0x8F0 DUP2 DUP6 PUSH2 0x8D0 JUMP JUMPDEST SWAP4 POP PUSH2 0x900 DUP2 DUP6 PUSH1 0x20 DUP7 ADD PUSH2 0x752 JUMP JUMPDEST DUP1 DUP5 ADD SWAP2 POP POP SWAP3 SWAP2 POP POP JUMP JUMPDEST PUSH1 0x0 PUSH2 0x918 DUP3 DUP5 PUSH2 0x8DB JUMP JUMPDEST SWAP2 POP DUP2 SWAP1 POP SWAP3 SWAP2 POP POP JUMP JUMPDEST PUSH32 0x54686973206365727469666963617465206973207265766F6B656420616E6420 PUSH1 0x0 DUP3 ADD MSTORE PUSH32 0x63616E6E6F742062652075736521000000000000000000000000000000000000 PUSH1 0x20 DUP3 ADD MSTORE POP JUMP JUMPDEST PUSH1 0x0 PUSH2 0x97F PUSH1 0x2E DUP4 PUSH2 0x741 JUMP JUMPDEST SWAP2 POP PUSH2 0x98A DUP3 PUSH2 0x923 JUMP JUMPDEST PUSH1 0x40 DUP3 ADD SWAP1 POP SWAP2 SWAP1 POP JUMP JUMPDEST PUSH1 0x0 PUSH1 0x20 DUP3 ADD SWAP1 POP DUP2 DUP2 SUB PUSH1 0x0 DUP4 ADD MSTORE PUSH2 0x9AE DUP2 PUSH2 0x972 JUMP JUMPDEST SWAP1 POP SWAP2 SWAP1 POP JUMP JUMPDEST PUSH32 0x4E487B7100000000000000000000000000000000000000000000000000000000 PUSH1 0x0 MSTORE PUSH1 0x22 PUSH1 0x4 MSTORE PUSH1 0x24 PUSH1 0x0 REVERT JUMPDEST PUSH1 0x0 PUSH1 0x2 DUP3 DIV SWAP1 POP PUSH1 0x1 DUP3 AND DUP1 PUSH2 0x9FC JUMPI PUSH1 0x7F DUP3 AND SWAP2 POP JUMPDEST PUSH1 0x20 DUP3 LT DUP2 SUB PUSH2 0xA0F JUMPI PUSH2 0xA0E PUSH2 0x9B5 JUMP JUMPDEST JUMPDEST POP SWAP2 SWAP1 POP JUMP INVALID LOG2 PUSH5 0x6970667358 0x22 SLT KECCAK256 0xEC ISZERO CREATE2 SWAP14 CALLDATALOAD 0xE1 SWAP1 0xB9 LOG1 SIGNEXTEND 0xDE ORIGIN 0xC6 0xB1 0xB1 MOD COINBASE 0x2F DUP7 SWAP12 DUP10 0xD3 CHAINID 0x5C 0xE9 PUSH15 0x6FF3A2D384B64736F6C6343000814 STOP CALLER "
        },
        "methodIdentifiers": {
          "batchDesc()": "a9b8c5a0",
          "challengeIndex()": "d6853748",
          "challengeProof(uint256)": "ea1e11cb",
          "challengeValue()": "fab7dbdd",
          "commitment(uint256)": "b7cc6af2",
          "isRevoked(string)": "35168a00",
          "issueTime()": "df07b60e",
          "issuer()": "1d143848",
          "issuerCN()": "db9f4c5b",
          "revoke(string)": "65b2a863"
        }
      }
    }
  }
}