{
  "_format": "hh-sol-artifact-1",
  "contractName": "CertsCommitment",
  "sourceName": "contracts/CertCommitment.sol",
  "abi": [
    {
      "inputs": [
        {
          "internalType": "string",
          "name": "_issuerCN",
          "type": "string"
        },
        {
          "internalType": "string",
          "name": "_batchDesc",
          "type": "string"
        },
        {
          "internalType": "uint256",
          "name": "_commitment0",
          "type": "uint256"
        },
        {
          "internalType": "uint256",
          "name": "_commitment1",
          "type": "uint256"
        },
        {
          "internalType": "uint256",
          "name": "_challengeIndex",
          "type": "uint256"
        },
        {
          "internalType": "uint256",
          "name": "_challengeValue",
          "type": "uint256"
        },
        {
          "internalType": "uint256",
          "name": "_challengeProof0",
          "type": "uint256"
        },
        {
          "internalType": "uint256",
          "name": "_challengeProof1",
          "type": "uint256"
        }
      ],
      "stateMutability": "nonpayable",
      "type": "constructor"
    },
    {
      "inputs": [],
      "name": "batchDesc",
      "outputs": [
        {
          "internalType": "string",
          "name": "",
          "type": "string"
        }
      ],
      "stateMutability": "view",
      "type": "function"
    },
    {
      "inputs": [],
      "name": "challengeIndex",
      "outputs": [
        {
          "internalType": "uint256",
          "name": "",
          "type": "uint256"
        }
      ],
      "stateMutability": "view",
      "type": "function"
    },
    {
      "inputs": [
        {
          "internalType": "uint256",
          "name": "",
          "type": "uint256"
        }
      ],
      "name": "challengeProof",
      "outputs": [
        {
          "internalType": "uint256",
          "name": "",
          "type": "uint256"
        }
      ],
      "stateMutability": "view",
      "type": "function"
    },
    {
      "inputs": [],
      "name": "challengeValue",
      "outputs": [
        {
          "internalType": "uint256",
          "name": "",
          "type": "uint256"
        }
      ],
      "stateMutability": "view",
      "type": "function"
    },
    {
      "inputs": [
        {
          "internalType": "uint256",
          "name": "",
          "type": "uint256"
        }
      ],
      "name": "commitment",
      "outputs": [
        {
          "internalType": "uint256",
          "name": "",
          "type": "uint256"
        }
      ],
      "stateMutability": "view",
      "type": "function"
    },
    {
      "inputs": [],
      "name": "getChallengeProof",
      "outputs": [
        {
          "internalType": "uint256[2]",
          "name": "",
          "type": "uint256[2]"
        }
      ],
      "stateMutability": "view",
      "type": "function"
    },
    {
      "inputs": [],
      "name": "getCommitment",
      "outputs": [
        {
          "internalType": "uint256[2]",
          "name": "",
          "type": "uint256[2]"
        }
      ],
      "stateMutability": "view",
      "type": "function"
    },
    {
      "inputs": [
        {
          "internalType": "string",
          "name": "",
          "type": "string"
        }
      ],
      "name": "isRevoked",
      "outputs": [
        {
          "internalType": "bool",
          "name": "",
          "type": "bool"
        }
      ],
      "stateMutability": "view",
      "type": "function"
    },
    {
      "inputs": [],
      "name": "issueTime",
      "outputs": [
        {
          "internalType": "uint256",
          "name": "",
          "type": "uint256"
        }
      ],
      "stateMutability": "view",
      "type": "function"
    },
    {
      "inputs": [],
      "name": "issuer",
      "outputs": [
        {
          "internalType": "address",
          "name": "",
          "type": "address"
        }
      ],
      "stateMutability": "view",
      "type": "function"
    },
    {
      "inputs": [],
      "name": "issuerCN",
      "outputs": [
        {
          "internalType": "string",
          "name": "",
          "type": "string"
        }
      ],
      "stateMutability": "view",
      "type": "function"
    },
    {
      "inputs": [
        {
          "internalType": "string",
          "name": "_hash",
          "type": "string"
        }
      ],
      "name": "revoke",
      "outputs": [],
      "stateMutability": "nonpayable",
      "type": "function"
    }
  ],
  "bytecode": "0x60806040523480156200001157600080fd5b506040516200138e3803806200138e833981810160405281019062000037919062000305565b4260008190555033600160006101000a81548173ffffffffffffffffffffffffffffffffffffffff021916908373ffffffffffffffffffffffffffffffffffffffff16021790555087600290816200009091906200064d565b508660039081620000a291906200064d565b50856004600060028110620000bc57620000bb62000734565b5b0181905550846004600160028110620000da57620000d962000734565b5b0181905550836006819055508260078190555081600860006002811062000106576200010562000734565b5b018190555080600860016002811062000124576200012362000734565b5b0181905550505050505050505062000763565b6000604051905090565b600080fd5b600080fd5b600080fd5b600080fd5b6000601f19601f8301169050919050565b7f4e487b7100000000000000000000000000000000000000000000000000000000600052604160045260246000fd5b620001a08262000155565b810181811067ffffffffffffffff82111715620001c257620001c162000166565b5b80604052505050565b6000620001d762000137565b9050620001e5828262000195565b919050565b600067ffffffffffffffff82111562000208576200020762000166565b5b620002138262000155565b9050602081019050919050565b60005b838110156200024057808201518184015260208101905062000223565b60008484015250505050565b6000620002636200025d84620001ea565b620001cb565b90508281526020810184848401111562000282576200028162000150565b5b6200028f84828562000220565b509392505050565b600082601f830112620002af57620002ae6200014b565b5b8151620002c18482602086016200024c565b91505092915050565b6000819050919050565b620002df81620002ca565b8114620002eb57600080fd5b50565b600081519050620002ff81620002d4565b92915050565b600080600080600080600080610100898b03121562000329576200032862000141565b5b600089015167ffffffffffffffff8111156200034a576200034962000146565b5b620003588b828c0162000297565b985050602089015167ffffffffffffffff8111156200037c576200037b62000146565b5b6200038a8b828c0162000297565b97505060406200039d8b828c01620002ee565b9650506060620003b08b828c01620002ee565b9550506080620003c38b828c01620002ee565b94505060a0620003d68b828c01620002ee565b93505060c0620003e98b828c01620002ee565b92505060e0620003fc8b828c01620002ee565b9150509295985092959890939650565b600081519050919050565b7f4e487b7100000000000000000000000000000000000000000000000000000000600052602260045260246000fd5b600060028204905060018216806200045f57607f821691505b60208210810362000475576200047462000417565b5b50919050565b60008190508160005260206000209050919050565b60006020601f8301049050919050565b600082821b905092915050565b600060088302620004df7fffffffffffffffffffffffffffffffffffffffffffffffffffffffffffffffff82620004a0565b620004eb8683620004a0565b95508019841693508086168417925050509392505050565b6000819050919050565b60006200052e620005286200052284620002ca565b62000503565b620002ca565b9050919050565b6000819050919050565b6200054a836200050d565b62000562620005598262000535565b848454620004ad565b825550505050565b600090565b620005796200056a565b620005868184846200053f565b505050565b5b81811015620005ae57620005a26000826200056f565b6001810190506200058c565b5050565b601f821115620005fd57620005c7816200047b565b620005d28462000490565b81016020851015620005e2578190505b620005fa620005f18562000490565b8301826200058b565b50505b505050565b600082821c905092915050565b6000620006226000198460080262000602565b1980831691505092915050565b60006200063d83836200060f565b9150826002028217905092915050565b62000658826200040c565b67ffffffffffffffff81111562000674576200067362000166565b5b62000680825462000446565b6200068d828285620005b2565b600060209050601f831160018114620006c55760008415620006b0578287015190505b620006bc85826200062f565b8655506200072c565b601f198416620006d5866200047b565b60005b82811015620006ff57848901518255600182019150602085019450602081019050620006d8565b868310156200071f57848901516200071b601f8916826200060f565b8355505b6001600288020188555050505b505050505050565b7f4e487b7100000000000000000000000000000000000000000000000000000000600052603260045260246000fd5b610c1b80620007736000396000f3fe608060405234801561001057600080fd5b50600436106100b45760003560e01c8063c333a47511610071578063c333a4751461018f578063d6853748146101ad578063db9f4c5b146101cb578063df07b60e146101e9578063ea1e11cb14610207578063fab7dbdd14610237576100b4565b80631d143848146100b95780632a79c611146100d757806335168a00146100f557806365b2a86314610125578063a9b8c5a014610141578063b7cc6af21461015f575b600080fd5b6100c1610255565b6040516100ce919061064c565b60405180910390f35b6100df61027b565b6040516100ec919061071c565b60405180910390f35b61010f600480360381019061010a9190610891565b6102c6565b60405161011c91906108f5565b60405180910390f35b61013f600480360381019061013a9190610891565b6102fc565b005b61014961043a565b604051610156919061098f565b60405180910390f35b610179600480360381019061017491906109dd565b6104c8565b6040516101869190610a19565b60405180910390f35b6101976104e3565b6040516101a4919061071c565b60405180910390f35b6101b561052e565b6040516101c29190610a19565b60405180910390f35b6101d3610534565b6040516101e0919061098f565b60405180910390f35b6101f16105c2565b6040516101fe9190610a19565b60405180910390f35b610221600480360381019061021c91906109dd565b6105c8565b60405161022e9190610a19565b60405180910390f35b61023f6105e3565b60405161024c9190610a19565b60405180910390f35b600160009054906101000a900473ffffffffffffffffffffffffffffffffffffffff1681565b6102836105e9565b60046002806020026040519081016040528092919082600280156102bc576020028201915b8154815260200190600101908083116102a8575b5050505050905090565b600a818051602081018201805184825260208301602085012081835280955050505050506000915054906101000a900460ff1681565b600160009054906101000a900473ffffffffffffffffffffffffffffffffffffffff1673ffffffffffffffffffffffffffffffffffffffff163373ffffffffffffffffffffffffffffffffffffffff161461038c576040517f08c379a000000000000000000000000000000000000000000000000000000000815260040161038390610a80565b60405180910390fd5b8060011515600a826040516103a19190610adc565b908152602001604051809103902060009054906101000a900460ff161515036103ff576040517f08c379a00000000000000000000000000000000000000000000000000000000081526004016103f690610b65565b60405180910390fd5b6001600a836040516104119190610adc565b908152602001604051809103902060006101000a81548160ff0219169083151502179055505050565b6003805461044790610bb4565b80601f016020809104026020016040519081016040528092919081815260200182805461047390610bb4565b80156104c05780601f10610495576101008083540402835291602001916104c0565b820191906000526020600020905b8154815290600101906020018083116104a357829003601f168201915b505050505081565b600481600281106104d857600080fd5b016000915090505481565b6104eb6105e9565b6008600280602002604051908101604052809291908260028015610524576020028201915b815481526020019060010190808311610510575b5050505050905090565b60065481565b6002805461054190610bb4565b80601f016020809104026020016040519081016040528092919081815260200182805461056d90610bb4565b80156105ba5780601f1061058f576101008083540402835291602001916105ba565b820191906000526020600020905b81548152906001019060200180831161059d57829003601f168201915b505050505081565b60005481565b600881600281106105d857600080fd5b016000915090505481565b60075481565b6040518060400160405280600290602082028036833780820191505090505090565b600073ffffffffffffffffffffffffffffffffffffffff82169050919050565b60006106368261060b565b9050919050565b6106468161062b565b82525050565b6000602082019050610661600083018461063d565b92915050565b600060029050919050565b600081905092915050565b6000819050919050565b6000819050919050565b61069a81610687565b82525050565b60006106ac8383610691565b60208301905092915050565b6000602082019050919050565b6106ce81610667565b6106d88184610672565b92506106e38261067d565b8060005b838110156107145781516106fb87826106a0565b9650610706836106b8565b9250506001810190506106e7565b505050505050565b600060408201905061073160008301846106c5565b92915050565b6000604051905090565b600080fd5b600080fd5b600080fd5b600080fd5b6000601f19601f8301169050919050565b7f4e487b7100000000000000000000000000000000000000000000000000000000600052604160045260246000fd5b61079e82610755565b810181811067ffffffffffffffff821117156107bd576107bc610766565b5b80604052505050565b60006107d0610737565b90506107dc8282610795565b919050565b600067ffffffffffffffff8211156107fc576107fb610766565b5b61080582610755565b9050602081019050919050565b82818337600083830152505050565b600061083461082f846107e1565b6107c6565b9050828152602081018484840111156108505761084f610750565b5b61085b848285610812565b509392505050565b600082601f8301126108785761087761074b565b5b8135610888848260208601610821565b91505092915050565b6000602082840312156108a7576108a6610741565b5b600082013567ffffffffffffffff8111156108c5576108c4610746565b5b6108d184828501610863565b91505092915050565b60008115159050919050565b6108ef816108da565b82525050565b600060208201905061090a60008301846108e6565b92915050565b600081519050919050565b600082825260208201905092915050565b60005b8381101561094a57808201518184015260208101905061092f565b60008484015250505050565b600061096182610910565b61096b818561091b565b935061097b81856020860161092c565b61098481610755565b840191505092915050565b600060208201905081810360008301526109a98184610956565b905092915050565b6109ba81610687565b81146109c557600080fd5b50565b6000813590506109d7816109b1565b92915050565b6000602082840312156109f3576109f2610741565b5b6000610a01848285016109c8565b91505092915050565b610a1381610687565b82525050565b6000602082019050610a2e6000830184610a0a565b92915050565b7f596f7520617265206e6f74207468652069737375657221000000000000000000600082015250565b6000610a6a60178361091b565b9150610a7582610a34565b602082019050919050565b60006020820190508181036000830152610a9981610a5d565b9050919050565b600081905092915050565b6000610ab682610910565b610ac08185610aa0565b9350610ad081856020860161092c565b80840191505092915050565b6000610ae88284610aab565b915081905092915050565b7f54686973206365727469666963617465206973207265766f6b656420616e642060008201527f63616e6e6f742062652075736521000000000000000000000000000000000000602082015250565b6000610b4f602e8361091b565b9150610b5a82610af3565b604082019050919050565b60006020820190508181036000830152610b7e81610b42565b9050919050565b7f4e487b7100000000000000000000000000000000000000000000000000000000600052602260045260246000fd5b60006002820490506001821680610bcc57607f821691505b602082108103610bdf57610bde610b85565b5b5091905056fea264697066735822122060d79ccb7f3086f08673923becf6317105204f7598889ae35fc47c7a2863521964736f6c63430008140033",
  "linkReferences": {},
  "deployedLinkReferences": {}
}