{
  "_format": "hh-sol-artifact-1",
  "contractName": "CertsCommitment",
  "sourceName": "contracts/CertCommitment.sol",
  "abi": [
    {
      "inputs": [
        {
          "internalType": "string",
          "name": "_publisherCN",
          "type": "string"
        },
        {
          "internalType": "string",
          "name": "_batchDesc",
          "type": "string"
        },
        {
          "internalType": "string",
          "name": "_r",
          "type": "string"
        },
        {
          "internalType": "string",
          "name": "_s",
          "type": "string"
        },
        {
          "internalType": "string",
          "name": "_recoverParam",
          "type": "string"
        }
      ],
      "stateMutability": "nonpayable",
      "type": "constructor"
    },
    {
      "inputs": [],
      "name": "batchDesc",
      "outputs": [
        {
          "internalType": "string",
          "name": "",
          "type": "string"
        }
      ],
      "stateMutability": "view",
      "type": "function"
    },
    {
      "inputs": [],
      "name": "commitment",
      "outputs": [
        {
          "internalType": "string",
          "name": "_r",
          "type": "string"
        },
        {
          "internalType": "string",
          "name": "_s",
          "type": "string"
        },
        {
          "internalType": "string",
          "name": "_recoverParam",
          "type": "string"
        }
      ],
      "stateMutability": "view",
      "type": "function"
    },
    {
      "inputs": [],
      "name": "deploymentTime",
      "outputs": [
        {
          "internalType": "uint256",
          "name": "",
          "type": "uint256"
        }
      ],
      "stateMutability": "view",
      "type": "function"
    },
    {
      "inputs": [
        {
          "internalType": "string",
          "name": "",
          "type": "string"
        }
      ],
      "name": "isRevoked",
      "outputs": [
        {
          "internalType": "bool",
          "name": "",
          "type": "bool"
        }
      ],
      "stateMutability": "view",
      "type": "function"
    },
    {
      "inputs": [],
      "name": "publisher",
      "outputs": [
        {
          "internalType": "address",
          "name": "",
          "type": "address"
        }
      ],
      "stateMutability": "view",
      "type": "function"
    },
    {
      "inputs": [],
      "name": "publisherCN",
      "outputs": [
        {
          "internalType": "string",
          "name": "",
          "type": "string"
        }
      ],
      "stateMutability": "view",
      "type": "function"
    },
    {
      "inputs": [
        {
          "internalType": "string",
          "name": "_hash",
          "type": "string"
        }
      ],
      "name": "revoke",
      "outputs": [],
      "stateMutability": "nonpayable",
      "type": "function"
    }
  ],
  "bytecode": "0x60806040523480156200001157600080fd5b5060405162001218380380620012188339818101604052810190620000379190620002a8565b42600181905550336000806101000a81548173ffffffffffffffffffffffffffffffffffffffff021916908373ffffffffffffffffffffffffffffffffffffffff16021790555084600290816200008f919062000616565b508360039081620000a1919062000616565b5060405180606001604052808481526020018381526020018281525060046000820151816000019081620000d6919062000616565b506020820151816001019081620000ee919062000616565b50604082015181600201908162000106919062000616565b509050505050505050620006fd565b6000604051905090565b600080fd5b600080fd5b600080fd5b600080fd5b6000601f19601f8301169050919050565b7f4e487b7100000000000000000000000000000000000000000000000000000000600052604160045260246000fd5b6200017e8262000133565b810181811067ffffffffffffffff82111715620001a0576200019f62000144565b5b80604052505050565b6000620001b562000115565b9050620001c3828262000173565b919050565b600067ffffffffffffffff821115620001e657620001e562000144565b5b620001f18262000133565b9050602081019050919050565b60005b838110156200021e57808201518184015260208101905062000201565b60008484015250505050565b6000620002416200023b84620001c8565b620001a9565b90508281526020810184848401111562000260576200025f6200012e565b5b6200026d848285620001fe565b509392505050565b600082601f8301126200028d576200028c62000129565b5b81516200029f8482602086016200022a565b91505092915050565b600080600080600060a08688031215620002c757620002c66200011f565b5b600086015167ffffffffffffffff811115620002e857620002e762000124565b5b620002f68882890162000275565b955050602086015167ffffffffffffffff8111156200031a576200031962000124565b5b620003288882890162000275565b945050604086015167ffffffffffffffff8111156200034c576200034b62000124565b5b6200035a8882890162000275565b935050606086015167ffffffffffffffff8111156200037e576200037d62000124565b5b6200038c8882890162000275565b925050608086015167ffffffffffffffff811115620003b057620003af62000124565b5b620003be8882890162000275565b9150509295509295909350565b600081519050919050565b7f4e487b7100000000000000000000000000000000000000000000000000000000600052602260045260246000fd5b600060028204905060018216806200041e57607f821691505b602082108103620004345762000433620003d6565b5b50919050565b60008190508160005260206000209050919050565b60006020601f8301049050919050565b600082821b905092915050565b6000600883026200049e7fffffffffffffffffffffffffffffffffffffffffffffffffffffffffffffffff826200045f565b620004aa86836200045f565b95508019841693508086168417925050509392505050565b6000819050919050565b6000819050919050565b6000620004f7620004f1620004eb84620004c2565b620004cc565b620004c2565b9050919050565b6000819050919050565b6200051383620004d6565b6200052b6200052282620004fe565b8484546200046c565b825550505050565b600090565b6200054262000533565b6200054f81848462000508565b505050565b5b8181101562000577576200056b60008262000538565b60018101905062000555565b5050565b601f821115620005c65762000590816200043a565b6200059b846200044f565b81016020851015620005ab578190505b620005c3620005ba856200044f565b83018262000554565b50505b505050565b600082821c905092915050565b6000620005eb60001984600802620005cb565b1980831691505092915050565b6000620006068383620005d8565b9150826002028217905092915050565b6200062182620003cb565b67ffffffffffffffff8111156200063d576200063c62000144565b5b62000649825462000405565b620006568282856200057b565b600060209050601f8311600181146200068e576000841562000679578287015190505b620006858582620005f8565b865550620006f5565b601f1984166200069e866200043a565b60005b82811015620006c857848901518255600182019150602085019450602081019050620006a1565b86831015620006e85784890151620006e4601f891682620005d8565b8355505b6001600288020188555050505b505050505050565b610b0b806200070d6000396000f3fe608060405234801561001057600080fd5b506004361061007d5760003560e01c80638c72c54e1161005b5780638c72c54e146100ee578063a9b8c5a01461010c578063b8ac78871461012a578063ecda10f5146101485761007d565b80631303a4841461008257806335168a00146100a257806365b2a863146100d2575b600080fd5b61008a610166565b6040516100999392919061065e565b60405180910390f35b6100bc60048036038101906100b791906107f3565b610316565b6040516100c99190610857565b60405180910390f35b6100ec60048036038101906100e791906107f3565b61034c565b005b6100f6610488565b60405161010391906108b3565b60405180910390f35b6101146104ac565b60405161012191906108ce565b60405180910390f35b61013261053a565b60405161013f91906108ce565b60405180910390f35b6101506105c8565b60405161015d9190610909565b60405180910390f35b600480600001805461017790610953565b80601f01602080910402602001604051908101604052809291908181526020018280546101a390610953565b80156101f05780601f106101c5576101008083540402835291602001916101f0565b820191906000526020600020905b8154815290600101906020018083116101d357829003601f168201915b50505050509080600101805461020590610953565b80601f016020809104026020016040519081016040528092919081815260200182805461023190610953565b801561027e5780601f106102535761010080835404028352916020019161027e565b820191906000526020600020905b81548152906001019060200180831161026157829003601f168201915b50505050509080600201805461029390610953565b80601f01602080910402602001604051908101604052809291908181526020018280546102bf90610953565b801561030c5780601f106102e15761010080835404028352916020019161030c565b820191906000526020600020905b8154815290600101906020018083116102ef57829003601f168201915b5050505050905083565b6007818051602081018201805184825260208301602085012081835280955050505050506000915054906101000a900460ff1681565b60008054906101000a900473ffffffffffffffffffffffffffffffffffffffff1673ffffffffffffffffffffffffffffffffffffffff163373ffffffffffffffffffffffffffffffffffffffff16146103da576040517f08c379a00000000000000000000000000000000000000000000000000000000081526004016103d1906109d0565b60405180910390fd5b80600115156007826040516103ef9190610a2c565b908152602001604051809103902060009054906101000a900460ff1615150361044d576040517f08c379a000000000000000000000000000000000000000000000000000000000815260040161044490610ab5565b60405180910390fd5b600160078360405161045f9190610a2c565b908152602001604051809103902060006101000a81548160ff0219169083151502179055505050565b60008054906101000a900473ffffffffffffffffffffffffffffffffffffffff1681565b600380546104b990610953565b80601f01602080910402602001604051908101604052809291908181526020018280546104e590610953565b80156105325780601f1061050757610100808354040283529160200191610532565b820191906000526020600020905b81548152906001019060200180831161051557829003601f168201915b505050505081565b6002805461054790610953565b80601f016020809104026020016040519081016040528092919081815260200182805461057390610953565b80156105c05780601f10610595576101008083540402835291602001916105c0565b820191906000526020600020905b8154815290600101906020018083116105a357829003601f168201915b505050505081565b60015481565b600081519050919050565b600082825260208201905092915050565b60005b838110156106085780820151818401526020810190506105ed565b60008484015250505050565b6000601f19601f8301169050919050565b6000610630826105ce565b61063a81856105d9565b935061064a8185602086016105ea565b61065381610614565b840191505092915050565b600060608201905081810360008301526106788186610625565b9050818103602083015261068c8185610625565b905081810360408301526106a08184610625565b9050949350505050565b6000604051905090565b600080fd5b600080fd5b600080fd5b600080fd5b7f4e487b7100000000000000000000000000000000000000000000000000000000600052604160045260246000fd5b61070082610614565b810181811067ffffffffffffffff8211171561071f5761071e6106c8565b5b80604052505050565b60006107326106aa565b905061073e82826106f7565b919050565b600067ffffffffffffffff82111561075e5761075d6106c8565b5b61076782610614565b9050602081019050919050565b82818337600083830152505050565b600061079661079184610743565b610728565b9050828152602081018484840111156107b2576107b16106c3565b5b6107bd848285610774565b509392505050565b600082601f8301126107da576107d96106be565b5b81356107ea848260208601610783565b91505092915050565b600060208284031215610809576108086106b4565b5b600082013567ffffffffffffffff811115610827576108266106b9565b5b610833848285016107c5565b91505092915050565b60008115159050919050565b6108518161083c565b82525050565b600060208201905061086c6000830184610848565b92915050565b600073ffffffffffffffffffffffffffffffffffffffff82169050919050565b600061089d82610872565b9050919050565b6108ad81610892565b82525050565b60006020820190506108c860008301846108a4565b92915050565b600060208201905081810360008301526108e88184610625565b905092915050565b6000819050919050565b610903816108f0565b82525050565b600060208201905061091e60008301846108fa565b92915050565b7f4e487b7100000000000000000000000000000000000000000000000000000000600052602260045260246000fd5b6000600282049050600182168061096b57607f821691505b60208210810361097e5761097d610924565b5b50919050565b7f596f7520617265206e6f7420746865207075626c697368657221000000000000600082015250565b60006109ba601a836105d9565b91506109c582610984565b602082019050919050565b600060208201905081810360008301526109e9816109ad565b9050919050565b600081905092915050565b6000610a06826105ce565b610a1081856109f0565b9350610a208185602086016105ea565b80840191505092915050565b6000610a3882846109fb565b915081905092915050565b7f54686973206365727469666963617465206973207265766f6b656420616e642060008201527f63616e6e6f742062652075736521000000000000000000000000000000000000602082015250565b6000610a9f602e836105d9565b9150610aaa82610a43565b604082019050919050565b60006020820190508181036000830152610ace81610a92565b905091905056fea2646970667358221220986784183aa5327298e074e20b1596ff94eb414b5492cca7c74a21629ce6756d64736f6c63430008140033",
  "linkReferences": {},
  "deployedLinkReferences": {}
}