{
  "_format": "hh-sol-artifact-1",
  "contractName": "CertsCommitment",
  "sourceName": "contracts/CertCommitment.sol",
  "abi": [
    {
      "inputs": [
        {
          "internalType": "string",
          "name": "_publisherCN",
          "type": "string"
        },
        {
          "internalType": "string",
          "name": "_batchDesc",
          "type": "string"
        },
        {
          "internalType": "string",
          "name": "_challengeIndex",
          "type": "string"
        },
        {
          "internalType": "string",
          "name": "_r1",
          "type": "string"
        },
        {
          "internalType": "string",
          "name": "_s1",
          "type": "string"
        },
        {
          "internalType": "string",
          "name": "_recoverParam1",
          "type": "string"
        },
        {
          "internalType": "string",
          "name": "_r2",
          "type": "string"
        },
        {
          "internalType": "string",
          "name": "_s2",
          "type": "string"
        },
        {
          "internalType": "string",
          "name": "_recoverParam2",
          "type": "string"
        }
      ],
      "stateMutability": "nonpayable",
      "type": "constructor"
    },
    {
      "inputs": [],
      "name": "batchDesc",
      "outputs": [
        {
          "internalType": "string",
          "name": "",
          "type": "string"
        }
      ],
      "stateMutability": "view",
      "type": "function"
    },
    {
      "inputs": [],
      "name": "challengeIndex",
      "outputs": [
        {
          "internalType": "string",
          "name": "",
          "type": "string"
        }
      ],
      "stateMutability": "view",
      "type": "function"
    },
    {
      "inputs": [],
      "name": "challengeProof",
      "outputs": [
        {
          "internalType": "string",
          "name": "_r",
          "type": "string"
        },
        {
          "internalType": "string",
          "name": "_s",
          "type": "string"
        },
        {
          "internalType": "string",
          "name": "_recoverParam",
          "type": "string"
        }
      ],
      "stateMutability": "view",
      "type": "function"
    },
    {
      "inputs": [],
      "name": "commitment",
      "outputs": [
        {
          "internalType": "string",
          "name": "_r",
          "type": "string"
        },
        {
          "internalType": "string",
          "name": "_s",
          "type": "string"
        },
        {
          "internalType": "string",
          "name": "_recoverParam",
          "type": "string"
        }
      ],
      "stateMutability": "view",
      "type": "function"
    },
    {
      "inputs": [
        {
          "internalType": "string",
          "name": "",
          "type": "string"
        }
      ],
      "name": "isRevoked",
      "outputs": [
        {
          "internalType": "bool",
          "name": "",
          "type": "bool"
        }
      ],
      "stateMutability": "view",
      "type": "function"
    },
    {
      "inputs": [],
      "name": "publishTime",
      "outputs": [
        {
          "internalType": "uint256",
          "name": "",
          "type": "uint256"
        }
      ],
      "stateMutability": "view",
      "type": "function"
    },
    {
      "inputs": [],
      "name": "publisher",
      "outputs": [
        {
          "internalType": "address",
          "name": "",
          "type": "address"
        }
      ],
      "stateMutability": "view",
      "type": "function"
    },
    {
      "inputs": [],
      "name": "publisherCN",
      "outputs": [
        {
          "internalType": "string",
          "name": "",
          "type": "string"
        }
      ],
      "stateMutability": "view",
      "type": "function"
    },
    {
      "inputs": [
        {
          "internalType": "string",
          "name": "_hash",
          "type": "string"
        }
      ],
      "name": "revoke",
      "outputs": [],
      "stateMutability": "nonpayable",
      "type": "function"
    }
  ],
  "bytecode": "0x60806040523480156200001157600080fd5b50604051620015fb380380620015fb833981810160405281019062000037919062000326565b42600181905550336000806101000a81548173ffffffffffffffffffffffffffffffffffffffff021916908373ffffffffffffffffffffffffffffffffffffffff16021790555088600290816200008f919062000767565b508660049081620000a1919062000767565b508760039081620000b3919062000767565b5060405180606001604052808781526020018681526020018581525060056000820151816000019081620000e8919062000767565b50602082015181600101908162000100919062000767565b50604082015181600201908162000118919062000767565b509050506040518060600160405280848152602001838152602001828152506008600082015181600001908162000150919062000767565b50602082015181600101908162000168919062000767565b50604082015181600201908162000180919062000767565b509050505050505050505050506200084e565b6000604051905090565b600080fd5b600080fd5b600080fd5b600080fd5b6000601f19601f8301169050919050565b7f4e487b7100000000000000000000000000000000000000000000000000000000600052604160045260246000fd5b620001fc82620001b1565b810181811067ffffffffffffffff821117156200021e576200021d620001c2565b5b80604052505050565b60006200023362000193565b9050620002418282620001f1565b919050565b600067ffffffffffffffff821115620002645762000263620001c2565b5b6200026f82620001b1565b9050602081019050919050565b60005b838110156200029c5780820151818401526020810190506200027f565b60008484015250505050565b6000620002bf620002b98462000246565b62000227565b905082815260208101848484011115620002de57620002dd620001ac565b5b620002eb8482856200027c565b509392505050565b600082601f8301126200030b576200030a620001a7565b5b81516200031d848260208601620002a8565b91505092915050565b60008060008060008060008060006101208a8c0312156200034c576200034b6200019d565b5b60008a015167ffffffffffffffff8111156200036d576200036c620001a2565b5b6200037b8c828d01620002f3565b99505060208a015167ffffffffffffffff8111156200039f576200039e620001a2565b5b620003ad8c828d01620002f3565b98505060408a015167ffffffffffffffff811115620003d157620003d0620001a2565b5b620003df8c828d01620002f3565b97505060608a015167ffffffffffffffff811115620004035762000402620001a2565b5b620004118c828d01620002f3565b96505060808a015167ffffffffffffffff811115620004355762000434620001a2565b5b620004438c828d01620002f3565b95505060a08a015167ffffffffffffffff811115620004675762000466620001a2565b5b620004758c828d01620002f3565b94505060c08a015167ffffffffffffffff811115620004995762000498620001a2565b5b620004a78c828d01620002f3565b93505060e08a015167ffffffffffffffff811115620004cb57620004ca620001a2565b5b620004d98c828d01620002f3565b9250506101008a015167ffffffffffffffff811115620004fe57620004fd620001a2565b5b6200050c8c828d01620002f3565b9150509295985092959850929598565b600081519050919050565b7f4e487b7100000000000000000000000000000000000000000000000000000000600052602260045260246000fd5b600060028204905060018216806200056f57607f821691505b60208210810362000585576200058462000527565b5b50919050565b60008190508160005260206000209050919050565b60006020601f8301049050919050565b600082821b905092915050565b600060088302620005ef7fffffffffffffffffffffffffffffffffffffffffffffffffffffffffffffffff82620005b0565b620005fb8683620005b0565b95508019841693508086168417925050509392505050565b6000819050919050565b6000819050919050565b600062000648620006426200063c8462000613565b6200061d565b62000613565b9050919050565b6000819050919050565b620006648362000627565b6200067c62000673826200064f565b848454620005bd565b825550505050565b600090565b6200069362000684565b620006a081848462000659565b505050565b5b81811015620006c857620006bc60008262000689565b600181019050620006a6565b5050565b601f8211156200071757620006e1816200058b565b620006ec84620005a0565b81016020851015620006fc578190505b620007146200070b85620005a0565b830182620006a5565b50505b505050565b600082821c905092915050565b60006200073c600019846008026200071c565b1980831691505092915050565b600062000757838362000729565b9150826002028217905092915050565b62000772826200051c565b67ffffffffffffffff8111156200078e576200078d620001c2565b5b6200079a825462000556565b620007a7828285620006cc565b600060209050601f831160018114620007df5760008415620007ca578287015190505b620007d6858262000749565b86555062000846565b601f198416620007ef866200058b565b60005b828110156200081957848901518255600182019150602085019450602081019050620007f2565b8683101562000839578489015162000835601f89168262000729565b8355505b6001600288020188555050505b505050505050565b610d9d806200085e6000396000f3fe608060405234801561001057600080fd5b50600436106100935760003560e01c8063a9b8c5a011610066578063a9b8c5a014610122578063b8ac788714610140578063be644f681461015e578063d68537481461017e578063e467fa801461019c57610093565b80631303a4841461009857806335168a00146100b857806365b2a863146100e85780638c72c54e14610104575b600080fd5b6100a06101ba565b6040516100af939291906108f0565b60405180910390f35b6100d260048036038101906100cd9190610a85565b61036a565b6040516100df9190610ae9565b60405180910390f35b61010260048036038101906100fd9190610a85565b6103a0565b005b61010c6104dc565b6040516101199190610b45565b60405180910390f35b61012a610500565b6040516101379190610b60565b60405180910390f35b61014861058e565b6040516101559190610b60565b60405180910390f35b61016661061c565b604051610175939291906108f0565b60405180910390f35b6101866107cc565b6040516101939190610b60565b60405180910390f35b6101a461085a565b6040516101b19190610b9b565b60405180910390f35b60058060000180546101cb90610be5565b80601f01602080910402602001604051908101604052809291908181526020018280546101f790610be5565b80156102445780601f1061021957610100808354040283529160200191610244565b820191906000526020600020905b81548152906001019060200180831161022757829003601f168201915b50505050509080600101805461025990610be5565b80601f016020809104026020016040519081016040528092919081815260200182805461028590610be5565b80156102d25780601f106102a7576101008083540402835291602001916102d2565b820191906000526020600020905b8154815290600101906020018083116102b557829003601f168201915b5050505050908060020180546102e790610be5565b80601f016020809104026020016040519081016040528092919081815260200182805461031390610be5565b80156103605780601f1061033557610100808354040283529160200191610360565b820191906000526020600020905b81548152906001019060200180831161034357829003601f168201915b5050505050905083565b600b818051602081018201805184825260208301602085012081835280955050505050506000915054906101000a900460ff1681565b60008054906101000a900473ffffffffffffffffffffffffffffffffffffffff1673ffffffffffffffffffffffffffffffffffffffff163373ffffffffffffffffffffffffffffffffffffffff161461042e576040517f08c379a000000000000000000000000000000000000000000000000000000000815260040161042590610c62565b60405180910390fd5b8060011515600b826040516104439190610cbe565b908152602001604051809103902060009054906101000a900460ff161515036104a1576040517f08c379a000000000000000000000000000000000000000000000000000000000815260040161049890610d47565b60405180910390fd5b6001600b836040516104b39190610cbe565b908152602001604051809103902060006101000a81548160ff0219169083151502179055505050565b60008054906101000a900473ffffffffffffffffffffffffffffffffffffffff1681565b6003805461050d90610be5565b80601f016020809104026020016040519081016040528092919081815260200182805461053990610be5565b80156105865780601f1061055b57610100808354040283529160200191610586565b820191906000526020600020905b81548152906001019060200180831161056957829003601f168201915b505050505081565b6002805461059b90610be5565b80601f01602080910402602001604051908101604052809291908181526020018280546105c790610be5565b80156106145780601f106105e957610100808354040283529160200191610614565b820191906000526020600020905b8154815290600101906020018083116105f757829003601f168201915b505050505081565b600880600001805461062d90610be5565b80601f016020809104026020016040519081016040528092919081815260200182805461065990610be5565b80156106a65780601f1061067b576101008083540402835291602001916106a6565b820191906000526020600020905b81548152906001019060200180831161068957829003601f168201915b5050505050908060010180546106bb90610be5565b80601f01602080910402602001604051908101604052809291908181526020018280546106e790610be5565b80156107345780601f1061070957610100808354040283529160200191610734565b820191906000526020600020905b81548152906001019060200180831161071757829003601f168201915b50505050509080600201805461074990610be5565b80601f016020809104026020016040519081016040528092919081815260200182805461077590610be5565b80156107c25780601f10610797576101008083540402835291602001916107c2565b820191906000526020600020905b8154815290600101906020018083116107a557829003601f168201915b5050505050905083565b600480546107d990610be5565b80601f016020809104026020016040519081016040528092919081815260200182805461080590610be5565b80156108525780601f1061082757610100808354040283529160200191610852565b820191906000526020600020905b81548152906001019060200180831161083557829003601f168201915b505050505081565b60015481565b600081519050919050565b600082825260208201905092915050565b60005b8381101561089a57808201518184015260208101905061087f565b60008484015250505050565b6000601f19601f8301169050919050565b60006108c282610860565b6108cc818561086b565b93506108dc81856020860161087c565b6108e5816108a6565b840191505092915050565b6000606082019050818103600083015261090a81866108b7565b9050818103602083015261091e81856108b7565b9050818103604083015261093281846108b7565b9050949350505050565b6000604051905090565b600080fd5b600080fd5b600080fd5b600080fd5b7f4e487b7100000000000000000000000000000000000000000000000000000000600052604160045260246000fd5b610992826108a6565b810181811067ffffffffffffffff821117156109b1576109b061095a565b5b80604052505050565b60006109c461093c565b90506109d08282610989565b919050565b600067ffffffffffffffff8211156109f0576109ef61095a565b5b6109f9826108a6565b9050602081019050919050565b82818337600083830152505050565b6000610a28610a23846109d5565b6109ba565b905082815260208101848484011115610a4457610a43610955565b5b610a4f848285610a06565b509392505050565b600082601f830112610a6c57610a6b610950565b5b8135610a7c848260208601610a15565b91505092915050565b600060208284031215610a9b57610a9a610946565b5b600082013567ffffffffffffffff811115610ab957610ab861094b565b5b610ac584828501610a57565b91505092915050565b60008115159050919050565b610ae381610ace565b82525050565b6000602082019050610afe6000830184610ada565b92915050565b600073ffffffffffffffffffffffffffffffffffffffff82169050919050565b6000610b2f82610b04565b9050919050565b610b3f81610b24565b82525050565b6000602082019050610b5a6000830184610b36565b92915050565b60006020820190508181036000830152610b7a81846108b7565b905092915050565b6000819050919050565b610b9581610b82565b82525050565b6000602082019050610bb06000830184610b8c565b92915050565b7f4e487b7100000000000000000000000000000000000000000000000000000000600052602260045260246000fd5b60006002820490506001821680610bfd57607f821691505b602082108103610c1057610c0f610bb6565b5b50919050565b7f596f7520617265206e6f7420746865207075626c697368657221000000000000600082015250565b6000610c4c601a8361086b565b9150610c5782610c16565b602082019050919050565b60006020820190508181036000830152610c7b81610c3f565b9050919050565b600081905092915050565b6000610c9882610860565b610ca28185610c82565b9350610cb281856020860161087c565b80840191505092915050565b6000610cca8284610c8d565b915081905092915050565b7f54686973206365727469666963617465206973207265766f6b656420616e642060008201527f63616e6e6f742062652075736521000000000000000000000000000000000000602082015250565b6000610d31602e8361086b565b9150610d3c82610cd5565b604082019050919050565b60006020820190508181036000830152610d6081610d24565b905091905056fea2646970667358221220163464f65be08d17986aabca935652dd60c0a10f5ca9027326c1291e0b4735cc64736f6c63430008140033",
  "linkReferences": {},
  "deployedLinkReferences": {}
}