{
  "_format": "hh-sol-artifact-1",
  "contractName": "CertsCommitment",
  "sourceName": "contracts/CertCommitment.sol",
  "abi": [
    {
      "inputs": [
        {
          "internalType": "string",
          "name": "_issuerCN",
          "type": "string"
        },
        {
          "internalType": "string",
          "name": "_batchDesc",
          "type": "string"
        },
        {
          "internalType": "uint256",
          "name": "_commitment0",
          "type": "uint256"
        },
        {
          "internalType": "uint256",
          "name": "_commitment1",
          "type": "uint256"
        },
        {
          "internalType": "uint256",
          "name": "_challengeIndex",
          "type": "uint256"
        },
        {
          "internalType": "uint256",
          "name": "_challengeValue",
          "type": "uint256"
        },
        {
          "internalType": "uint256",
          "name": "_challengeProof0",
          "type": "uint256"
        },
        {
          "internalType": "uint256",
          "name": "_challengeProof1",
          "type": "uint256"
        }
      ],
      "stateMutability": "nonpayable",
      "type": "constructor"
    },
    {
      "inputs": [],
      "name": "batchDesc",
      "outputs": [
        {
          "internalType": "string",
          "name": "",
          "type": "string"
        }
      ],
      "stateMutability": "view",
      "type": "function"
    },
    {
      "inputs": [],
      "name": "challengeIndex",
      "outputs": [
        {
          "internalType": "uint256",
          "name": "",
          "type": "uint256"
        }
      ],
      "stateMutability": "view",
      "type": "function"
    },
    {
      "inputs": [
        {
          "internalType": "uint256",
          "name": "",
          "type": "uint256"
        }
      ],
      "name": "challengeProof",
      "outputs": [
        {
          "internalType": "uint256",
          "name": "",
          "type": "uint256"
        }
      ],
      "stateMutability": "view",
      "type": "function"
    },
    {
      "inputs": [],
      "name": "challengeValue",
      "outputs": [
        {
          "internalType": "uint256",
          "name": "",
          "type": "uint256"
        }
      ],
      "stateMutability": "view",
      "type": "function"
    },
    {
      "inputs": [
        {
          "internalType": "uint256",
          "name": "",
          "type": "uint256"
        }
      ],
      "name": "commitment",
      "outputs": [
        {
          "internalType": "uint256",
          "name": "",
          "type": "uint256"
        }
      ],
      "stateMutability": "view",
      "type": "function"
    },
    {
      "inputs": [
        {
          "internalType": "string",
          "name": "",
          "type": "string"
        }
      ],
      "name": "isRevoked",
      "outputs": [
        {
          "internalType": "bool",
          "name": "",
          "type": "bool"
        }
      ],
      "stateMutability": "view",
      "type": "function"
    },
    {
      "inputs": [],
      "name": "issueTime",
      "outputs": [
        {
          "internalType": "uint256",
          "name": "",
          "type": "uint256"
        }
      ],
      "stateMutability": "view",
      "type": "function"
    },
    {
      "inputs": [],
      "name": "issuer",
      "outputs": [
        {
          "internalType": "address",
          "name": "",
          "type": "address"
        }
      ],
      "stateMutability": "view",
      "type": "function"
    },
    {
      "inputs": [],
      "name": "issuerCN",
      "outputs": [
        {
          "internalType": "string",
          "name": "",
          "type": "string"
        }
      ],
      "stateMutability": "view",
      "type": "function"
    },
    {
      "inputs": [
        {
          "internalType": "string",
          "name": "_hash",
          "type": "string"
        }
      ],
      "name": "revoke",
      "outputs": [],
      "stateMutability": "nonpayable",
      "type": "function"
    }
  ],
  "bytecode": "0x60806040523480156200001157600080fd5b50604051620011be380380620011be833981810160405281019062000037919062000305565b4260008190555033600160006101000a81548173ffffffffffffffffffffffffffffffffffffffff021916908373ffffffffffffffffffffffffffffffffffffffff16021790555087600290816200009091906200064d565b508660039081620000a291906200064d565b50856004600060028110620000bc57620000bb62000734565b5b0181905550846004600160028110620000da57620000d962000734565b5b0181905550836006819055508260078190555081600860006002811062000106576200010562000734565b5b018190555080600860016002811062000124576200012362000734565b5b0181905550505050505050505062000763565b6000604051905090565b600080fd5b600080fd5b600080fd5b600080fd5b6000601f19601f8301169050919050565b7f4e487b7100000000000000000000000000000000000000000000000000000000600052604160045260246000fd5b620001a08262000155565b810181811067ffffffffffffffff82111715620001c257620001c162000166565b5b80604052505050565b6000620001d762000137565b9050620001e5828262000195565b919050565b600067ffffffffffffffff82111562000208576200020762000166565b5b620002138262000155565b9050602081019050919050565b60005b838110156200024057808201518184015260208101905062000223565b60008484015250505050565b6000620002636200025d84620001ea565b620001cb565b90508281526020810184848401111562000282576200028162000150565b5b6200028f84828562000220565b509392505050565b600082601f830112620002af57620002ae6200014b565b5b8151620002c18482602086016200024c565b91505092915050565b6000819050919050565b620002df81620002ca565b8114620002eb57600080fd5b50565b600081519050620002ff81620002d4565b92915050565b600080600080600080600080610100898b03121562000329576200032862000141565b5b600089015167ffffffffffffffff8111156200034a576200034962000146565b5b620003588b828c0162000297565b985050602089015167ffffffffffffffff8111156200037c576200037b62000146565b5b6200038a8b828c0162000297565b97505060406200039d8b828c01620002ee565b9650506060620003b08b828c01620002ee565b9550506080620003c38b828c01620002ee565b94505060a0620003d68b828c01620002ee565b93505060c0620003e98b828c01620002ee565b92505060e0620003fc8b828c01620002ee565b9150509295985092959890939650565b600081519050919050565b7f4e487b7100000000000000000000000000000000000000000000000000000000600052602260045260246000fd5b600060028204905060018216806200045f57607f821691505b60208210810362000475576200047462000417565b5b50919050565b60008190508160005260206000209050919050565b60006020601f8301049050919050565b600082821b905092915050565b600060088302620004df7fffffffffffffffffffffffffffffffffffffffffffffffffffffffffffffffff82620004a0565b620004eb8683620004a0565b95508019841693508086168417925050509392505050565b6000819050919050565b60006200052e620005286200052284620002ca565b62000503565b620002ca565b9050919050565b6000819050919050565b6200054a836200050d565b62000562620005598262000535565b848454620004ad565b825550505050565b600090565b620005796200056a565b620005868184846200053f565b505050565b5b81811015620005ae57620005a26000826200056f565b6001810190506200058c565b5050565b601f821115620005fd57620005c7816200047b565b620005d28462000490565b81016020851015620005e2578190505b620005fa620005f18562000490565b8301826200058b565b50505b505050565b600082821c905092915050565b6000620006226000198460080262000602565b1980831691505092915050565b60006200063d83836200060f565b9150826002028217905092915050565b62000658826200040c565b67ffffffffffffffff81111562000674576200067362000166565b5b62000680825462000446565b6200068d828285620005b2565b600060209050601f831160018114620006c55760008415620006b0578287015190505b620006bc85826200062f565b8655506200072c565b601f198416620006d5866200047b565b60005b82811015620006ff57848901518255600182019150602085019450602081019050620006d8565b868310156200071f57848901516200071b601f8916826200060f565b8355505b6001600288020188555050505b505050505050565b7f4e487b7100000000000000000000000000000000000000000000000000000000600052603260045260246000fd5b610a4b80620007736000396000f3fe608060405234801561001057600080fd5b506004361061009e5760003560e01c8063d685374811610066578063d68537481461015b578063db9f4c5b14610179578063df07b60e14610197578063ea1e11cb146101b5578063fab7dbdd146101e55761009e565b80631d143848146100a357806335168a00146100c157806365b2a863146100f1578063a9b8c5a01461010d578063b7cc6af21461012b575b600080fd5b6100ab610203565b6040516100b89190610542565b60405180910390f35b6100db60048036038101906100d691906106b7565b610229565b6040516100e8919061071b565b60405180910390f35b61010b600480360381019061010691906106b7565b61025f565b005b61011561039d565b60405161012291906107b5565b60405180910390f35b6101456004803603810190610140919061080d565b61042b565b6040516101529190610849565b60405180910390f35b610163610446565b6040516101709190610849565b60405180910390f35b61018161044c565b60405161018e91906107b5565b60405180910390f35b61019f6104da565b6040516101ac9190610849565b60405180910390f35b6101cf60048036038101906101ca919061080d565b6104e0565b6040516101dc9190610849565b60405180910390f35b6101ed6104fb565b6040516101fa9190610849565b60405180910390f35b600160009054906101000a900473ffffffffffffffffffffffffffffffffffffffff1681565b600a818051602081018201805184825260208301602085012081835280955050505050506000915054906101000a900460ff1681565b600160009054906101000a900473ffffffffffffffffffffffffffffffffffffffff1673ffffffffffffffffffffffffffffffffffffffff163373ffffffffffffffffffffffffffffffffffffffff16146102ef576040517f08c379a00000000000000000000000000000000000000000000000000000000081526004016102e6906108b0565b60405180910390fd5b8060011515600a82604051610304919061090c565b908152602001604051809103902060009054906101000a900460ff16151503610362576040517f08c379a000000000000000000000000000000000000000000000000000000000815260040161035990610995565b60405180910390fd5b6001600a83604051610374919061090c565b908152602001604051809103902060006101000a81548160ff0219169083151502179055505050565b600380546103aa906109e4565b80601f01602080910402602001604051908101604052809291908181526020018280546103d6906109e4565b80156104235780601f106103f857610100808354040283529160200191610423565b820191906000526020600020905b81548152906001019060200180831161040657829003601f168201915b505050505081565b6004816002811061043b57600080fd5b016000915090505481565b60065481565b60028054610459906109e4565b80601f0160208091040260200160405190810160405280929190818152602001828054610485906109e4565b80156104d25780601f106104a7576101008083540402835291602001916104d2565b820191906000526020600020905b8154815290600101906020018083116104b557829003601f168201915b505050505081565b60005481565b600881600281106104f057600080fd5b016000915090505481565b60075481565b600073ffffffffffffffffffffffffffffffffffffffff82169050919050565b600061052c82610501565b9050919050565b61053c81610521565b82525050565b60006020820190506105576000830184610533565b92915050565b6000604051905090565b600080fd5b600080fd5b600080fd5b600080fd5b6000601f19601f8301169050919050565b7f4e487b7100000000000000000000000000000000000000000000000000000000600052604160045260246000fd5b6105c48261057b565b810181811067ffffffffffffffff821117156105e3576105e261058c565b5b80604052505050565b60006105f661055d565b905061060282826105bb565b919050565b600067ffffffffffffffff8211156106225761062161058c565b5b61062b8261057b565b9050602081019050919050565b82818337600083830152505050565b600061065a61065584610607565b6105ec565b90508281526020810184848401111561067657610675610576565b5b610681848285610638565b509392505050565b600082601f83011261069e5761069d610571565b5b81356106ae848260208601610647565b91505092915050565b6000602082840312156106cd576106cc610567565b5b600082013567ffffffffffffffff8111156106eb576106ea61056c565b5b6106f784828501610689565b91505092915050565b60008115159050919050565b61071581610700565b82525050565b6000602082019050610730600083018461070c565b92915050565b600081519050919050565b600082825260208201905092915050565b60005b83811015610770578082015181840152602081019050610755565b60008484015250505050565b600061078782610736565b6107918185610741565b93506107a1818560208601610752565b6107aa8161057b565b840191505092915050565b600060208201905081810360008301526107cf818461077c565b905092915050565b6000819050919050565b6107ea816107d7565b81146107f557600080fd5b50565b600081359050610807816107e1565b92915050565b60006020828403121561082357610822610567565b5b6000610831848285016107f8565b91505092915050565b610843816107d7565b82525050565b600060208201905061085e600083018461083a565b92915050565b7f596f7520617265206e6f74207468652069737375657221000000000000000000600082015250565b600061089a601783610741565b91506108a582610864565b602082019050919050565b600060208201905081810360008301526108c98161088d565b9050919050565b600081905092915050565b60006108e682610736565b6108f081856108d0565b9350610900818560208601610752565b80840191505092915050565b600061091882846108db565b915081905092915050565b7f54686973206365727469666963617465206973207265766f6b656420616e642060008201527f63616e6e6f742062652075736521000000000000000000000000000000000000602082015250565b600061097f602e83610741565b915061098a82610923565b604082019050919050565b600060208201905081810360008301526109ae81610972565b9050919050565b7f4e487b7100000000000000000000000000000000000000000000000000000000600052602260045260246000fd5b600060028204905060018216806109fc57607f821691505b602082108103610a0f57610a0e6109b5565b5b5091905056fea2646970667358221220ec15f59d35e190b9a10bde32c6b1b106412f869b89d3465ce96e06ff3a2d384b64736f6c63430008140033",
  "linkReferences": {},
  "deployedLinkReferences": {}
}